{
	"CharityDonation.sol": {
		"CharityDonation": {
			"abi": [
				{
					"inputs": [
						{
							"internalType": "address",
							"name": "_token",
							"type": "address"
						}
					],
					"stateMutability": "nonpayable",
					"type": "constructor"
				},
				{
					"anonymous": false,
					"inputs": [
						{
							"indexed": false,
							"internalType": "uint256",
							"name": "campaignId",
							"type": "uint256"
						},
						{
							"indexed": true,
							"internalType": "address",
							"name": "creator",
							"type": "address"
						},
						{
							"indexed": false,
							"internalType": "uint256",
							"name": "target",
							"type": "uint256"
						},
						{
							"indexed": false,
							"internalType": "uint32",
							"name": "startDate",
							"type": "uint32"
						},
						{
							"indexed": false,
							"internalType": "uint32",
							"name": "endDate",
							"type": "uint32"
						}
					],
					"name": "Begin",
					"type": "event"
				},
				{
					"anonymous": false,
					"inputs": [
						{
							"indexed": false,
							"internalType": "uint256",
							"name": "campaignId",
							"type": "uint256"
						}
					],
					"name": "Cancel",
					"type": "event"
				},
				{
					"anonymous": false,
					"inputs": [
						{
							"indexed": false,
							"internalType": "uint256",
							"name": "campaignId",
							"type": "uint256"
						}
					],
					"name": "Claim",
					"type": "event"
				},
				{
					"anonymous": false,
					"inputs": [
						{
							"indexed": true,
							"internalType": "uint256",
							"name": "campaignId",
							"type": "uint256"
						},
						{
							"indexed": true,
							"internalType": "address",
							"name": "executer",
							"type": "address"
						},
						{
							"indexed": false,
							"internalType": "uint256",
							"name": "amount",
							"type": "uint256"
						}
					],
					"name": "Offer",
					"type": "event"
				},
				{
					"anonymous": false,
					"inputs": [
						{
							"indexed": false,
							"internalType": "uint256",
							"name": "campaignId",
							"type": "uint256"
						},
						{
							"indexed": true,
							"internalType": "address",
							"name": "executer",
							"type": "address"
						},
						{
							"indexed": false,
							"internalType": "uint256",
							"name": "amount",
							"type": "uint256"
						}
					],
					"name": "Refund",
					"type": "event"
				},
				{
					"anonymous": false,
					"inputs": [
						{
							"indexed": true,
							"internalType": "uint256",
							"name": "campaignId",
							"type": "uint256"
						},
						{
							"indexed": true,
							"internalType": "address",
							"name": "executer",
							"type": "address"
						},
						{
							"indexed": false,
							"internalType": "uint256",
							"name": "amount",
							"type": "uint256"
						}
					],
					"name": "Refuse",
					"type": "event"
				},
				{
					"inputs": [
						{
							"internalType": "uint256",
							"name": "_target",
							"type": "uint256"
						},
						{
							"internalType": "uint32",
							"name": "_startDate",
							"type": "uint32"
						},
						{
							"internalType": "uint32",
							"name": "_endDate",
							"type": "uint32"
						}
					],
					"name": "begin",
					"outputs": [],
					"stateMutability": "nonpayable",
					"type": "function"
				},
				{
					"inputs": [
						{
							"internalType": "uint256",
							"name": "",
							"type": "uint256"
						}
					],
					"name": "campaigns",
					"outputs": [
						{
							"internalType": "address",
							"name": "creator",
							"type": "address"
						},
						{
							"internalType": "uint256",
							"name": "target",
							"type": "uint256"
						},
						{
							"internalType": "uint256",
							"name": "offerd",
							"type": "uint256"
						},
						{
							"internalType": "uint32",
							"name": "startDate",
							"type": "uint32"
						},
						{
							"internalType": "uint32",
							"name": "endDate",
							"type": "uint32"
						},
						{
							"internalType": "bool",
							"name": "claimed",
							"type": "bool"
						}
					],
					"stateMutability": "view",
					"type": "function"
				},
				{
					"inputs": [
						{
							"internalType": "uint256",
							"name": "_id",
							"type": "uint256"
						}
					],
					"name": "cancel",
					"outputs": [],
					"stateMutability": "nonpayable",
					"type": "function"
				},
				{
					"inputs": [
						{
							"internalType": "uint256",
							"name": "_id",
							"type": "uint256"
						}
					],
					"name": "claim",
					"outputs": [],
					"stateMutability": "nonpayable",
					"type": "function"
				},
				{
					"inputs": [],
					"name": "count",
					"outputs": [
						{
							"internalType": "uint256",
							"name": "",
							"type": "uint256"
						}
					],
					"stateMutability": "view",
					"type": "function"
				},
				{
					"inputs": [
						{
							"internalType": "uint256",
							"name": "_id",
							"type": "uint256"
						},
						{
							"internalType": "uint256",
							"name": "_amount",
							"type": "uint256"
						}
					],
					"name": "offer",
					"outputs": [],
					"stateMutability": "nonpayable",
					"type": "function"
				},
				{
					"inputs": [
						{
							"internalType": "uint256",
							"name": "",
							"type": "uint256"
						},
						{
							"internalType": "address",
							"name": "",
							"type": "address"
						}
					],
					"name": "offerdAmount",
					"outputs": [
						{
							"internalType": "uint256",
							"name": "",
							"type": "uint256"
						}
					],
					"stateMutability": "view",
					"type": "function"
				},
				{
					"inputs": [
						{
							"internalType": "uint256",
							"name": "_id",
							"type": "uint256"
						}
					],
					"name": "refund",
					"outputs": [],
					"stateMutability": "nonpayable",
					"type": "function"
				},
				{
					"inputs": [
						{
							"internalType": "uint256",
							"name": "_id",
							"type": "uint256"
						},
						{
							"internalType": "uint256",
							"name": "_amount",
							"type": "uint256"
						}
					],
					"name": "refuse",
					"outputs": [],
					"stateMutability": "nonpayable",
					"type": "function"
				},
				{
					"inputs": [],
					"name": "token",
					"outputs": [
						{
							"internalType": "contract IERC20",
							"name": "",
							"type": "address"
						}
					],
					"stateMutability": "view",
					"type": "function"
				}
			],
			"devdoc": {
				"kind": "dev",
				"methods": {},
				"version": 1
			},
			"evm": {
				"assembly": "    /* \"CharityDonation.sol\":185:4101  contract CharityDonation {... */\n  mstore(0x40, 0xa0)\n    /* \"CharityDonation.sol\":1179:1246  constructor(address _token) {... */\n  callvalue\n  dup1\n  iszero\n  tag_1\n  jumpi\n  0x00\n  dup1\n  revert\ntag_1:\n  pop\n  mload(0x40)\n  sub(codesize, bytecodeSize)\n  dup1\n  bytecodeSize\n  dup4\n  codecopy\n  dup2\n  dup2\n  add\n  0x40\n  mstore\n  dup2\n  add\n  swap1\n  tag_2\n  swap2\n  swap1\n  tag_3\n  jump\t// in\ntag_2:\n    /* \"CharityDonation.sol\":1232:1238  _token */\n  dup1\n    /* \"CharityDonation.sol\":1217:1239  token = IERC20(_token) */\n  0xffffffffffffffffffffffffffffffffffffffff\n  and\n  0x80\n  dup2\n  0xffffffffffffffffffffffffffffffffffffffff\n  and\n  dup2\n  mstore\n  pop\n  pop\n    /* \"CharityDonation.sol\":1179:1246  constructor(address _token) {... */\n  pop\n    /* \"CharityDonation.sol\":185:4101  contract CharityDonation {... */\n  jump(tag_6)\n    /* \"#utility.yul\":88:205   */\ntag_8:\n    /* \"#utility.yul\":197:198   */\n  0x00\n    /* \"#utility.yul\":194:195   */\n  dup1\n    /* \"#utility.yul\":187:199   */\n  revert\n    /* \"#utility.yul\":334:460   */\ntag_10:\n    /* \"#utility.yul\":371:378   */\n  0x00\n    /* \"#utility.yul\":411:453   */\n  0xffffffffffffffffffffffffffffffffffffffff\n    /* \"#utility.yul\":404:409   */\n  dup3\n    /* \"#utility.yul\":400:454   */\n  and\n    /* \"#utility.yul\":389:454   */\n  swap1\n  pop\n    /* \"#utility.yul\":334:460   */\n  swap2\n  swap1\n  pop\n  jump\t// out\n    /* \"#utility.yul\":466:562   */\ntag_11:\n    /* \"#utility.yul\":503:510   */\n  0x00\n    /* \"#utility.yul\":532:556   */\n  tag_20\n    /* \"#utility.yul\":550:555   */\n  dup3\n    /* \"#utility.yul\":532:556   */\n  tag_10\n  jump\t// in\ntag_20:\n    /* \"#utility.yul\":521:556   */\n  swap1\n  pop\n    /* \"#utility.yul\":466:562   */\n  swap2\n  swap1\n  pop\n  jump\t// out\n    /* \"#utility.yul\":568:690   */\ntag_12:\n    /* \"#utility.yul\":641:665   */\n  tag_22\n    /* \"#utility.yul\":659:664   */\n  dup2\n    /* \"#utility.yul\":641:665   */\n  tag_11\n  jump\t// in\ntag_22:\n    /* \"#utility.yul\":634:639   */\n  dup2\n    /* \"#utility.yul\":631:666   */\n  eq\n    /* \"#utility.yul\":621:684   */\n  tag_23\n  jumpi\n    /* \"#utility.yul\":680:681   */\n  0x00\n    /* \"#utility.yul\":677:678   */\n  dup1\n    /* \"#utility.yul\":670:682   */\n  revert\n    /* \"#utility.yul\":621:684   */\ntag_23:\n    /* \"#utility.yul\":568:690   */\n  pop\n  jump\t// out\n    /* \"#utility.yul\":696:839   */\ntag_13:\n    /* \"#utility.yul\":753:758   */\n  0x00\n    /* \"#utility.yul\":784:790   */\n  dup2\n    /* \"#utility.yul\":778:791   */\n  mload\n    /* \"#utility.yul\":769:791   */\n  swap1\n  pop\n    /* \"#utility.yul\":800:833   */\n  tag_25\n    /* \"#utility.yul\":827:832   */\n  dup2\n    /* \"#utility.yul\":800:833   */\n  tag_12\n  jump\t// in\ntag_25:\n    /* \"#utility.yul\":696:839   */\n  swap3\n  swap2\n  pop\n  pop\n  jump\t// out\n    /* \"#utility.yul\":845:1196   */\ntag_3:\n    /* \"#utility.yul\":915:921   */\n  0x00\n    /* \"#utility.yul\":964:966   */\n  0x20\n    /* \"#utility.yul\":952:961   */\n  dup3\n    /* \"#utility.yul\":943:950   */\n  dup5\n    /* \"#utility.yul\":939:962   */\n  sub\n    /* \"#utility.yul\":935:967   */\n  slt\n    /* \"#utility.yul\":932:1051   */\n  iszero\n  tag_27\n  jumpi\n    /* \"#utility.yul\":970:1049   */\n  tag_28\n  tag_8\n  jump\t// in\ntag_28:\n    /* \"#utility.yul\":932:1051   */\ntag_27:\n    /* \"#utility.yul\":1090:1091   */\n  0x00\n    /* \"#utility.yul\":1115:1179   */\n  tag_29\n    /* \"#utility.yul\":1171:1178   */\n  dup5\n    /* \"#utility.yul\":1162:1168   */\n  dup3\n    /* \"#utility.yul\":1151:1160   */\n  dup6\n    /* \"#utility.yul\":1147:1169   */\n  add\n    /* \"#utility.yul\":1115:1179   */\n  tag_13\n  jump\t// in\ntag_29:\n    /* \"#utility.yul\":1105:1179   */\n  swap2\n  pop\n    /* \"#utility.yul\":1061:1189   */\n  pop\n    /* \"#utility.yul\":845:1196   */\n  swap3\n  swap2\n  pop\n  pop\n  jump\t// out\n    /* \"CharityDonation.sol\":185:4101  contract CharityDonation {... */\ntag_6:\n  mload(0x80)\n  codecopy(0x00, dataOffset(sub_0), dataSize(sub_0))\n  0x00\n  assignImmutable(\"0xd9670a00d025e59e1bd58d53874bea4ab34fea782716e2c168e89a3c8452d3bb\")\n  return(0x00, dataSize(sub_0))\nstop\n\nsub_0: assembly {\n        /* \"CharityDonation.sol\":185:4101  contract CharityDonation {... */\n      mstore(0x40, 0x80)\n      callvalue\n      dup1\n      iszero\n      tag_1\n      jumpi\n      0x00\n      dup1\n      revert\n    tag_1:\n      pop\n      jumpi(tag_2, lt(calldatasize, 0x04))\n      shr(0xe0, calldataload(0x00))\n      dup1\n      0x40e58ee5\n      gt\n      tag_13\n      jumpi\n      dup1\n      0x40e58ee5\n      eq\n      tag_8\n      jumpi\n      dup1\n      0x5391efdf\n      eq\n      tag_9\n      jumpi\n      dup1\n      0x7db8112d\n      eq\n      tag_10\n      jumpi\n      dup1\n      0xa1920586\n      eq\n      tag_11\n      jumpi\n      dup1\n      0xfc0c546a\n      eq\n      tag_12\n      jumpi\n      jump(tag_2)\n    tag_13:\n      dup1\n      0x06661abd\n      eq\n      tag_3\n      jumpi\n      dup1\n      0x141961bc\n      eq\n      tag_4\n      jumpi\n      dup1\n      0x278ecde1\n      eq\n      tag_5\n      jumpi\n      dup1\n      0x35bae386\n      eq\n      tag_6\n      jumpi\n      dup1\n      0x379607f5\n      eq\n      tag_7\n      jumpi\n    tag_2:\n      0x00\n      dup1\n      revert\n        /* \"CharityDonation.sol\":938:955  uint public count */\n    tag_3:\n      tag_14\n      tag_15\n      jump\t// in\n    tag_14:\n      mload(0x40)\n      tag_16\n      swap2\n      swap1\n      tag_17\n      jump\t// in\n    tag_16:\n      mload(0x40)\n      dup1\n      swap2\n      sub\n      swap1\n      return\n        /* \"CharityDonation.sol\":1004:1046  mapping(uint => Campaign) public campaigns */\n    tag_4:\n      tag_18\n      0x04\n      dup1\n      calldatasize\n      sub\n      dup2\n      add\n      swap1\n      tag_19\n      swap2\n      swap1\n      tag_20\n      jump\t// in\n    tag_19:\n      tag_21\n      jump\t// in\n    tag_18:\n      mload(0x40)\n      tag_22\n      swap7\n      swap6\n      swap5\n      swap4\n      swap3\n      swap2\n      swap1\n      tag_23\n      jump\t// in\n    tag_22:\n      mload(0x40)\n      dup1\n      swap2\n      sub\n      swap1\n      return\n        /* \"CharityDonation.sol\":3647:4099  function refund(uint _id) external {... */\n    tag_5:\n      tag_24\n      0x04\n      dup1\n      calldatasize\n      sub\n      dup2\n      add\n      swap1\n      tag_25\n      swap2\n      swap1\n      tag_20\n      jump\t// in\n    tag_25:\n      tag_26\n      jump\t// in\n    tag_24:\n      stop\n        /* \"CharityDonation.sol\":1111:1172  mapping(uint => mapping(address => uint)) public offerdAmount */\n    tag_6:\n      tag_27\n      0x04\n      dup1\n      calldatasize\n      sub\n      dup2\n      add\n      swap1\n      tag_28\n      swap2\n      swap1\n      tag_29\n      jump\t// in\n    tag_28:\n      tag_30\n      jump\t// in\n    tag_27:\n      mload(0x40)\n      tag_31\n      swap2\n      swap1\n      tag_17\n      jump\t// in\n    tag_31:\n      mload(0x40)\n      dup1\n      swap2\n      sub\n      swap1\n      return\n        /* \"CharityDonation.sol\":3198:3641  function claim(uint _id) external {... */\n    tag_7:\n      tag_32\n      0x04\n      dup1\n      calldatasize\n      sub\n      dup2\n      add\n      swap1\n      tag_33\n      swap2\n      swap1\n      tag_20\n      jump\t// in\n    tag_33:\n      tag_34\n      jump\t// in\n    tag_32:\n      stop\n        /* \"CharityDonation.sol\":1928:2242  function cancel(uint _id) external {... */\n    tag_8:\n      tag_35\n      0x04\n      dup1\n      calldatasize\n      sub\n      dup2\n      add\n      swap1\n      tag_36\n      swap2\n      swap1\n      tag_20\n      jump\t// in\n    tag_36:\n      tag_37\n      jump\t// in\n    tag_35:\n      stop\n        /* \"CharityDonation.sol\":1252:1922  function begin(uint _target, uint32 _startDate, uint32 _endDate) external {... */\n    tag_9:\n      tag_38\n      0x04\n      dup1\n      calldatasize\n      sub\n      dup2\n      add\n      swap1\n      tag_39\n      swap2\n      swap1\n      tag_40\n      jump\t// in\n    tag_39:\n      tag_41\n      jump\t// in\n    tag_38:\n      stop\n        /* \"CharityDonation.sol\":2729:3192  function refuse(uint _id, uint _amount) external {... */\n    tag_10:\n      tag_42\n      0x04\n      dup1\n      calldatasize\n      sub\n      dup2\n      add\n      swap1\n      tag_43\n      swap2\n      swap1\n      tag_44\n      jump\t// in\n    tag_43:\n      tag_45\n      jump\t// in\n    tag_42:\n      stop\n        /* \"CharityDonation.sol\":2248:2723  function offer(uint _id, uint _amount) external {... */\n    tag_11:\n      tag_46\n      0x04\n      dup1\n      calldatasize\n      sub\n      dup2\n      add\n      swap1\n      tag_47\n      swap2\n      swap1\n      tag_44\n      jump\t// in\n    tag_47:\n      tag_48\n      jump\t// in\n    tag_46:\n      stop\n        /* \"CharityDonation.sol\":797:826  IERC20 public immutable token */\n    tag_12:\n      tag_49\n      tag_50\n      jump\t// in\n    tag_49:\n      mload(0x40)\n      tag_51\n      swap2\n      swap1\n      tag_52\n      jump\t// in\n    tag_51:\n      mload(0x40)\n      dup1\n      swap2\n      sub\n      swap1\n      return\n        /* \"CharityDonation.sol\":938:955  uint public count */\n    tag_15:\n      sload(0x00)\n      dup2\n      jump\t// out\n        /* \"CharityDonation.sol\":1004:1046  mapping(uint => Campaign) public campaigns */\n    tag_21:\n      mstore(0x20, 0x01)\n      dup1\n      0x00\n      mstore\n      keccak256(0x00, 0x40)\n      0x00\n      swap2\n      pop\n      swap1\n      pop\n      dup1\n      0x00\n      add\n      0x00\n      swap1\n      sload\n      swap1\n      0x0100\n      exp\n      swap1\n      div\n      0xffffffffffffffffffffffffffffffffffffffff\n      and\n      swap1\n      dup1\n      0x01\n      add\n      sload\n      swap1\n      dup1\n      0x02\n      add\n      sload\n      swap1\n      dup1\n      0x03\n      add\n      0x00\n      swap1\n      sload\n      swap1\n      0x0100\n      exp\n      swap1\n      div\n      0xffffffff\n      and\n      swap1\n      dup1\n      0x03\n      add\n      0x04\n      swap1\n      sload\n      swap1\n      0x0100\n      exp\n      swap1\n      div\n      0xffffffff\n      and\n      swap1\n      dup1\n      0x03\n      add\n      0x08\n      swap1\n      sload\n      swap1\n      0x0100\n      exp\n      swap1\n      div\n      0xff\n      and\n      swap1\n      pop\n      dup7\n      jump\t// out\n        /* \"CharityDonation.sol\":3647:4099  function refund(uint _id) external {... */\n    tag_26:\n        /* \"CharityDonation.sol\":3692:3716  Campaign memory campaign */\n      0x00\n        /* \"CharityDonation.sol\":3719:3728  campaigns */\n      0x01\n        /* \"CharityDonation.sol\":3719:3733  campaigns[_id] */\n      0x00\n        /* \"CharityDonation.sol\":3729:3732  _id */\n      dup4\n        /* \"CharityDonation.sol\":3719:3733  campaigns[_id] */\n      dup2\n      mstore\n      0x20\n      add\n      swap1\n      dup2\n      mstore\n      0x20\n      add\n      0x00\n      keccak256\n        /* \"CharityDonation.sol\":3692:3733  Campaign memory campaign = campaigns[_id] */\n      mload(0x40)\n      dup1\n      0xc0\n      add\n      0x40\n      mstore\n      swap1\n      dup2\n      0x00\n      dup3\n      add\n      0x00\n      swap1\n      sload\n      swap1\n      0x0100\n      exp\n      swap1\n      div\n      0xffffffffffffffffffffffffffffffffffffffff\n      and\n      0xffffffffffffffffffffffffffffffffffffffff\n      and\n      0xffffffffffffffffffffffffffffffffffffffff\n      and\n      dup2\n      mstore\n      0x20\n      add\n      0x01\n      dup3\n      add\n      sload\n      dup2\n      mstore\n      0x20\n      add\n      0x02\n      dup3\n      add\n      sload\n      dup2\n      mstore\n      0x20\n      add\n      0x03\n      dup3\n      add\n      0x00\n      swap1\n      sload\n      swap1\n      0x0100\n      exp\n      swap1\n      div\n      0xffffffff\n      and\n      0xffffffff\n      and\n      0xffffffff\n      and\n      dup2\n      mstore\n      0x20\n      add\n      0x03\n      dup3\n      add\n      0x04\n      swap1\n      sload\n      swap1\n      0x0100\n      exp\n      swap1\n      div\n      0xffffffff\n      and\n      0xffffffff\n      and\n      0xffffffff\n      and\n      dup2\n      mstore\n      0x20\n      add\n      0x03\n      dup3\n      add\n      0x08\n      swap1\n      sload\n      swap1\n      0x0100\n      exp\n      swap1\n      div\n      0xff\n      and\n      iszero\n      iszero\n      iszero\n      iszero\n      dup2\n      mstore\n      pop\n      pop\n      swap1\n      pop\n        /* \"CharityDonation.sol\":3769:3777  campaign */\n      dup1\n        /* \"CharityDonation.sol\":3769:3785  campaign.endDate */\n      0x80\n      add\n      mload\n        /* \"CharityDonation.sol\":3751:3785  block.timestamp > campaign.endDate */\n      0xffffffff\n      and\n        /* \"CharityDonation.sol\":3751:3766  block.timestamp */\n      timestamp\n        /* \"CharityDonation.sol\":3751:3785  block.timestamp > campaign.endDate */\n      gt\n        /* \"CharityDonation.sol\":3743:3817  require(block.timestamp > campaign.endDate, \"Campaign has not ended yet!\") */\n      tag_54\n      jumpi\n      mload(0x40)\n      0x08c379a000000000000000000000000000000000000000000000000000000000\n      dup2\n      mstore\n      0x04\n      add\n      tag_55\n      swap1\n      tag_56\n      jump\t// in\n    tag_55:\n      mload(0x40)\n      dup1\n      swap2\n      sub\n      swap1\n      revert\n    tag_54:\n        /* \"CharityDonation.sol\":3872:3879  10 days */\n      0x0d2f00\n        /* \"CharityDonation.sol\":3853:3861  campaign */\n      dup2\n        /* \"CharityDonation.sol\":3853:3869  campaign.endDate */\n      0x80\n      add\n      mload\n        /* \"CharityDonation.sol\":3853:3879  campaign.endDate + 10 days */\n      tag_57\n      swap2\n      swap1\n      tag_58\n      jump\t// in\n    tag_57:\n        /* \"CharityDonation.sol\":3835:3879  block.timestamp > campaign.endDate + 10 days */\n      0xffffffff\n      and\n        /* \"CharityDonation.sol\":3835:3850  block.timestamp */\n      timestamp\n        /* \"CharityDonation.sol\":3835:3879  block.timestamp > campaign.endDate + 10 days */\n      gt\n        /* \"CharityDonation.sol\":3827:3913  require(block.timestamp > campaign.endDate + 10 days, \"Campaign has not expired yet!\") */\n      tag_59\n      jumpi\n      mload(0x40)\n      0x08c379a000000000000000000000000000000000000000000000000000000000\n      dup2\n      mstore\n      0x04\n      add\n      tag_60\n      swap1\n      tag_61\n      jump\t// in\n    tag_60:\n      mload(0x40)\n      dup1\n      swap2\n      sub\n      swap1\n      revert\n    tag_59:\n        /* \"CharityDonation.sol\":3924:3932  uint bal */\n      0x00\n        /* \"CharityDonation.sol\":3935:3947  offerdAmount */\n      0x02\n        /* \"CharityDonation.sol\":3935:3952  offerdAmount[_id] */\n      0x00\n        /* \"CharityDonation.sol\":3948:3951  _id */\n      dup5\n        /* \"CharityDonation.sol\":3935:3952  offerdAmount[_id] */\n      dup2\n      mstore\n      0x20\n      add\n      swap1\n      dup2\n      mstore\n      0x20\n      add\n      0x00\n      keccak256\n        /* \"CharityDonation.sol\":3935:3964  offerdAmount[_id][msg.sender] */\n      0x00\n        /* \"CharityDonation.sol\":3953:3963  msg.sender */\n      caller\n        /* \"CharityDonation.sol\":3935:3964  offerdAmount[_id][msg.sender] */\n      0xffffffffffffffffffffffffffffffffffffffff\n      and\n      0xffffffffffffffffffffffffffffffffffffffff\n      and\n      dup2\n      mstore\n      0x20\n      add\n      swap1\n      dup2\n      mstore\n      0x20\n      add\n      0x00\n      keccak256\n      sload\n        /* \"CharityDonation.sol\":3924:3964  uint bal = offerdAmount[_id][msg.sender] */\n      swap1\n      pop\n        /* \"CharityDonation.sol\":4006:4007  0 */\n      0x00\n        /* \"CharityDonation.sol\":3974:3986  offerdAmount */\n      0x02\n        /* \"CharityDonation.sol\":3974:3991  offerdAmount[_id] */\n      0x00\n        /* \"CharityDonation.sol\":3987:3990  _id */\n      dup6\n        /* \"CharityDonation.sol\":3974:3991  offerdAmount[_id] */\n      dup2\n      mstore\n      0x20\n      add\n      swap1\n      dup2\n      mstore\n      0x20\n      add\n      0x00\n      keccak256\n        /* \"CharityDonation.sol\":3974:4003  offerdAmount[_id][msg.sender] */\n      0x00\n        /* \"CharityDonation.sol\":3992:4002  msg.sender */\n      caller\n        /* \"CharityDonation.sol\":3974:4003  offerdAmount[_id][msg.sender] */\n      0xffffffffffffffffffffffffffffffffffffffff\n      and\n      0xffffffffffffffffffffffffffffffffffffffff\n      and\n      dup2\n      mstore\n      0x20\n      add\n      swap1\n      dup2\n      mstore\n      0x20\n      add\n      0x00\n      keccak256\n        /* \"CharityDonation.sol\":3974:4007  offerdAmount[_id][msg.sender] = 0 */\n      dup2\n      swap1\n      sstore\n      pop\n        /* \"CharityDonation.sol\":4017:4022  token */\n      immutable(\"0xd9670a00d025e59e1bd58d53874bea4ab34fea782716e2c168e89a3c8452d3bb\")\n        /* \"CharityDonation.sol\":4017:4031  token.transfer */\n      0xffffffffffffffffffffffffffffffffffffffff\n      and\n      0xa9059cbb\n        /* \"CharityDonation.sol\":4032:4042  msg.sender */\n      caller\n        /* \"CharityDonation.sol\":4044:4047  bal */\n      dup4\n        /* \"CharityDonation.sol\":4017:4048  token.transfer(msg.sender, bal) */\n      mload(0x40)\n      dup4\n      0xffffffff\n      and\n      0xe0\n      shl\n      dup2\n      mstore\n      0x04\n      add\n      tag_62\n      swap3\n      swap2\n      swap1\n      tag_63\n      jump\t// in\n    tag_62:\n      0x20\n      mload(0x40)\n      dup1\n      dup4\n      sub\n      dup2\n      0x00\n      dup8\n      gas\n      call\n      iszero\n      dup1\n      iszero\n      tag_65\n      jumpi\n      returndatasize\n      0x00\n      dup1\n      returndatacopy\n      revert(0x00, returndatasize)\n    tag_65:\n      pop\n      pop\n      pop\n      pop\n      mload(0x40)\n      returndatasize\n      not(0x1f)\n      0x1f\n      dup3\n      add\n      and\n      dup3\n      add\n      dup1\n      0x40\n      mstore\n      pop\n      dup2\n      add\n      swap1\n      tag_66\n      swap2\n      swap1\n      tag_67\n      jump\t// in\n    tag_66:\n      pop\n        /* \"CharityDonation.sol\":4076:4086  msg.sender */\n      caller\n        /* \"CharityDonation.sol\":4064:4092  Refund(_id, msg.sender, bal) */\n      0xffffffffffffffffffffffffffffffffffffffff\n      and\n      0x21e12a7cad0da5928167e1084ea4d5fdf8d9af66657a2543a9ac76a0ca081477\n        /* \"CharityDonation.sol\":4071:4074  _id */\n      dup5\n        /* \"CharityDonation.sol\":4088:4091  bal */\n      dup4\n        /* \"CharityDonation.sol\":4064:4092  Refund(_id, msg.sender, bal) */\n      mload(0x40)\n      tag_68\n      swap3\n      swap2\n      swap1\n      tag_69\n      jump\t// in\n    tag_68:\n      mload(0x40)\n      dup1\n      swap2\n      sub\n      swap1\n      log2\n        /* \"CharityDonation.sol\":3682:4099  {... */\n      pop\n      pop\n        /* \"CharityDonation.sol\":3647:4099  function refund(uint _id) external {... */\n      pop\n      jump\t// out\n        /* \"CharityDonation.sol\":1111:1172  mapping(uint => mapping(address => uint)) public offerdAmount */\n    tag_30:\n      mstore(0x20, 0x02)\n      dup2\n      0x00\n      mstore\n      mstore(0x20, keccak256(0x00, 0x40))\n      dup1\n      0x00\n      mstore\n      keccak256(0x00, 0x40)\n      0x00\n      swap2\n      pop\n      swap2\n      pop\n      pop\n      sload\n      dup2\n      jump\t// out\n        /* \"CharityDonation.sol\":3198:3641  function claim(uint _id) external {... */\n    tag_34:\n        /* \"CharityDonation.sol\":3242:3267  Campaign storage campaign */\n      0x00\n        /* \"CharityDonation.sol\":3270:3279  campaigns */\n      0x01\n        /* \"CharityDonation.sol\":3270:3284  campaigns[_id] */\n      0x00\n        /* \"CharityDonation.sol\":3280:3283  _id */\n      dup4\n        /* \"CharityDonation.sol\":3270:3284  campaigns[_id] */\n      dup2\n      mstore\n      0x20\n      add\n      swap1\n      dup2\n      mstore\n      0x20\n      add\n      0x00\n      keccak256\n        /* \"CharityDonation.sol\":3242:3284  Campaign storage campaign = campaigns[_id] */\n      swap1\n      pop\n        /* \"CharityDonation.sol\":3322:3332  msg.sender */\n      caller\n        /* \"CharityDonation.sol\":3302:3332  campaign.creator == msg.sender */\n      0xffffffffffffffffffffffffffffffffffffffff\n      and\n        /* \"CharityDonation.sol\":3302:3310  campaign */\n      dup2\n        /* \"CharityDonation.sol\":3302:3318  campaign.creator */\n      0x00\n      add\n      0x00\n      swap1\n      sload\n      swap1\n      0x0100\n      exp\n      swap1\n      div\n      0xffffffffffffffffffffffffffffffffffffffff\n      and\n        /* \"CharityDonation.sol\":3302:3332  campaign.creator == msg.sender */\n      0xffffffffffffffffffffffffffffffffffffffff\n      and\n      eq\n        /* \"CharityDonation.sol\":3294:3363  require(campaign.creator == msg.sender, \"Sender is not the creator!\") */\n      tag_71\n      jumpi\n      mload(0x40)\n      0x08c379a000000000000000000000000000000000000000000000000000000000\n      dup2\n      mstore\n      0x04\n      add\n      tag_72\n      swap1\n      tag_73\n      jump\t// in\n    tag_72:\n      mload(0x40)\n      dup1\n      swap2\n      sub\n      swap1\n      revert\n    tag_71:\n        /* \"CharityDonation.sol\":3399:3407  campaign */\n      dup1\n        /* \"CharityDonation.sol\":3399:3415  campaign.endDate */\n      0x03\n      add\n      0x04\n      swap1\n      sload\n      swap1\n      0x0100\n      exp\n      swap1\n      div\n      0xffffffff\n      and\n        /* \"CharityDonation.sol\":3381:3415  block.timestamp > campaign.endDate */\n      0xffffffff\n      and\n        /* \"CharityDonation.sol\":3381:3396  block.timestamp */\n      timestamp\n        /* \"CharityDonation.sol\":3381:3415  block.timestamp > campaign.endDate */\n      gt\n        /* \"CharityDonation.sol\":3373:3447  require(block.timestamp > campaign.endDate, \"Campaign has not ended yet!\") */\n      tag_74\n      jumpi\n      mload(0x40)\n      0x08c379a000000000000000000000000000000000000000000000000000000000\n      dup2\n      mstore\n      0x04\n      add\n      tag_75\n      swap1\n      tag_56\n      jump\t// in\n    tag_75:\n      mload(0x40)\n      dup1\n      swap2\n      sub\n      swap1\n      revert\n    tag_74:\n        /* \"CharityDonation.sol\":3466:3474  campaign */\n      dup1\n        /* \"CharityDonation.sol\":3466:3482  campaign.claimed */\n      0x03\n      add\n      0x08\n      swap1\n      sload\n      swap1\n      0x0100\n      exp\n      swap1\n      div\n      0xff\n      and\n        /* \"CharityDonation.sol\":3465:3482  !campaign.claimed */\n      iszero\n        /* \"CharityDonation.sol\":3457:3515  require(!campaign.claimed, \"Donation is already claimed!\") */\n      tag_76\n      jumpi\n      mload(0x40)\n      0x08c379a000000000000000000000000000000000000000000000000000000000\n      dup2\n      mstore\n      0x04\n      add\n      tag_77\n      swap1\n      tag_78\n      jump\t// in\n    tag_77:\n      mload(0x40)\n      dup1\n      swap2\n      sub\n      swap1\n      revert\n    tag_76:\n        /* \"CharityDonation.sol\":3545:3549  true */\n      0x01\n        /* \"CharityDonation.sol\":3526:3534  campaign */\n      dup2\n        /* \"CharityDonation.sol\":3526:3542  campaign.claimed */\n      0x03\n      add\n      0x08\n        /* \"CharityDonation.sol\":3526:3549  campaign.claimed = true */\n      0x0100\n      exp\n      dup2\n      sload\n      dup2\n      0xff\n      mul\n      not\n      and\n      swap1\n      dup4\n      iszero\n      iszero\n      mul\n      or\n      swap1\n      sstore\n      pop\n        /* \"CharityDonation.sol\":3559:3564  token */\n      immutable(\"0xd9670a00d025e59e1bd58d53874bea4ab34fea782716e2c168e89a3c8452d3bb\")\n        /* \"CharityDonation.sol\":3559:3573  token.transfer */\n      0xffffffffffffffffffffffffffffffffffffffff\n      and\n      0xa9059cbb\n        /* \"CharityDonation.sol\":3574:3582  campaign */\n      dup3\n        /* \"CharityDonation.sol\":3574:3590  campaign.creator */\n      0x00\n      add\n      0x00\n      swap1\n      sload\n      swap1\n      0x0100\n      exp\n      swap1\n      div\n      0xffffffffffffffffffffffffffffffffffffffff\n      and\n        /* \"CharityDonation.sol\":3592:3600  campaign */\n      dup4\n        /* \"CharityDonation.sol\":3592:3607  campaign.offerd */\n      0x02\n      add\n      sload\n        /* \"CharityDonation.sol\":3559:3608  token.transfer(campaign.creator, campaign.offerd) */\n      mload(0x40)\n      dup4\n      0xffffffff\n      and\n      0xe0\n      shl\n      dup2\n      mstore\n      0x04\n      add\n      tag_79\n      swap3\n      swap2\n      swap1\n      tag_63\n      jump\t// in\n    tag_79:\n      0x20\n      mload(0x40)\n      dup1\n      dup4\n      sub\n      dup2\n      0x00\n      dup8\n      gas\n      call\n      iszero\n      dup1\n      iszero\n      tag_81\n      jumpi\n      returndatasize\n      0x00\n      dup1\n      returndatacopy\n      revert(0x00, returndatasize)\n    tag_81:\n      pop\n      pop\n      pop\n      pop\n      mload(0x40)\n      returndatasize\n      not(0x1f)\n      0x1f\n      dup3\n      add\n      and\n      dup3\n      add\n      dup1\n      0x40\n      mstore\n      pop\n      dup2\n      add\n      swap1\n      tag_82\n      swap2\n      swap1\n      tag_67\n      jump\t// in\n    tag_82:\n      pop\n        /* \"CharityDonation.sol\":3624:3634  Claim(_id) */\n      0x7bb2b3c10797baccb6f8c4791f1edd6ca2f0d028ee0eda64b01a9a57e3a653f7\n        /* \"CharityDonation.sol\":3630:3633  _id */\n      dup3\n        /* \"CharityDonation.sol\":3624:3634  Claim(_id) */\n      mload(0x40)\n      tag_83\n      swap2\n      swap1\n      tag_17\n      jump\t// in\n    tag_83:\n      mload(0x40)\n      dup1\n      swap2\n      sub\n      swap1\n      log1\n        /* \"CharityDonation.sol\":3232:3641  {... */\n      pop\n        /* \"CharityDonation.sol\":3198:3641  function claim(uint _id) external {... */\n      pop\n      jump\t// out\n        /* \"CharityDonation.sol\":1928:2242  function cancel(uint _id) external {... */\n    tag_37:\n        /* \"CharityDonation.sol\":1973:1997  Campaign memory campaign */\n      0x00\n        /* \"CharityDonation.sol\":2000:2009  campaigns */\n      0x01\n        /* \"CharityDonation.sol\":2000:2014  campaigns[_id] */\n      0x00\n        /* \"CharityDonation.sol\":2010:2013  _id */\n      dup4\n        /* \"CharityDonation.sol\":2000:2014  campaigns[_id] */\n      dup2\n      mstore\n      0x20\n      add\n      swap1\n      dup2\n      mstore\n      0x20\n      add\n      0x00\n      keccak256\n        /* \"CharityDonation.sol\":1973:2014  Campaign memory campaign = campaigns[_id] */\n      mload(0x40)\n      dup1\n      0xc0\n      add\n      0x40\n      mstore\n      swap1\n      dup2\n      0x00\n      dup3\n      add\n      0x00\n      swap1\n      sload\n      swap1\n      0x0100\n      exp\n      swap1\n      div\n      0xffffffffffffffffffffffffffffffffffffffff\n      and\n      0xffffffffffffffffffffffffffffffffffffffff\n      and\n      0xffffffffffffffffffffffffffffffffffffffff\n      and\n      dup2\n      mstore\n      0x20\n      add\n      0x01\n      dup3\n      add\n      sload\n      dup2\n      mstore\n      0x20\n      add\n      0x02\n      dup3\n      add\n      sload\n      dup2\n      mstore\n      0x20\n      add\n      0x03\n      dup3\n      add\n      0x00\n      swap1\n      sload\n      swap1\n      0x0100\n      exp\n      swap1\n      div\n      0xffffffff\n      and\n      0xffffffff\n      and\n      0xffffffff\n      and\n      dup2\n      mstore\n      0x20\n      add\n      0x03\n      dup3\n      add\n      0x04\n      swap1\n      sload\n      swap1\n      0x0100\n      exp\n      swap1\n      div\n      0xffffffff\n      and\n      0xffffffff\n      and\n      0xffffffff\n      and\n      dup2\n      mstore\n      0x20\n      add\n      0x03\n      dup3\n      add\n      0x08\n      swap1\n      sload\n      swap1\n      0x0100\n      exp\n      swap1\n      div\n      0xff\n      and\n      iszero\n      iszero\n      iszero\n      iszero\n      dup2\n      mstore\n      pop\n      pop\n      swap1\n      pop\n        /* \"CharityDonation.sol\":2052:2062  msg.sender */\n      caller\n        /* \"CharityDonation.sol\":2032:2062  campaign.creator == msg.sender */\n      0xffffffffffffffffffffffffffffffffffffffff\n      and\n        /* \"CharityDonation.sol\":2032:2040  campaign */\n      dup2\n        /* \"CharityDonation.sol\":2032:2048  campaign.creator */\n      0x00\n      add\n      mload\n        /* \"CharityDonation.sol\":2032:2062  campaign.creator == msg.sender */\n      0xffffffffffffffffffffffffffffffffffffffff\n      and\n      eq\n        /* \"CharityDonation.sol\":2024:2093  require(campaign.creator == msg.sender, \"Sender is not the creator!\") */\n      tag_85\n      jumpi\n      mload(0x40)\n      0x08c379a000000000000000000000000000000000000000000000000000000000\n      dup2\n      mstore\n      0x04\n      add\n      tag_86\n      swap1\n      tag_73\n      jump\t// in\n    tag_86:\n      mload(0x40)\n      dup1\n      swap2\n      sub\n      swap1\n      revert\n    tag_85:\n        /* \"CharityDonation.sol\":2129:2137  campaign */\n      dup1\n        /* \"CharityDonation.sol\":2129:2147  campaign.startDate */\n      0x60\n      add\n      mload\n        /* \"CharityDonation.sol\":2111:2147  block.timestamp < campaign.startDate */\n      0xffffffff\n      and\n        /* \"CharityDonation.sol\":2111:2126  block.timestamp */\n      timestamp\n        /* \"CharityDonation.sol\":2111:2147  block.timestamp < campaign.startDate */\n      lt\n        /* \"CharityDonation.sol\":2103:2177  require(block.timestamp < campaign.startDate, \"Campaign already started!\") */\n      tag_87\n      jumpi\n      mload(0x40)\n      0x08c379a000000000000000000000000000000000000000000000000000000000\n      dup2\n      mstore\n      0x04\n      add\n      tag_88\n      swap1\n      tag_89\n      jump\t// in\n    tag_88:\n      mload(0x40)\n      dup1\n      swap2\n      sub\n      swap1\n      revert\n    tag_87:\n        /* \"CharityDonation.sol\":2195:2204  campaigns */\n      0x01\n        /* \"CharityDonation.sol\":2195:2209  campaigns[_id] */\n      0x00\n        /* \"CharityDonation.sol\":2205:2208  _id */\n      dup4\n        /* \"CharityDonation.sol\":2195:2209  campaigns[_id] */\n      dup2\n      mstore\n      0x20\n      add\n      swap1\n      dup2\n      mstore\n      0x20\n      add\n      0x00\n      keccak256\n      0x00\n        /* \"CharityDonation.sol\":2188:2209  delete campaigns[_id] */\n      dup1\n      dup3\n      add\n      exp(0x0100, 0x00)\n      dup2\n      sload\n      swap1\n      0xffffffffffffffffffffffffffffffffffffffff\n      mul\n      not\n      and\n      swap1\n      sstore\n      0x01\n      dup3\n      add\n      0x00\n      swap1\n      sstore\n      0x02\n      dup3\n      add\n      0x00\n      swap1\n      sstore\n      0x03\n      dup3\n      add\n      exp(0x0100, 0x00)\n      dup2\n      sload\n      swap1\n      0xffffffff\n      mul\n      not\n      and\n      swap1\n      sstore\n      0x03\n      dup3\n      add\n      exp(0x0100, 0x04)\n      dup2\n      sload\n      swap1\n      0xffffffff\n      mul\n      not\n      and\n      swap1\n      sstore\n      0x03\n      dup3\n      add\n      exp(0x0100, 0x08)\n      dup2\n      sload\n      swap1\n      0xff\n      mul\n      not\n      and\n      swap1\n      sstore\n      pop\n      pop\n        /* \"CharityDonation.sol\":2224:2235  Cancel(_id) */\n      0x8bf30e7ff26833413be5f69e1d373744864d600b664204b4a2f9844a8eedb9ed\n        /* \"CharityDonation.sol\":2231:2234  _id */\n      dup3\n        /* \"CharityDonation.sol\":2224:2235  Cancel(_id) */\n      mload(0x40)\n      tag_90\n      swap2\n      swap1\n      tag_17\n      jump\t// in\n    tag_90:\n      mload(0x40)\n      dup1\n      swap2\n      sub\n      swap1\n      log1\n        /* \"CharityDonation.sol\":1963:2242  {... */\n      pop\n        /* \"CharityDonation.sol\":1928:2242  function cancel(uint _id) external {... */\n      pop\n      jump\t// out\n        /* \"CharityDonation.sol\":1252:1922  function begin(uint _target, uint32 _startDate, uint32 _endDate) external {... */\n    tag_41:\n        /* \"CharityDonation.sol\":1358:1373  block.timestamp */\n      timestamp\n        /* \"CharityDonation.sol\":1344:1354  _startDate */\n      dup3\n        /* \"CharityDonation.sol\":1344:1373  _startDate >= block.timestamp */\n      0xffffffff\n      and\n      lt\n      iszero\n        /* \"CharityDonation.sol\":1336:1415  require(_startDate >= block.timestamp, \"Start date is less than current date!\") */\n      tag_92\n      jumpi\n      mload(0x40)\n      0x08c379a000000000000000000000000000000000000000000000000000000000\n      dup2\n      mstore\n      0x04\n      add\n      tag_93\n      swap1\n      tag_94\n      jump\t// in\n    tag_93:\n      mload(0x40)\n      dup1\n      swap2\n      sub\n      swap1\n      revert\n    tag_92:\n        /* \"CharityDonation.sol\":1445:1455  _startDate */\n      dup2\n        /* \"CharityDonation.sol\":1433:1455  _endDate >= _startDate */\n      0xffffffff\n      and\n        /* \"CharityDonation.sol\":1433:1441  _endDate */\n      dup2\n        /* \"CharityDonation.sol\":1433:1455  _endDate >= _startDate */\n      0xffffffff\n      and\n      lt\n      iszero\n        /* \"CharityDonation.sol\":1425:1493  require(_endDate >= _startDate, \"End date is less than start date!\") */\n      tag_95\n      jumpi\n      mload(0x40)\n      0x08c379a000000000000000000000000000000000000000000000000000000000\n      dup2\n      mstore\n      0x04\n      add\n      tag_96\n      swap1\n      tag_97\n      jump\t// in\n    tag_96:\n      mload(0x40)\n      dup1\n      swap2\n      sub\n      swap1\n      revert\n    tag_95:\n        /* \"CharityDonation.sol\":1541:1548  90 days */\n      0x76a700\n        /* \"CharityDonation.sol\":1523:1538  block.timestamp */\n      timestamp\n        /* \"CharityDonation.sol\":1523:1548  block.timestamp + 90 days */\n      tag_98\n      swap2\n      swap1\n      tag_99\n      jump\t// in\n    tag_98:\n        /* \"CharityDonation.sol\":1511:1519  _endDate */\n      dup2\n        /* \"CharityDonation.sol\":1511:1548  _endDate <= block.timestamp + 90 days */\n      0xffffffff\n      and\n      gt\n      iszero\n        /* \"CharityDonation.sol\":1503:1595  require(_endDate <= block.timestamp + 90 days, \"End date is greater than maximum duration!\") */\n      tag_100\n      jumpi\n      mload(0x40)\n      0x08c379a000000000000000000000000000000000000000000000000000000000\n      dup2\n      mstore\n      0x04\n      add\n      tag_101\n      swap1\n      tag_102\n      jump\t// in\n    tag_101:\n      mload(0x40)\n      dup1\n      swap2\n      sub\n      swap1\n      revert\n    tag_100:\n        /* \"CharityDonation.sol\":1615:1616  1 */\n      0x01\n        /* \"CharityDonation.sol\":1606:1611  count */\n      0x00\n      dup1\n        /* \"CharityDonation.sol\":1606:1616  count += 1 */\n      dup3\n      dup3\n      sload\n      tag_103\n      swap2\n      swap1\n      tag_99\n      jump\t// in\n    tag_103:\n      swap3\n      pop\n      pop\n      dup2\n      swap1\n      sstore\n      pop\n        /* \"CharityDonation.sol\":1645:1844  Campaign({... */\n      mload(0x40)\n      dup1\n      0xc0\n      add\n      0x40\n      mstore\n      dup1\n        /* \"CharityDonation.sol\":1677:1687  msg.sender */\n      caller\n        /* \"CharityDonation.sol\":1645:1844  Campaign({... */\n      0xffffffffffffffffffffffffffffffffffffffff\n      and\n      dup2\n      mstore\n      0x20\n      add\n        /* \"CharityDonation.sol\":1709:1716  _target */\n      dup5\n        /* \"CharityDonation.sol\":1645:1844  Campaign({... */\n      dup2\n      mstore\n      0x20\n      add\n        /* \"CharityDonation.sol\":1738:1739  0 */\n      0x00\n        /* \"CharityDonation.sol\":1645:1844  Campaign({... */\n      dup2\n      mstore\n      0x20\n      add\n        /* \"CharityDonation.sol\":1764:1774  _startDate */\n      dup4\n        /* \"CharityDonation.sol\":1645:1844  Campaign({... */\n      0xffffffff\n      and\n      dup2\n      mstore\n      0x20\n      add\n        /* \"CharityDonation.sol\":1797:1805  _endDate */\n      dup3\n        /* \"CharityDonation.sol\":1645:1844  Campaign({... */\n      0xffffffff\n      and\n      dup2\n      mstore\n      0x20\n      add\n        /* \"CharityDonation.sol\":1828:1833  false */\n      0x00\n        /* \"CharityDonation.sol\":1645:1844  Campaign({... */\n      iszero\n      iszero\n      dup2\n      mstore\n      pop\n        /* \"CharityDonation.sol\":1626:1635  campaigns */\n      0x01\n        /* \"CharityDonation.sol\":1626:1642  campaigns[count] */\n      0x00\n        /* \"CharityDonation.sol\":1636:1641  count */\n      dup1\n      sload\n        /* \"CharityDonation.sol\":1626:1642  campaigns[count] */\n      dup2\n      mstore\n      0x20\n      add\n      swap1\n      dup2\n      mstore\n      0x20\n      add\n      0x00\n      keccak256\n        /* \"CharityDonation.sol\":1626:1844  campaigns[count] = Campaign({... */\n      0x00\n      dup3\n      add\n      mload\n      dup2\n      0x00\n      add\n      exp(0x0100, 0x00)\n      dup2\n      sload\n      dup2\n      0xffffffffffffffffffffffffffffffffffffffff\n      mul\n      not\n      and\n      swap1\n      dup4\n      0xffffffffffffffffffffffffffffffffffffffff\n      and\n      mul\n      or\n      swap1\n      sstore\n      pop\n      0x20\n      dup3\n      add\n      mload\n      dup2\n      0x01\n      add\n      sstore\n      0x40\n      dup3\n      add\n      mload\n      dup2\n      0x02\n      add\n      sstore\n      0x60\n      dup3\n      add\n      mload\n      dup2\n      0x03\n      add\n      exp(0x0100, 0x00)\n      dup2\n      sload\n      dup2\n      0xffffffff\n      mul\n      not\n      and\n      swap1\n      dup4\n      0xffffffff\n      and\n      mul\n      or\n      swap1\n      sstore\n      pop\n      0x80\n      dup3\n      add\n      mload\n      dup2\n      0x03\n      add\n      exp(0x0100, 0x04)\n      dup2\n      sload\n      dup2\n      0xffffffff\n      mul\n      not\n      and\n      swap1\n      dup4\n      0xffffffff\n      and\n      mul\n      or\n      swap1\n      sstore\n      pop\n      0xa0\n      dup3\n      add\n      mload\n      dup2\n      0x03\n      add\n      exp(0x0100, 0x08)\n      dup2\n      sload\n      dup2\n      0xff\n      mul\n      not\n      and\n      swap1\n      dup4\n      iszero\n      iszero\n      mul\n      or\n      swap1\n      sstore\n      pop\n      swap1\n      pop\n      pop\n        /* \"CharityDonation.sol\":1873:1883  msg.sender */\n      caller\n        /* \"CharityDonation.sol\":1860:1915  Begin(count, msg.sender, _target, _startDate, _endDate) */\n      0xffffffffffffffffffffffffffffffffffffffff\n      and\n      0x6a7ebc88243075c8056f425cdb93a8a12757317309fa24f688cade08ff4b4caa\n        /* \"CharityDonation.sol\":1866:1871  count */\n      sload(0x00)\n        /* \"CharityDonation.sol\":1885:1892  _target */\n      dup6\n        /* \"CharityDonation.sol\":1894:1904  _startDate */\n      dup6\n        /* \"CharityDonation.sol\":1906:1914  _endDate */\n      dup6\n        /* \"CharityDonation.sol\":1860:1915  Begin(count, msg.sender, _target, _startDate, _endDate) */\n      mload(0x40)\n      tag_104\n      swap5\n      swap4\n      swap3\n      swap2\n      swap1\n      tag_105\n      jump\t// in\n    tag_104:\n      mload(0x40)\n      dup1\n      swap2\n      sub\n      swap1\n      log2\n        /* \"CharityDonation.sol\":1252:1922  function begin(uint _target, uint32 _startDate, uint32 _endDate) external {... */\n      pop\n      pop\n      pop\n      jump\t// out\n        /* \"CharityDonation.sol\":2729:3192  function refuse(uint _id, uint _amount) external {... */\n    tag_45:\n        /* \"CharityDonation.sol\":2788:2813  Campaign storage campaign */\n      0x00\n        /* \"CharityDonation.sol\":2816:2825  campaigns */\n      0x01\n        /* \"CharityDonation.sol\":2816:2830  campaigns[_id] */\n      0x00\n        /* \"CharityDonation.sol\":2826:2829  _id */\n      dup5\n        /* \"CharityDonation.sol\":2816:2830  campaigns[_id] */\n      dup2\n      mstore\n      0x20\n      add\n      swap1\n      dup2\n      mstore\n      0x20\n      add\n      0x00\n      keccak256\n        /* \"CharityDonation.sol\":2788:2830  Campaign storage campaign = campaigns[_id] */\n      swap1\n      pop\n        /* \"CharityDonation.sol\":2867:2875  campaign */\n      dup1\n        /* \"CharityDonation.sol\":2867:2883  campaign.endDate */\n      0x03\n      add\n      0x04\n      swap1\n      sload\n      swap1\n      0x0100\n      exp\n      swap1\n      div\n      0xffffffff\n      and\n        /* \"CharityDonation.sol\":2848:2883  block.timestamp <= campaign.endDate */\n      0xffffffff\n      and\n        /* \"CharityDonation.sol\":2848:2863  block.timestamp */\n      timestamp\n        /* \"CharityDonation.sol\":2848:2883  block.timestamp <= campaign.endDate */\n      gt\n      iszero\n        /* \"CharityDonation.sol\":2840:2911  require(block.timestamp <= campaign.endDate, \"Campaign ended already!\") */\n      tag_107\n      jumpi\n      mload(0x40)\n      0x08c379a000000000000000000000000000000000000000000000000000000000\n      dup2\n      mstore\n      0x04\n      add\n      tag_108\n      swap1\n      tag_109\n      jump\t// in\n    tag_108:\n      mload(0x40)\n      dup1\n      swap2\n      sub\n      swap1\n      revert\n    tag_107:\n        /* \"CharityDonation.sol\":2962:2969  _amount */\n      dup2\n        /* \"CharityDonation.sol\":2929:2941  offerdAmount */\n      0x02\n        /* \"CharityDonation.sol\":2929:2946  offerdAmount[_id] */\n      0x00\n        /* \"CharityDonation.sol\":2942:2945  _id */\n      dup6\n        /* \"CharityDonation.sol\":2929:2946  offerdAmount[_id] */\n      dup2\n      mstore\n      0x20\n      add\n      swap1\n      dup2\n      mstore\n      0x20\n      add\n      0x00\n      keccak256\n        /* \"CharityDonation.sol\":2929:2958  offerdAmount[_id][msg.sender] */\n      0x00\n        /* \"CharityDonation.sol\":2947:2957  msg.sender */\n      caller\n        /* \"CharityDonation.sol\":2929:2958  offerdAmount[_id][msg.sender] */\n      0xffffffffffffffffffffffffffffffffffffffff\n      and\n      0xffffffffffffffffffffffffffffffffffffffff\n      and\n      dup2\n      mstore\n      0x20\n      add\n      swap1\n      dup2\n      mstore\n      0x20\n      add\n      0x00\n      keccak256\n      sload\n        /* \"CharityDonation.sol\":2929:2969  offerdAmount[_id][msg.sender] >= _amount */\n      lt\n      iszero\n        /* \"CharityDonation.sol\":2921:3005  require(offerdAmount[_id][msg.sender] >= _amount, \"Amount is greater than offered!\") */\n      tag_110\n      jumpi\n      mload(0x40)\n      0x08c379a000000000000000000000000000000000000000000000000000000000\n      dup2\n      mstore\n      0x04\n      add\n      tag_111\n      swap1\n      tag_112\n      jump\t// in\n    tag_111:\n      mload(0x40)\n      dup1\n      swap2\n      sub\n      swap1\n      revert\n    tag_110:\n        /* \"CharityDonation.sol\":3035:3042  _amount */\n      dup2\n        /* \"CharityDonation.sol\":3016:3024  campaign */\n      dup2\n        /* \"CharityDonation.sol\":3016:3031  campaign.offerd */\n      0x02\n      add\n      0x00\n        /* \"CharityDonation.sol\":3016:3042  campaign.offerd -= _amount */\n      dup3\n      dup3\n      sload\n      tag_113\n      swap2\n      swap1\n      tag_114\n      jump\t// in\n    tag_113:\n      swap3\n      pop\n      pop\n      dup2\n      swap1\n      sstore\n      pop\n        /* \"CharityDonation.sol\":3085:3092  _amount */\n      dup2\n        /* \"CharityDonation.sol\":3052:3064  offerdAmount */\n      0x02\n        /* \"CharityDonation.sol\":3052:3069  offerdAmount[_id] */\n      0x00\n        /* \"CharityDonation.sol\":3065:3068  _id */\n      dup6\n        /* \"CharityDonation.sol\":3052:3069  offerdAmount[_id] */\n      dup2\n      mstore\n      0x20\n      add\n      swap1\n      dup2\n      mstore\n      0x20\n      add\n      0x00\n      keccak256\n        /* \"CharityDonation.sol\":3052:3081  offerdAmount[_id][msg.sender] */\n      0x00\n        /* \"CharityDonation.sol\":3070:3080  msg.sender */\n      caller\n        /* \"CharityDonation.sol\":3052:3081  offerdAmount[_id][msg.sender] */\n      0xffffffffffffffffffffffffffffffffffffffff\n      and\n      0xffffffffffffffffffffffffffffffffffffffff\n      and\n      dup2\n      mstore\n      0x20\n      add\n      swap1\n      dup2\n      mstore\n      0x20\n      add\n      0x00\n      keccak256\n      0x00\n        /* \"CharityDonation.sol\":3052:3092  offerdAmount[_id][msg.sender] -= _amount */\n      dup3\n      dup3\n      sload\n      tag_115\n      swap2\n      swap1\n      tag_114\n      jump\t// in\n    tag_115:\n      swap3\n      pop\n      pop\n      dup2\n      swap1\n      sstore\n      pop\n        /* \"CharityDonation.sol\":3102:3107  token */\n      immutable(\"0xd9670a00d025e59e1bd58d53874bea4ab34fea782716e2c168e89a3c8452d3bb\")\n        /* \"CharityDonation.sol\":3102:3116  token.transfer */\n      0xffffffffffffffffffffffffffffffffffffffff\n      and\n      0xa9059cbb\n        /* \"CharityDonation.sol\":3117:3127  msg.sender */\n      caller\n        /* \"CharityDonation.sol\":3129:3136  _amount */\n      dup5\n        /* \"CharityDonation.sol\":3102:3137  token.transfer(msg.sender, _amount) */\n      mload(0x40)\n      dup4\n      0xffffffff\n      and\n      0xe0\n      shl\n      dup2\n      mstore\n      0x04\n      add\n      tag_116\n      swap3\n      swap2\n      swap1\n      tag_63\n      jump\t// in\n    tag_116:\n      0x20\n      mload(0x40)\n      dup1\n      dup4\n      sub\n      dup2\n      0x00\n      dup8\n      gas\n      call\n      iszero\n      dup1\n      iszero\n      tag_118\n      jumpi\n      returndatasize\n      0x00\n      dup1\n      returndatacopy\n      revert(0x00, returndatasize)\n    tag_118:\n      pop\n      pop\n      pop\n      pop\n      mload(0x40)\n      returndatasize\n      not(0x1f)\n      0x1f\n      dup3\n      add\n      and\n      dup3\n      add\n      dup1\n      0x40\n      mstore\n      pop\n      dup2\n      add\n      swap1\n      tag_119\n      swap2\n      swap1\n      tag_67\n      jump\t// in\n    tag_119:\n      pop\n        /* \"CharityDonation.sol\":3165:3175  msg.sender */\n      caller\n        /* \"CharityDonation.sol\":3153:3185  Refuse(_id, msg.sender, _amount) */\n      0xffffffffffffffffffffffffffffffffffffffff\n      and\n        /* \"CharityDonation.sol\":3160:3163  _id */\n      dup4\n        /* \"CharityDonation.sol\":3153:3185  Refuse(_id, msg.sender, _amount) */\n      0xc8de90742edca0e8667d211f018ed3f48f3bdb85b82942bd5f74683a4818cc34\n        /* \"CharityDonation.sol\":3177:3184  _amount */\n      dup5\n        /* \"CharityDonation.sol\":3153:3185  Refuse(_id, msg.sender, _amount) */\n      mload(0x40)\n      tag_120\n      swap2\n      swap1\n      tag_17\n      jump\t// in\n    tag_120:\n      mload(0x40)\n      dup1\n      swap2\n      sub\n      swap1\n      log3\n        /* \"CharityDonation.sol\":2778:3192  {... */\n      pop\n        /* \"CharityDonation.sol\":2729:3192  function refuse(uint _id, uint _amount) external {... */\n      pop\n      pop\n      jump\t// out\n        /* \"CharityDonation.sol\":2248:2723  function offer(uint _id, uint _amount) external {... */\n    tag_48:\n        /* \"CharityDonation.sol\":2306:2331  Campaign storage campaign */\n      0x00\n        /* \"CharityDonation.sol\":2334:2343  campaigns */\n      0x01\n        /* \"CharityDonation.sol\":2334:2348  campaigns[_id] */\n      0x00\n        /* \"CharityDonation.sol\":2344:2347  _id */\n      dup5\n        /* \"CharityDonation.sol\":2334:2348  campaigns[_id] */\n      dup2\n      mstore\n      0x20\n      add\n      swap1\n      dup2\n      mstore\n      0x20\n      add\n      0x00\n      keccak256\n        /* \"CharityDonation.sol\":2306:2348  Campaign storage campaign = campaigns[_id] */\n      swap1\n      pop\n        /* \"CharityDonation.sol\":2385:2393  campaign */\n      dup1\n        /* \"CharityDonation.sol\":2385:2403  campaign.startDate */\n      0x03\n      add\n      0x00\n      swap1\n      sload\n      swap1\n      0x0100\n      exp\n      swap1\n      div\n      0xffffffff\n      and\n        /* \"CharityDonation.sol\":2366:2403  block.timestamp >= campaign.startDate */\n      0xffffffff\n      and\n        /* \"CharityDonation.sol\":2366:2381  block.timestamp */\n      timestamp\n        /* \"CharityDonation.sol\":2366:2403  block.timestamp >= campaign.startDate */\n      lt\n      iszero\n        /* \"CharityDonation.sol\":2358:2437  require(block.timestamp >= campaign.startDate, \"Campaign has not started yet!\") */\n      tag_122\n      jumpi\n      mload(0x40)\n      0x08c379a000000000000000000000000000000000000000000000000000000000\n      dup2\n      mstore\n      0x04\n      add\n      tag_123\n      swap1\n      tag_124\n      jump\t// in\n    tag_123:\n      mload(0x40)\n      dup1\n      swap2\n      sub\n      swap1\n      revert\n    tag_122:\n        /* \"CharityDonation.sol\":2474:2482  campaign */\n      dup1\n        /* \"CharityDonation.sol\":2474:2490  campaign.endDate */\n      0x03\n      add\n      0x04\n      swap1\n      sload\n      swap1\n      0x0100\n      exp\n      swap1\n      div\n      0xffffffff\n      and\n        /* \"CharityDonation.sol\":2455:2490  block.timestamp <= campaign.endDate */\n      0xffffffff\n      and\n        /* \"CharityDonation.sol\":2455:2470  block.timestamp */\n      timestamp\n        /* \"CharityDonation.sol\":2455:2490  block.timestamp <= campaign.endDate */\n      gt\n      iszero\n        /* \"CharityDonation.sol\":2447:2518  require(block.timestamp <= campaign.endDate, \"Campaign ended already!\") */\n      tag_125\n      jumpi\n      mload(0x40)\n      0x08c379a000000000000000000000000000000000000000000000000000000000\n      dup2\n      mstore\n      0x04\n      add\n      tag_126\n      swap1\n      tag_109\n      jump\t// in\n    tag_126:\n      mload(0x40)\n      dup1\n      swap2\n      sub\n      swap1\n      revert\n    tag_125:\n        /* \"CharityDonation.sol\":2548:2555  _amount */\n      dup2\n        /* \"CharityDonation.sol\":2529:2537  campaign */\n      dup2\n        /* \"CharityDonation.sol\":2529:2544  campaign.offerd */\n      0x02\n      add\n      0x00\n        /* \"CharityDonation.sol\":2529:2555  campaign.offerd += _amount */\n      dup3\n      dup3\n      sload\n      tag_127\n      swap2\n      swap1\n      tag_99\n      jump\t// in\n    tag_127:\n      swap3\n      pop\n      pop\n      dup2\n      swap1\n      sstore\n      pop\n        /* \"CharityDonation.sol\":2598:2605  _amount */\n      dup2\n        /* \"CharityDonation.sol\":2565:2577  offerdAmount */\n      0x02\n        /* \"CharityDonation.sol\":2565:2582  offerdAmount[_id] */\n      0x00\n        /* \"CharityDonation.sol\":2578:2581  _id */\n      dup6\n        /* \"CharityDonation.sol\":2565:2582  offerdAmount[_id] */\n      dup2\n      mstore\n      0x20\n      add\n      swap1\n      dup2\n      mstore\n      0x20\n      add\n      0x00\n      keccak256\n        /* \"CharityDonation.sol\":2565:2594  offerdAmount[_id][msg.sender] */\n      0x00\n        /* \"CharityDonation.sol\":2583:2593  msg.sender */\n      caller\n        /* \"CharityDonation.sol\":2565:2594  offerdAmount[_id][msg.sender] */\n      0xffffffffffffffffffffffffffffffffffffffff\n      and\n      0xffffffffffffffffffffffffffffffffffffffff\n      and\n      dup2\n      mstore\n      0x20\n      add\n      swap1\n      dup2\n      mstore\n      0x20\n      add\n      0x00\n      keccak256\n      0x00\n        /* \"CharityDonation.sol\":2565:2605  offerdAmount[_id][msg.sender] += _amount */\n      dup3\n      dup3\n      sload\n      tag_128\n      swap2\n      swap1\n      tag_99\n      jump\t// in\n    tag_128:\n      swap3\n      pop\n      pop\n      dup2\n      swap1\n      sstore\n      pop\n        /* \"CharityDonation.sol\":2615:2620  token */\n      immutable(\"0xd9670a00d025e59e1bd58d53874bea4ab34fea782716e2c168e89a3c8452d3bb\")\n        /* \"CharityDonation.sol\":2615:2633  token.transferFrom */\n      0xffffffffffffffffffffffffffffffffffffffff\n      and\n      0x23b872dd\n        /* \"CharityDonation.sol\":2634:2644  msg.sender */\n      caller\n        /* \"CharityDonation.sol\":2654:2658  this */\n      address\n        /* \"CharityDonation.sol\":2661:2668  _amount */\n      dup6\n        /* \"CharityDonation.sol\":2615:2669  token.transferFrom(msg.sender, address(this), _amount) */\n      mload(0x40)\n      dup5\n      0xffffffff\n      and\n      0xe0\n      shl\n      dup2\n      mstore\n      0x04\n      add\n      tag_129\n      swap4\n      swap3\n      swap2\n      swap1\n      tag_130\n      jump\t// in\n    tag_129:\n      0x20\n      mload(0x40)\n      dup1\n      dup4\n      sub\n      dup2\n      0x00\n      dup8\n      gas\n      call\n      iszero\n      dup1\n      iszero\n      tag_132\n      jumpi\n      returndatasize\n      0x00\n      dup1\n      returndatacopy\n      revert(0x00, returndatasize)\n    tag_132:\n      pop\n      pop\n      pop\n      pop\n      mload(0x40)\n      returndatasize\n      not(0x1f)\n      0x1f\n      dup3\n      add\n      and\n      dup3\n      add\n      dup1\n      0x40\n      mstore\n      pop\n      dup2\n      add\n      swap1\n      tag_133\n      swap2\n      swap1\n      tag_67\n      jump\t// in\n    tag_133:\n      pop\n        /* \"CharityDonation.sol\":2696:2706  msg.sender */\n      caller\n        /* \"CharityDonation.sol\":2685:2716  Offer(_id, msg.sender, _amount) */\n      0xffffffffffffffffffffffffffffffffffffffff\n      and\n        /* \"CharityDonation.sol\":2691:2694  _id */\n      dup4\n        /* \"CharityDonation.sol\":2685:2716  Offer(_id, msg.sender, _amount) */\n      0x2d57124cfa4e385afd5cc9d6f24874bdd21303ac9131d7cb674be2a5855c7002\n        /* \"CharityDonation.sol\":2708:2715  _amount */\n      dup5\n        /* \"CharityDonation.sol\":2685:2716  Offer(_id, msg.sender, _amount) */\n      mload(0x40)\n      tag_134\n      swap2\n      swap1\n      tag_17\n      jump\t// in\n    tag_134:\n      mload(0x40)\n      dup1\n      swap2\n      sub\n      swap1\n      log3\n        /* \"CharityDonation.sol\":2296:2723  {... */\n      pop\n        /* \"CharityDonation.sol\":2248:2723  function offer(uint _id, uint _amount) external {... */\n      pop\n      pop\n      jump\t// out\n        /* \"CharityDonation.sol\":797:826  IERC20 public immutable token */\n    tag_50:\n      immutable(\"0xd9670a00d025e59e1bd58d53874bea4ab34fea782716e2c168e89a3c8452d3bb\")\n      dup2\n      jump\t// out\n        /* \"#utility.yul\":7:84   */\n    tag_135:\n        /* \"#utility.yul\":44:51   */\n      0x00\n        /* \"#utility.yul\":73:78   */\n      dup2\n        /* \"#utility.yul\":62:78   */\n      swap1\n      pop\n        /* \"#utility.yul\":7:84   */\n      swap2\n      swap1\n      pop\n      jump\t// out\n        /* \"#utility.yul\":90:208   */\n    tag_136:\n        /* \"#utility.yul\":177:201   */\n      tag_187\n        /* \"#utility.yul\":195:200   */\n      dup2\n        /* \"#utility.yul\":177:201   */\n      tag_135\n      jump\t// in\n    tag_187:\n        /* \"#utility.yul\":172:175   */\n      dup3\n        /* \"#utility.yul\":165:202   */\n      mstore\n        /* \"#utility.yul\":90:208   */\n      pop\n      pop\n      jump\t// out\n        /* \"#utility.yul\":214:436   */\n    tag_17:\n        /* \"#utility.yul\":307:311   */\n      0x00\n        /* \"#utility.yul\":345:347   */\n      0x20\n        /* \"#utility.yul\":334:343   */\n      dup3\n        /* \"#utility.yul\":330:348   */\n      add\n        /* \"#utility.yul\":322:348   */\n      swap1\n      pop\n        /* \"#utility.yul\":358:429   */\n      tag_189\n        /* \"#utility.yul\":426:427   */\n      0x00\n        /* \"#utility.yul\":415:424   */\n      dup4\n        /* \"#utility.yul\":411:428   */\n      add\n        /* \"#utility.yul\":402:408   */\n      dup5\n        /* \"#utility.yul\":358:429   */\n      tag_136\n      jump\t// in\n    tag_189:\n        /* \"#utility.yul\":214:436   */\n      swap3\n      swap2\n      pop\n      pop\n      jump\t// out\n        /* \"#utility.yul\":523:640   */\n    tag_138:\n        /* \"#utility.yul\":632:633   */\n      0x00\n        /* \"#utility.yul\":629:630   */\n      dup1\n        /* \"#utility.yul\":622:634   */\n      revert\n        /* \"#utility.yul\":769:891   */\n    tag_140:\n        /* \"#utility.yul\":842:866   */\n      tag_194\n        /* \"#utility.yul\":860:865   */\n      dup2\n        /* \"#utility.yul\":842:866   */\n      tag_135\n      jump\t// in\n    tag_194:\n        /* \"#utility.yul\":835:840   */\n      dup2\n        /* \"#utility.yul\":832:867   */\n      eq\n        /* \"#utility.yul\":822:885   */\n      tag_195\n      jumpi\n        /* \"#utility.yul\":881:882   */\n      0x00\n        /* \"#utility.yul\":878:879   */\n      dup1\n        /* \"#utility.yul\":871:883   */\n      revert\n        /* \"#utility.yul\":822:885   */\n    tag_195:\n        /* \"#utility.yul\":769:891   */\n      pop\n      jump\t// out\n        /* \"#utility.yul\":897:1036   */\n    tag_141:\n        /* \"#utility.yul\":943:948   */\n      0x00\n        /* \"#utility.yul\":981:987   */\n      dup2\n        /* \"#utility.yul\":968:988   */\n      calldataload\n        /* \"#utility.yul\":959:988   */\n      swap1\n      pop\n        /* \"#utility.yul\":997:1030   */\n      tag_197\n        /* \"#utility.yul\":1024:1029   */\n      dup2\n        /* \"#utility.yul\":997:1030   */\n      tag_140\n      jump\t// in\n    tag_197:\n        /* \"#utility.yul\":897:1036   */\n      swap3\n      swap2\n      pop\n      pop\n      jump\t// out\n        /* \"#utility.yul\":1042:1371   */\n    tag_20:\n        /* \"#utility.yul\":1101:1107   */\n      0x00\n        /* \"#utility.yul\":1150:1152   */\n      0x20\n        /* \"#utility.yul\":1138:1147   */\n      dup3\n        /* \"#utility.yul\":1129:1136   */\n      dup5\n        /* \"#utility.yul\":1125:1148   */\n      sub\n        /* \"#utility.yul\":1121:1153   */\n      slt\n        /* \"#utility.yul\":1118:1237   */\n      iszero\n      tag_199\n      jumpi\n        /* \"#utility.yul\":1156:1235   */\n      tag_200\n      tag_138\n      jump\t// in\n    tag_200:\n        /* \"#utility.yul\":1118:1237   */\n    tag_199:\n        /* \"#utility.yul\":1276:1277   */\n      0x00\n        /* \"#utility.yul\":1301:1354   */\n      tag_201\n        /* \"#utility.yul\":1346:1353   */\n      dup5\n        /* \"#utility.yul\":1337:1343   */\n      dup3\n        /* \"#utility.yul\":1326:1335   */\n      dup6\n        /* \"#utility.yul\":1322:1344   */\n      add\n        /* \"#utility.yul\":1301:1354   */\n      tag_141\n      jump\t// in\n    tag_201:\n        /* \"#utility.yul\":1291:1354   */\n      swap2\n      pop\n        /* \"#utility.yul\":1247:1364   */\n      pop\n        /* \"#utility.yul\":1042:1371   */\n      swap3\n      swap2\n      pop\n      pop\n      jump\t// out\n        /* \"#utility.yul\":1377:1503   */\n    tag_142:\n        /* \"#utility.yul\":1414:1421   */\n      0x00\n        /* \"#utility.yul\":1454:1496   */\n      0xffffffffffffffffffffffffffffffffffffffff\n        /* \"#utility.yul\":1447:1452   */\n      dup3\n        /* \"#utility.yul\":1443:1497   */\n      and\n        /* \"#utility.yul\":1432:1497   */\n      swap1\n      pop\n        /* \"#utility.yul\":1377:1503   */\n      swap2\n      swap1\n      pop\n      jump\t// out\n        /* \"#utility.yul\":1509:1605   */\n    tag_143:\n        /* \"#utility.yul\":1546:1553   */\n      0x00\n        /* \"#utility.yul\":1575:1599   */\n      tag_204\n        /* \"#utility.yul\":1593:1598   */\n      dup3\n        /* \"#utility.yul\":1575:1599   */\n      tag_142\n      jump\t// in\n    tag_204:\n        /* \"#utility.yul\":1564:1599   */\n      swap1\n      pop\n        /* \"#utility.yul\":1509:1605   */\n      swap2\n      swap1\n      pop\n      jump\t// out\n        /* \"#utility.yul\":1611:1729   */\n    tag_144:\n        /* \"#utility.yul\":1698:1722   */\n      tag_206\n        /* \"#utility.yul\":1716:1721   */\n      dup2\n        /* \"#utility.yul\":1698:1722   */\n      tag_143\n      jump\t// in\n    tag_206:\n        /* \"#utility.yul\":1693:1696   */\n      dup3\n        /* \"#utility.yul\":1686:1723   */\n      mstore\n        /* \"#utility.yul\":1611:1729   */\n      pop\n      pop\n      jump\t// out\n        /* \"#utility.yul\":1735:1828   */\n    tag_145:\n        /* \"#utility.yul\":1771:1778   */\n      0x00\n        /* \"#utility.yul\":1811:1821   */\n      0xffffffff\n        /* \"#utility.yul\":1804:1809   */\n      dup3\n        /* \"#utility.yul\":1800:1822   */\n      and\n        /* \"#utility.yul\":1789:1822   */\n      swap1\n      pop\n        /* \"#utility.yul\":1735:1828   */\n      swap2\n      swap1\n      pop\n      jump\t// out\n        /* \"#utility.yul\":1834:1949   */\n    tag_146:\n        /* \"#utility.yul\":1919:1942   */\n      tag_209\n        /* \"#utility.yul\":1936:1941   */\n      dup2\n        /* \"#utility.yul\":1919:1942   */\n      tag_145\n      jump\t// in\n    tag_209:\n        /* \"#utility.yul\":1914:1917   */\n      dup3\n        /* \"#utility.yul\":1907:1943   */\n      mstore\n        /* \"#utility.yul\":1834:1949   */\n      pop\n      pop\n      jump\t// out\n        /* \"#utility.yul\":1955:2045   */\n    tag_147:\n        /* \"#utility.yul\":1989:1996   */\n      0x00\n        /* \"#utility.yul\":2032:2037   */\n      dup2\n        /* \"#utility.yul\":2025:2038   */\n      iszero\n        /* \"#utility.yul\":2018:2039   */\n      iszero\n        /* \"#utility.yul\":2007:2039   */\n      swap1\n      pop\n        /* \"#utility.yul\":1955:2045   */\n      swap2\n      swap1\n      pop\n      jump\t// out\n        /* \"#utility.yul\":2051:2160   */\n    tag_148:\n        /* \"#utility.yul\":2132:2153   */\n      tag_212\n        /* \"#utility.yul\":2147:2152   */\n      dup2\n        /* \"#utility.yul\":2132:2153   */\n      tag_147\n      jump\t// in\n    tag_212:\n        /* \"#utility.yul\":2127:2130   */\n      dup3\n        /* \"#utility.yul\":2120:2154   */\n      mstore\n        /* \"#utility.yul\":2051:2160   */\n      pop\n      pop\n      jump\t// out\n        /* \"#utility.yul\":2166:2921   */\n    tag_23:\n        /* \"#utility.yul\":2389:2393   */\n      0x00\n        /* \"#utility.yul\":2427:2430   */\n      0xc0\n        /* \"#utility.yul\":2416:2425   */\n      dup3\n        /* \"#utility.yul\":2412:2431   */\n      add\n        /* \"#utility.yul\":2404:2431   */\n      swap1\n      pop\n        /* \"#utility.yul\":2441:2512   */\n      tag_214\n        /* \"#utility.yul\":2509:2510   */\n      0x00\n        /* \"#utility.yul\":2498:2507   */\n      dup4\n        /* \"#utility.yul\":2494:2511   */\n      add\n        /* \"#utility.yul\":2485:2491   */\n      dup10\n        /* \"#utility.yul\":2441:2512   */\n      tag_144\n      jump\t// in\n    tag_214:\n        /* \"#utility.yul\":2522:2594   */\n      tag_215\n        /* \"#utility.yul\":2590:2592   */\n      0x20\n        /* \"#utility.yul\":2579:2588   */\n      dup4\n        /* \"#utility.yul\":2575:2593   */\n      add\n        /* \"#utility.yul\":2566:2572   */\n      dup9\n        /* \"#utility.yul\":2522:2594   */\n      tag_136\n      jump\t// in\n    tag_215:\n        /* \"#utility.yul\":2604:2676   */\n      tag_216\n        /* \"#utility.yul\":2672:2674   */\n      0x40\n        /* \"#utility.yul\":2661:2670   */\n      dup4\n        /* \"#utility.yul\":2657:2675   */\n      add\n        /* \"#utility.yul\":2648:2654   */\n      dup8\n        /* \"#utility.yul\":2604:2676   */\n      tag_136\n      jump\t// in\n    tag_216:\n        /* \"#utility.yul\":2686:2756   */\n      tag_217\n        /* \"#utility.yul\":2752:2754   */\n      0x60\n        /* \"#utility.yul\":2741:2750   */\n      dup4\n        /* \"#utility.yul\":2737:2755   */\n      add\n        /* \"#utility.yul\":2728:2734   */\n      dup7\n        /* \"#utility.yul\":2686:2756   */\n      tag_146\n      jump\t// in\n    tag_217:\n        /* \"#utility.yul\":2766:2837   */\n      tag_218\n        /* \"#utility.yul\":2832:2835   */\n      0x80\n        /* \"#utility.yul\":2821:2830   */\n      dup4\n        /* \"#utility.yul\":2817:2836   */\n      add\n        /* \"#utility.yul\":2808:2814   */\n      dup6\n        /* \"#utility.yul\":2766:2837   */\n      tag_146\n      jump\t// in\n    tag_218:\n        /* \"#utility.yul\":2847:2914   */\n      tag_219\n        /* \"#utility.yul\":2909:2912   */\n      0xa0\n        /* \"#utility.yul\":2898:2907   */\n      dup4\n        /* \"#utility.yul\":2894:2913   */\n      add\n        /* \"#utility.yul\":2885:2891   */\n      dup5\n        /* \"#utility.yul\":2847:2914   */\n      tag_148\n      jump\t// in\n    tag_219:\n        /* \"#utility.yul\":2166:2921   */\n      swap8\n      swap7\n      pop\n      pop\n      pop\n      pop\n      pop\n      pop\n      pop\n      jump\t// out\n        /* \"#utility.yul\":2927:3049   */\n    tag_149:\n        /* \"#utility.yul\":3000:3024   */\n      tag_221\n        /* \"#utility.yul\":3018:3023   */\n      dup2\n        /* \"#utility.yul\":3000:3024   */\n      tag_143\n      jump\t// in\n    tag_221:\n        /* \"#utility.yul\":2993:2998   */\n      dup2\n        /* \"#utility.yul\":2990:3025   */\n      eq\n        /* \"#utility.yul\":2980:3043   */\n      tag_222\n      jumpi\n        /* \"#utility.yul\":3039:3040   */\n      0x00\n        /* \"#utility.yul\":3036:3037   */\n      dup1\n        /* \"#utility.yul\":3029:3041   */\n      revert\n        /* \"#utility.yul\":2980:3043   */\n    tag_222:\n        /* \"#utility.yul\":2927:3049   */\n      pop\n      jump\t// out\n        /* \"#utility.yul\":3055:3194   */\n    tag_150:\n        /* \"#utility.yul\":3101:3106   */\n      0x00\n        /* \"#utility.yul\":3139:3145   */\n      dup2\n        /* \"#utility.yul\":3126:3146   */\n      calldataload\n        /* \"#utility.yul\":3117:3146   */\n      swap1\n      pop\n        /* \"#utility.yul\":3155:3188   */\n      tag_224\n        /* \"#utility.yul\":3182:3187   */\n      dup2\n        /* \"#utility.yul\":3155:3188   */\n      tag_149\n      jump\t// in\n    tag_224:\n        /* \"#utility.yul\":3055:3194   */\n      swap3\n      swap2\n      pop\n      pop\n      jump\t// out\n        /* \"#utility.yul\":3200:3674   */\n    tag_29:\n        /* \"#utility.yul\":3268:3274   */\n      0x00\n        /* \"#utility.yul\":3276:3282   */\n      dup1\n        /* \"#utility.yul\":3325:3327   */\n      0x40\n        /* \"#utility.yul\":3313:3322   */\n      dup4\n        /* \"#utility.yul\":3304:3311   */\n      dup6\n        /* \"#utility.yul\":3300:3323   */\n      sub\n        /* \"#utility.yul\":3296:3328   */\n      slt\n        /* \"#utility.yul\":3293:3412   */\n      iszero\n      tag_226\n      jumpi\n        /* \"#utility.yul\":3331:3410   */\n      tag_227\n      tag_138\n      jump\t// in\n    tag_227:\n        /* \"#utility.yul\":3293:3412   */\n    tag_226:\n        /* \"#utility.yul\":3451:3452   */\n      0x00\n        /* \"#utility.yul\":3476:3529   */\n      tag_228\n        /* \"#utility.yul\":3521:3528   */\n      dup6\n        /* \"#utility.yul\":3512:3518   */\n      dup3\n        /* \"#utility.yul\":3501:3510   */\n      dup7\n        /* \"#utility.yul\":3497:3519   */\n      add\n        /* \"#utility.yul\":3476:3529   */\n      tag_141\n      jump\t// in\n    tag_228:\n        /* \"#utility.yul\":3466:3529   */\n      swap3\n      pop\n        /* \"#utility.yul\":3422:3539   */\n      pop\n        /* \"#utility.yul\":3578:3580   */\n      0x20\n        /* \"#utility.yul\":3604:3657   */\n      tag_229\n        /* \"#utility.yul\":3649:3656   */\n      dup6\n        /* \"#utility.yul\":3640:3646   */\n      dup3\n        /* \"#utility.yul\":3629:3638   */\n      dup7\n        /* \"#utility.yul\":3625:3647   */\n      add\n        /* \"#utility.yul\":3604:3657   */\n      tag_150\n      jump\t// in\n    tag_229:\n        /* \"#utility.yul\":3594:3657   */\n      swap2\n      pop\n        /* \"#utility.yul\":3549:3667   */\n      pop\n        /* \"#utility.yul\":3200:3674   */\n      swap3\n      pop\n      swap3\n      swap1\n      pop\n      jump\t// out\n        /* \"#utility.yul\":3680:3800   */\n    tag_151:\n        /* \"#utility.yul\":3752:3775   */\n      tag_231\n        /* \"#utility.yul\":3769:3774   */\n      dup2\n        /* \"#utility.yul\":3752:3775   */\n      tag_145\n      jump\t// in\n    tag_231:\n        /* \"#utility.yul\":3745:3750   */\n      dup2\n        /* \"#utility.yul\":3742:3776   */\n      eq\n        /* \"#utility.yul\":3732:3794   */\n      tag_232\n      jumpi\n        /* \"#utility.yul\":3790:3791   */\n      0x00\n        /* \"#utility.yul\":3787:3788   */\n      dup1\n        /* \"#utility.yul\":3780:3792   */\n      revert\n        /* \"#utility.yul\":3732:3794   */\n    tag_232:\n        /* \"#utility.yul\":3680:3800   */\n      pop\n      jump\t// out\n        /* \"#utility.yul\":3806:3943   */\n    tag_152:\n        /* \"#utility.yul\":3851:3856   */\n      0x00\n        /* \"#utility.yul\":3889:3895   */\n      dup2\n        /* \"#utility.yul\":3876:3896   */\n      calldataload\n        /* \"#utility.yul\":3867:3896   */\n      swap1\n      pop\n        /* \"#utility.yul\":3905:3937   */\n      tag_234\n        /* \"#utility.yul\":3931:3936   */\n      dup2\n        /* \"#utility.yul\":3905:3937   */\n      tag_151\n      jump\t// in\n    tag_234:\n        /* \"#utility.yul\":3806:3943   */\n      swap3\n      swap2\n      pop\n      pop\n      jump\t// out\n        /* \"#utility.yul\":3949:4564   */\n    tag_40:\n        /* \"#utility.yul\":4024:4030   */\n      0x00\n        /* \"#utility.yul\":4032:4038   */\n      dup1\n        /* \"#utility.yul\":4040:4046   */\n      0x00\n        /* \"#utility.yul\":4089:4091   */\n      0x60\n        /* \"#utility.yul\":4077:4086   */\n      dup5\n        /* \"#utility.yul\":4068:4075   */\n      dup7\n        /* \"#utility.yul\":4064:4087   */\n      sub\n        /* \"#utility.yul\":4060:4092   */\n      slt\n        /* \"#utility.yul\":4057:4176   */\n      iszero\n      tag_236\n      jumpi\n        /* \"#utility.yul\":4095:4174   */\n      tag_237\n      tag_138\n      jump\t// in\n    tag_237:\n        /* \"#utility.yul\":4057:4176   */\n    tag_236:\n        /* \"#utility.yul\":4215:4216   */\n      0x00\n        /* \"#utility.yul\":4240:4293   */\n      tag_238\n        /* \"#utility.yul\":4285:4292   */\n      dup7\n        /* \"#utility.yul\":4276:4282   */\n      dup3\n        /* \"#utility.yul\":4265:4274   */\n      dup8\n        /* \"#utility.yul\":4261:4283   */\n      add\n        /* \"#utility.yul\":4240:4293   */\n      tag_141\n      jump\t// in\n    tag_238:\n        /* \"#utility.yul\":4230:4293   */\n      swap4\n      pop\n        /* \"#utility.yul\":4186:4303   */\n      pop\n        /* \"#utility.yul\":4342:4344   */\n      0x20\n        /* \"#utility.yul\":4368:4420   */\n      tag_239\n        /* \"#utility.yul\":4412:4419   */\n      dup7\n        /* \"#utility.yul\":4403:4409   */\n      dup3\n        /* \"#utility.yul\":4392:4401   */\n      dup8\n        /* \"#utility.yul\":4388:4410   */\n      add\n        /* \"#utility.yul\":4368:4420   */\n      tag_152\n      jump\t// in\n    tag_239:\n        /* \"#utility.yul\":4358:4420   */\n      swap3\n      pop\n        /* \"#utility.yul\":4313:4430   */\n      pop\n        /* \"#utility.yul\":4469:4471   */\n      0x40\n        /* \"#utility.yul\":4495:4547   */\n      tag_240\n        /* \"#utility.yul\":4539:4546   */\n      dup7\n        /* \"#utility.yul\":4530:4536   */\n      dup3\n        /* \"#utility.yul\":4519:4528   */\n      dup8\n        /* \"#utility.yul\":4515:4537   */\n      add\n        /* \"#utility.yul\":4495:4547   */\n      tag_152\n      jump\t// in\n    tag_240:\n        /* \"#utility.yul\":4485:4547   */\n      swap2\n      pop\n        /* \"#utility.yul\":4440:4557   */\n      pop\n        /* \"#utility.yul\":3949:4564   */\n      swap3\n      pop\n      swap3\n      pop\n      swap3\n      jump\t// out\n        /* \"#utility.yul\":4570:5044   */\n    tag_44:\n        /* \"#utility.yul\":4638:4644   */\n      0x00\n        /* \"#utility.yul\":4646:4652   */\n      dup1\n        /* \"#utility.yul\":4695:4697   */\n      0x40\n        /* \"#utility.yul\":4683:4692   */\n      dup4\n        /* \"#utility.yul\":4674:4681   */\n      dup6\n        /* \"#utility.yul\":4670:4693   */\n      sub\n        /* \"#utility.yul\":4666:4698   */\n      slt\n        /* \"#utility.yul\":4663:4782   */\n      iszero\n      tag_242\n      jumpi\n        /* \"#utility.yul\":4701:4780   */\n      tag_243\n      tag_138\n      jump\t// in\n    tag_243:\n        /* \"#utility.yul\":4663:4782   */\n    tag_242:\n        /* \"#utility.yul\":4821:4822   */\n      0x00\n        /* \"#utility.yul\":4846:4899   */\n      tag_244\n        /* \"#utility.yul\":4891:4898   */\n      dup6\n        /* \"#utility.yul\":4882:4888   */\n      dup3\n        /* \"#utility.yul\":4871:4880   */\n      dup7\n        /* \"#utility.yul\":4867:4889   */\n      add\n        /* \"#utility.yul\":4846:4899   */\n      tag_141\n      jump\t// in\n    tag_244:\n        /* \"#utility.yul\":4836:4899   */\n      swap3\n      pop\n        /* \"#utility.yul\":4792:4909   */\n      pop\n        /* \"#utility.yul\":4948:4950   */\n      0x20\n        /* \"#utility.yul\":4974:5027   */\n      tag_245\n        /* \"#utility.yul\":5019:5026   */\n      dup6\n        /* \"#utility.yul\":5010:5016   */\n      dup3\n        /* \"#utility.yul\":4999:5008   */\n      dup7\n        /* \"#utility.yul\":4995:5017   */\n      add\n        /* \"#utility.yul\":4974:5027   */\n      tag_141\n      jump\t// in\n    tag_245:\n        /* \"#utility.yul\":4964:5027   */\n      swap2\n      pop\n        /* \"#utility.yul\":4919:5037   */\n      pop\n        /* \"#utility.yul\":4570:5044   */\n      swap3\n      pop\n      swap3\n      swap1\n      pop\n      jump\t// out\n        /* \"#utility.yul\":5050:5110   */\n    tag_153:\n        /* \"#utility.yul\":5078:5081   */\n      0x00\n        /* \"#utility.yul\":5099:5104   */\n      dup2\n        /* \"#utility.yul\":5092:5104   */\n      swap1\n      pop\n        /* \"#utility.yul\":5050:5110   */\n      swap2\n      swap1\n      pop\n      jump\t// out\n        /* \"#utility.yul\":5116:5258   */\n    tag_154:\n        /* \"#utility.yul\":5166:5175   */\n      0x00\n        /* \"#utility.yul\":5199:5252   */\n      tag_248\n        /* \"#utility.yul\":5217:5251   */\n      tag_249\n        /* \"#utility.yul\":5226:5250   */\n      tag_250\n        /* \"#utility.yul\":5244:5249   */\n      dup5\n        /* \"#utility.yul\":5226:5250   */\n      tag_142\n      jump\t// in\n    tag_250:\n        /* \"#utility.yul\":5217:5251   */\n      tag_153\n      jump\t// in\n    tag_249:\n        /* \"#utility.yul\":5199:5252   */\n      tag_142\n      jump\t// in\n    tag_248:\n        /* \"#utility.yul\":5186:5252   */\n      swap1\n      pop\n        /* \"#utility.yul\":5116:5258   */\n      swap2\n      swap1\n      pop\n      jump\t// out\n        /* \"#utility.yul\":5264:5390   */\n    tag_155:\n        /* \"#utility.yul\":5314:5323   */\n      0x00\n        /* \"#utility.yul\":5347:5384   */\n      tag_252\n        /* \"#utility.yul\":5378:5383   */\n      dup3\n        /* \"#utility.yul\":5347:5384   */\n      tag_154\n      jump\t// in\n    tag_252:\n        /* \"#utility.yul\":5334:5384   */\n      swap1\n      pop\n        /* \"#utility.yul\":5264:5390   */\n      swap2\n      swap1\n      pop\n      jump\t// out\n        /* \"#utility.yul\":5396:5536   */\n    tag_156:\n        /* \"#utility.yul\":5460:5469   */\n      0x00\n        /* \"#utility.yul\":5493:5530   */\n      tag_254\n        /* \"#utility.yul\":5524:5529   */\n      dup3\n        /* \"#utility.yul\":5493:5530   */\n      tag_155\n      jump\t// in\n    tag_254:\n        /* \"#utility.yul\":5480:5530   */\n      swap1\n      pop\n        /* \"#utility.yul\":5396:5536   */\n      swap2\n      swap1\n      pop\n      jump\t// out\n        /* \"#utility.yul\":5542:5701   */\n    tag_157:\n        /* \"#utility.yul\":5643:5694   */\n      tag_256\n        /* \"#utility.yul\":5688:5693   */\n      dup2\n        /* \"#utility.yul\":5643:5694   */\n      tag_156\n      jump\t// in\n    tag_256:\n        /* \"#utility.yul\":5638:5641   */\n      dup3\n        /* \"#utility.yul\":5631:5695   */\n      mstore\n        /* \"#utility.yul\":5542:5701   */\n      pop\n      pop\n      jump\t// out\n        /* \"#utility.yul\":5707:5957   */\n    tag_52:\n        /* \"#utility.yul\":5814:5818   */\n      0x00\n        /* \"#utility.yul\":5852:5854   */\n      0x20\n        /* \"#utility.yul\":5841:5850   */\n      dup3\n        /* \"#utility.yul\":5837:5855   */\n      add\n        /* \"#utility.yul\":5829:5855   */\n      swap1\n      pop\n        /* \"#utility.yul\":5865:5950   */\n      tag_258\n        /* \"#utility.yul\":5947:5948   */\n      0x00\n        /* \"#utility.yul\":5936:5945   */\n      dup4\n        /* \"#utility.yul\":5932:5949   */\n      add\n        /* \"#utility.yul\":5923:5929   */\n      dup5\n        /* \"#utility.yul\":5865:5950   */\n      tag_157\n      jump\t// in\n    tag_258:\n        /* \"#utility.yul\":5707:5957   */\n      swap3\n      swap2\n      pop\n      pop\n      jump\t// out\n        /* \"#utility.yul\":5963:6132   */\n    tag_158:\n        /* \"#utility.yul\":6047:6058   */\n      0x00\n        /* \"#utility.yul\":6081:6087   */\n      dup3\n        /* \"#utility.yul\":6076:6079   */\n      dup3\n        /* \"#utility.yul\":6069:6088   */\n      mstore\n        /* \"#utility.yul\":6121:6125   */\n      0x20\n        /* \"#utility.yul\":6116:6119   */\n      dup3\n        /* \"#utility.yul\":6112:6126   */\n      add\n        /* \"#utility.yul\":6097:6126   */\n      swap1\n      pop\n        /* \"#utility.yul\":5963:6132   */\n      swap3\n      swap2\n      pop\n      pop\n      jump\t// out\n        /* \"#utility.yul\":6138:6315   */\n    tag_159:\n        /* \"#utility.yul\":6278:6307   */\n      0x43616d706169676e20686173206e6f7420656e64656420796574210000000000\n        /* \"#utility.yul\":6274:6275   */\n      0x00\n        /* \"#utility.yul\":6266:6272   */\n      dup3\n        /* \"#utility.yul\":6262:6276   */\n      add\n        /* \"#utility.yul\":6255:6308   */\n      mstore\n        /* \"#utility.yul\":6138:6315   */\n      pop\n      jump\t// out\n        /* \"#utility.yul\":6321:6687   */\n    tag_160:\n        /* \"#utility.yul\":6463:6466   */\n      0x00\n        /* \"#utility.yul\":6484:6551   */\n      tag_262\n        /* \"#utility.yul\":6548:6550   */\n      0x1b\n        /* \"#utility.yul\":6543:6546   */\n      dup4\n        /* \"#utility.yul\":6484:6551   */\n      tag_158\n      jump\t// in\n    tag_262:\n        /* \"#utility.yul\":6477:6551   */\n      swap2\n      pop\n        /* \"#utility.yul\":6560:6653   */\n      tag_263\n        /* \"#utility.yul\":6649:6652   */\n      dup3\n        /* \"#utility.yul\":6560:6653   */\n      tag_159\n      jump\t// in\n    tag_263:\n        /* \"#utility.yul\":6678:6680   */\n      0x20\n        /* \"#utility.yul\":6673:6676   */\n      dup3\n        /* \"#utility.yul\":6669:6681   */\n      add\n        /* \"#utility.yul\":6662:6681   */\n      swap1\n      pop\n        /* \"#utility.yul\":6321:6687   */\n      swap2\n      swap1\n      pop\n      jump\t// out\n        /* \"#utility.yul\":6693:7112   */\n    tag_56:\n        /* \"#utility.yul\":6859:6863   */\n      0x00\n        /* \"#utility.yul\":6897:6899   */\n      0x20\n        /* \"#utility.yul\":6886:6895   */\n      dup3\n        /* \"#utility.yul\":6882:6900   */\n      add\n        /* \"#utility.yul\":6874:6900   */\n      swap1\n      pop\n        /* \"#utility.yul\":6946:6955   */\n      dup2\n        /* \"#utility.yul\":6940:6944   */\n      dup2\n        /* \"#utility.yul\":6936:6956   */\n      sub\n        /* \"#utility.yul\":6932:6933   */\n      0x00\n        /* \"#utility.yul\":6921:6930   */\n      dup4\n        /* \"#utility.yul\":6917:6934   */\n      add\n        /* \"#utility.yul\":6910:6957   */\n      mstore\n        /* \"#utility.yul\":6974:7105   */\n      tag_265\n        /* \"#utility.yul\":7100:7104   */\n      dup2\n        /* \"#utility.yul\":6974:7105   */\n      tag_160\n      jump\t// in\n    tag_265:\n        /* \"#utility.yul\":6966:7105   */\n      swap1\n      pop\n        /* \"#utility.yul\":6693:7112   */\n      swap2\n      swap1\n      pop\n      jump\t// out\n        /* \"#utility.yul\":7118:7298   */\n    tag_161:\n        /* \"#utility.yul\":7166:7243   */\n      0x4e487b7100000000000000000000000000000000000000000000000000000000\n        /* \"#utility.yul\":7163:7164   */\n      0x00\n        /* \"#utility.yul\":7156:7244   */\n      mstore\n        /* \"#utility.yul\":7263:7267   */\n      0x11\n        /* \"#utility.yul\":7260:7261   */\n      0x04\n        /* \"#utility.yul\":7253:7268   */\n      mstore\n        /* \"#utility.yul\":7287:7291   */\n      0x24\n        /* \"#utility.yul\":7284:7285   */\n      0x00\n        /* \"#utility.yul\":7277:7292   */\n      revert\n        /* \"#utility.yul\":7304:7550   */\n    tag_58:\n        /* \"#utility.yul\":7343:7346   */\n      0x00\n        /* \"#utility.yul\":7362:7381   */\n      tag_268\n        /* \"#utility.yul\":7379:7380   */\n      dup3\n        /* \"#utility.yul\":7362:7381   */\n      tag_145\n      jump\t// in\n    tag_268:\n        /* \"#utility.yul\":7357:7381   */\n      swap2\n      pop\n        /* \"#utility.yul\":7395:7414   */\n      tag_269\n        /* \"#utility.yul\":7412:7413   */\n      dup4\n        /* \"#utility.yul\":7395:7414   */\n      tag_145\n      jump\t// in\n    tag_269:\n        /* \"#utility.yul\":7390:7414   */\n      swap3\n      pop\n        /* \"#utility.yul\":7492:7493   */\n      dup3\n        /* \"#utility.yul\":7480:7490   */\n      0xffffffff\n        /* \"#utility.yul\":7476:7494   */\n      sub\n        /* \"#utility.yul\":7473:7474   */\n      dup3\n        /* \"#utility.yul\":7470:7495   */\n      gt\n        /* \"#utility.yul\":7467:7518   */\n      iszero\n      tag_270\n      jumpi\n        /* \"#utility.yul\":7498:7516   */\n      tag_271\n      tag_161\n      jump\t// in\n    tag_271:\n        /* \"#utility.yul\":7467:7518   */\n    tag_270:\n        /* \"#utility.yul\":7542:7543   */\n      dup3\n        /* \"#utility.yul\":7539:7540   */\n      dup3\n        /* \"#utility.yul\":7535:7544   */\n      add\n        /* \"#utility.yul\":7528:7544   */\n      swap1\n      pop\n        /* \"#utility.yul\":7304:7550   */\n      swap3\n      swap2\n      pop\n      pop\n      jump\t// out\n        /* \"#utility.yul\":7556:7735   */\n    tag_162:\n        /* \"#utility.yul\":7696:7727   */\n      0x43616d706169676e20686173206e6f7420657870697265642079657421000000\n        /* \"#utility.yul\":7692:7693   */\n      0x00\n        /* \"#utility.yul\":7684:7690   */\n      dup3\n        /* \"#utility.yul\":7680:7694   */\n      add\n        /* \"#utility.yul\":7673:7728   */\n      mstore\n        /* \"#utility.yul\":7556:7735   */\n      pop\n      jump\t// out\n        /* \"#utility.yul\":7741:8107   */\n    tag_163:\n        /* \"#utility.yul\":7883:7886   */\n      0x00\n        /* \"#utility.yul\":7904:7971   */\n      tag_274\n        /* \"#utility.yul\":7968:7970   */\n      0x1d\n        /* \"#utility.yul\":7963:7966   */\n      dup4\n        /* \"#utility.yul\":7904:7971   */\n      tag_158\n      jump\t// in\n    tag_274:\n        /* \"#utility.yul\":7897:7971   */\n      swap2\n      pop\n        /* \"#utility.yul\":7980:8073   */\n      tag_275\n        /* \"#utility.yul\":8069:8072   */\n      dup3\n        /* \"#utility.yul\":7980:8073   */\n      tag_162\n      jump\t// in\n    tag_275:\n        /* \"#utility.yul\":8098:8100   */\n      0x20\n        /* \"#utility.yul\":8093:8096   */\n      dup3\n        /* \"#utility.yul\":8089:8101   */\n      add\n        /* \"#utility.yul\":8082:8101   */\n      swap1\n      pop\n        /* \"#utility.yul\":7741:8107   */\n      swap2\n      swap1\n      pop\n      jump\t// out\n        /* \"#utility.yul\":8113:8532   */\n    tag_61:\n        /* \"#utility.yul\":8279:8283   */\n      0x00\n        /* \"#utility.yul\":8317:8319   */\n      0x20\n        /* \"#utility.yul\":8306:8315   */\n      dup3\n        /* \"#utility.yul\":8302:8320   */\n      add\n        /* \"#utility.yul\":8294:8320   */\n      swap1\n      pop\n        /* \"#utility.yul\":8366:8375   */\n      dup2\n        /* \"#utility.yul\":8360:8364   */\n      dup2\n        /* \"#utility.yul\":8356:8376   */\n      sub\n        /* \"#utility.yul\":8352:8353   */\n      0x00\n        /* \"#utility.yul\":8341:8350   */\n      dup4\n        /* \"#utility.yul\":8337:8354   */\n      add\n        /* \"#utility.yul\":8330:8377   */\n      mstore\n        /* \"#utility.yul\":8394:8525   */\n      tag_277\n        /* \"#utility.yul\":8520:8524   */\n      dup2\n        /* \"#utility.yul\":8394:8525   */\n      tag_163\n      jump\t// in\n    tag_277:\n        /* \"#utility.yul\":8386:8525   */\n      swap1\n      pop\n        /* \"#utility.yul\":8113:8532   */\n      swap2\n      swap1\n      pop\n      jump\t// out\n        /* \"#utility.yul\":8538:8870   */\n    tag_63:\n        /* \"#utility.yul\":8659:8663   */\n      0x00\n        /* \"#utility.yul\":8697:8699   */\n      0x40\n        /* \"#utility.yul\":8686:8695   */\n      dup3\n        /* \"#utility.yul\":8682:8700   */\n      add\n        /* \"#utility.yul\":8674:8700   */\n      swap1\n      pop\n        /* \"#utility.yul\":8710:8781   */\n      tag_279\n        /* \"#utility.yul\":8778:8779   */\n      0x00\n        /* \"#utility.yul\":8767:8776   */\n      dup4\n        /* \"#utility.yul\":8763:8780   */\n      add\n        /* \"#utility.yul\":8754:8760   */\n      dup6\n        /* \"#utility.yul\":8710:8781   */\n      tag_144\n      jump\t// in\n    tag_279:\n        /* \"#utility.yul\":8791:8863   */\n      tag_280\n        /* \"#utility.yul\":8859:8861   */\n      0x20\n        /* \"#utility.yul\":8848:8857   */\n      dup4\n        /* \"#utility.yul\":8844:8862   */\n      add\n        /* \"#utility.yul\":8835:8841   */\n      dup5\n        /* \"#utility.yul\":8791:8863   */\n      tag_136\n      jump\t// in\n    tag_280:\n        /* \"#utility.yul\":8538:8870   */\n      swap4\n      swap3\n      pop\n      pop\n      pop\n      jump\t// out\n        /* \"#utility.yul\":8876:8992   */\n    tag_164:\n        /* \"#utility.yul\":8946:8967   */\n      tag_282\n        /* \"#utility.yul\":8961:8966   */\n      dup2\n        /* \"#utility.yul\":8946:8967   */\n      tag_147\n      jump\t// in\n    tag_282:\n        /* \"#utility.yul\":8939:8944   */\n      dup2\n        /* \"#utility.yul\":8936:8968   */\n      eq\n        /* \"#utility.yul\":8926:8986   */\n      tag_283\n      jumpi\n        /* \"#utility.yul\":8982:8983   */\n      0x00\n        /* \"#utility.yul\":8979:8980   */\n      dup1\n        /* \"#utility.yul\":8972:8984   */\n      revert\n        /* \"#utility.yul\":8926:8986   */\n    tag_283:\n        /* \"#utility.yul\":8876:8992   */\n      pop\n      jump\t// out\n        /* \"#utility.yul\":8998:9135   */\n    tag_165:\n        /* \"#utility.yul\":9052:9057   */\n      0x00\n        /* \"#utility.yul\":9083:9089   */\n      dup2\n        /* \"#utility.yul\":9077:9090   */\n      mload\n        /* \"#utility.yul\":9068:9090   */\n      swap1\n      pop\n        /* \"#utility.yul\":9099:9129   */\n      tag_285\n        /* \"#utility.yul\":9123:9128   */\n      dup2\n        /* \"#utility.yul\":9099:9129   */\n      tag_164\n      jump\t// in\n    tag_285:\n        /* \"#utility.yul\":8998:9135   */\n      swap3\n      swap2\n      pop\n      pop\n      jump\t// out\n        /* \"#utility.yul\":9141:9486   */\n    tag_67:\n        /* \"#utility.yul\":9208:9214   */\n      0x00\n        /* \"#utility.yul\":9257:9259   */\n      0x20\n        /* \"#utility.yul\":9245:9254   */\n      dup3\n        /* \"#utility.yul\":9236:9243   */\n      dup5\n        /* \"#utility.yul\":9232:9255   */\n      sub\n        /* \"#utility.yul\":9228:9260   */\n      slt\n        /* \"#utility.yul\":9225:9344   */\n      iszero\n      tag_287\n      jumpi\n        /* \"#utility.yul\":9263:9342   */\n      tag_288\n      tag_138\n      jump\t// in\n    tag_288:\n        /* \"#utility.yul\":9225:9344   */\n    tag_287:\n        /* \"#utility.yul\":9383:9384   */\n      0x00\n        /* \"#utility.yul\":9408:9469   */\n      tag_289\n        /* \"#utility.yul\":9461:9468   */\n      dup5\n        /* \"#utility.yul\":9452:9458   */\n      dup3\n        /* \"#utility.yul\":9441:9450   */\n      dup6\n        /* \"#utility.yul\":9437:9459   */\n      add\n        /* \"#utility.yul\":9408:9469   */\n      tag_165\n      jump\t// in\n    tag_289:\n        /* \"#utility.yul\":9398:9469   */\n      swap2\n      pop\n        /* \"#utility.yul\":9354:9479   */\n      pop\n        /* \"#utility.yul\":9141:9486   */\n      swap3\n      swap2\n      pop\n      pop\n      jump\t// out\n        /* \"#utility.yul\":9492:9824   */\n    tag_69:\n        /* \"#utility.yul\":9613:9617   */\n      0x00\n        /* \"#utility.yul\":9651:9653   */\n      0x40\n        /* \"#utility.yul\":9640:9649   */\n      dup3\n        /* \"#utility.yul\":9636:9654   */\n      add\n        /* \"#utility.yul\":9628:9654   */\n      swap1\n      pop\n        /* \"#utility.yul\":9664:9735   */\n      tag_291\n        /* \"#utility.yul\":9732:9733   */\n      0x00\n        /* \"#utility.yul\":9721:9730   */\n      dup4\n        /* \"#utility.yul\":9717:9734   */\n      add\n        /* \"#utility.yul\":9708:9714   */\n      dup6\n        /* \"#utility.yul\":9664:9735   */\n      tag_136\n      jump\t// in\n    tag_291:\n        /* \"#utility.yul\":9745:9817   */\n      tag_292\n        /* \"#utility.yul\":9813:9815   */\n      0x20\n        /* \"#utility.yul\":9802:9811   */\n      dup4\n        /* \"#utility.yul\":9798:9816   */\n      add\n        /* \"#utility.yul\":9789:9795   */\n      dup5\n        /* \"#utility.yul\":9745:9817   */\n      tag_136\n      jump\t// in\n    tag_292:\n        /* \"#utility.yul\":9492:9824   */\n      swap4\n      swap3\n      pop\n      pop\n      pop\n      jump\t// out\n        /* \"#utility.yul\":9830:10006   */\n    tag_166:\n        /* \"#utility.yul\":9970:9998   */\n      0x53656e646572206973206e6f74207468652063726561746f7221000000000000\n        /* \"#utility.yul\":9966:9967   */\n      0x00\n        /* \"#utility.yul\":9958:9964   */\n      dup3\n        /* \"#utility.yul\":9954:9968   */\n      add\n        /* \"#utility.yul\":9947:9999   */\n      mstore\n        /* \"#utility.yul\":9830:10006   */\n      pop\n      jump\t// out\n        /* \"#utility.yul\":10012:10378   */\n    tag_167:\n        /* \"#utility.yul\":10154:10157   */\n      0x00\n        /* \"#utility.yul\":10175:10242   */\n      tag_295\n        /* \"#utility.yul\":10239:10241   */\n      0x1a\n        /* \"#utility.yul\":10234:10237   */\n      dup4\n        /* \"#utility.yul\":10175:10242   */\n      tag_158\n      jump\t// in\n    tag_295:\n        /* \"#utility.yul\":10168:10242   */\n      swap2\n      pop\n        /* \"#utility.yul\":10251:10344   */\n      tag_296\n        /* \"#utility.yul\":10340:10343   */\n      dup3\n        /* \"#utility.yul\":10251:10344   */\n      tag_166\n      jump\t// in\n    tag_296:\n        /* \"#utility.yul\":10369:10371   */\n      0x20\n        /* \"#utility.yul\":10364:10367   */\n      dup3\n        /* \"#utility.yul\":10360:10372   */\n      add\n        /* \"#utility.yul\":10353:10372   */\n      swap1\n      pop\n        /* \"#utility.yul\":10012:10378   */\n      swap2\n      swap1\n      pop\n      jump\t// out\n        /* \"#utility.yul\":10384:10803   */\n    tag_73:\n        /* \"#utility.yul\":10550:10554   */\n      0x00\n        /* \"#utility.yul\":10588:10590   */\n      0x20\n        /* \"#utility.yul\":10577:10586   */\n      dup3\n        /* \"#utility.yul\":10573:10591   */\n      add\n        /* \"#utility.yul\":10565:10591   */\n      swap1\n      pop\n        /* \"#utility.yul\":10637:10646   */\n      dup2\n        /* \"#utility.yul\":10631:10635   */\n      dup2\n        /* \"#utility.yul\":10627:10647   */\n      sub\n        /* \"#utility.yul\":10623:10624   */\n      0x00\n        /* \"#utility.yul\":10612:10621   */\n      dup4\n        /* \"#utility.yul\":10608:10625   */\n      add\n        /* \"#utility.yul\":10601:10648   */\n      mstore\n        /* \"#utility.yul\":10665:10796   */\n      tag_298\n        /* \"#utility.yul\":10791:10795   */\n      dup2\n        /* \"#utility.yul\":10665:10796   */\n      tag_167\n      jump\t// in\n    tag_298:\n        /* \"#utility.yul\":10657:10796   */\n      swap1\n      pop\n        /* \"#utility.yul\":10384:10803   */\n      swap2\n      swap1\n      pop\n      jump\t// out\n        /* \"#utility.yul\":10809:10987   */\n    tag_168:\n        /* \"#utility.yul\":10949:10979   */\n      0x446f6e6174696f6e20697320616c726561647920636c61696d65642100000000\n        /* \"#utility.yul\":10945:10946   */\n      0x00\n        /* \"#utility.yul\":10937:10943   */\n      dup3\n        /* \"#utility.yul\":10933:10947   */\n      add\n        /* \"#utility.yul\":10926:10980   */\n      mstore\n        /* \"#utility.yul\":10809:10987   */\n      pop\n      jump\t// out\n        /* \"#utility.yul\":10993:11359   */\n    tag_169:\n        /* \"#utility.yul\":11135:11138   */\n      0x00\n        /* \"#utility.yul\":11156:11223   */\n      tag_301\n        /* \"#utility.yul\":11220:11222   */\n      0x1c\n        /* \"#utility.yul\":11215:11218   */\n      dup4\n        /* \"#utility.yul\":11156:11223   */\n      tag_158\n      jump\t// in\n    tag_301:\n        /* \"#utility.yul\":11149:11223   */\n      swap2\n      pop\n        /* \"#utility.yul\":11232:11325   */\n      tag_302\n        /* \"#utility.yul\":11321:11324   */\n      dup3\n        /* \"#utility.yul\":11232:11325   */\n      tag_168\n      jump\t// in\n    tag_302:\n        /* \"#utility.yul\":11350:11352   */\n      0x20\n        /* \"#utility.yul\":11345:11348   */\n      dup3\n        /* \"#utility.yul\":11341:11353   */\n      add\n        /* \"#utility.yul\":11334:11353   */\n      swap1\n      pop\n        /* \"#utility.yul\":10993:11359   */\n      swap2\n      swap1\n      pop\n      jump\t// out\n        /* \"#utility.yul\":11365:11784   */\n    tag_78:\n        /* \"#utility.yul\":11531:11535   */\n      0x00\n        /* \"#utility.yul\":11569:11571   */\n      0x20\n        /* \"#utility.yul\":11558:11567   */\n      dup3\n        /* \"#utility.yul\":11554:11572   */\n      add\n        /* \"#utility.yul\":11546:11572   */\n      swap1\n      pop\n        /* \"#utility.yul\":11618:11627   */\n      dup2\n        /* \"#utility.yul\":11612:11616   */\n      dup2\n        /* \"#utility.yul\":11608:11628   */\n      sub\n        /* \"#utility.yul\":11604:11605   */\n      0x00\n        /* \"#utility.yul\":11593:11602   */\n      dup4\n        /* \"#utility.yul\":11589:11606   */\n      add\n        /* \"#utility.yul\":11582:11629   */\n      mstore\n        /* \"#utility.yul\":11646:11777   */\n      tag_304\n        /* \"#utility.yul\":11772:11776   */\n      dup2\n        /* \"#utility.yul\":11646:11777   */\n      tag_169\n      jump\t// in\n    tag_304:\n        /* \"#utility.yul\":11638:11777   */\n      swap1\n      pop\n        /* \"#utility.yul\":11365:11784   */\n      swap2\n      swap1\n      pop\n      jump\t// out\n        /* \"#utility.yul\":11790:11965   */\n    tag_170:\n        /* \"#utility.yul\":11930:11957   */\n      0x43616d706169676e20616c726561647920737461727465642100000000000000\n        /* \"#utility.yul\":11926:11927   */\n      0x00\n        /* \"#utility.yul\":11918:11924   */\n      dup3\n        /* \"#utility.yul\":11914:11928   */\n      add\n        /* \"#utility.yul\":11907:11958   */\n      mstore\n        /* \"#utility.yul\":11790:11965   */\n      pop\n      jump\t// out\n        /* \"#utility.yul\":11971:12337   */\n    tag_171:\n        /* \"#utility.yul\":12113:12116   */\n      0x00\n        /* \"#utility.yul\":12134:12201   */\n      tag_307\n        /* \"#utility.yul\":12198:12200   */\n      0x19\n        /* \"#utility.yul\":12193:12196   */\n      dup4\n        /* \"#utility.yul\":12134:12201   */\n      tag_158\n      jump\t// in\n    tag_307:\n        /* \"#utility.yul\":12127:12201   */\n      swap2\n      pop\n        /* \"#utility.yul\":12210:12303   */\n      tag_308\n        /* \"#utility.yul\":12299:12302   */\n      dup3\n        /* \"#utility.yul\":12210:12303   */\n      tag_170\n      jump\t// in\n    tag_308:\n        /* \"#utility.yul\":12328:12330   */\n      0x20\n        /* \"#utility.yul\":12323:12326   */\n      dup3\n        /* \"#utility.yul\":12319:12331   */\n      add\n        /* \"#utility.yul\":12312:12331   */\n      swap1\n      pop\n        /* \"#utility.yul\":11971:12337   */\n      swap2\n      swap1\n      pop\n      jump\t// out\n        /* \"#utility.yul\":12343:12762   */\n    tag_89:\n        /* \"#utility.yul\":12509:12513   */\n      0x00\n        /* \"#utility.yul\":12547:12549   */\n      0x20\n        /* \"#utility.yul\":12536:12545   */\n      dup3\n        /* \"#utility.yul\":12532:12550   */\n      add\n        /* \"#utility.yul\":12524:12550   */\n      swap1\n      pop\n        /* \"#utility.yul\":12596:12605   */\n      dup2\n        /* \"#utility.yul\":12590:12594   */\n      dup2\n        /* \"#utility.yul\":12586:12606   */\n      sub\n        /* \"#utility.yul\":12582:12583   */\n      0x00\n        /* \"#utility.yul\":12571:12580   */\n      dup4\n        /* \"#utility.yul\":12567:12584   */\n      add\n        /* \"#utility.yul\":12560:12607   */\n      mstore\n        /* \"#utility.yul\":12624:12755   */\n      tag_310\n        /* \"#utility.yul\":12750:12754   */\n      dup2\n        /* \"#utility.yul\":12624:12755   */\n      tag_171\n      jump\t// in\n    tag_310:\n        /* \"#utility.yul\":12616:12755   */\n      swap1\n      pop\n        /* \"#utility.yul\":12343:12762   */\n      swap2\n      swap1\n      pop\n      jump\t// out\n        /* \"#utility.yul\":12768:12992   */\n    tag_172:\n        /* \"#utility.yul\":12908:12942   */\n      0x53746172742064617465206973206c657373207468616e2063757272656e7420\n        /* \"#utility.yul\":12904:12905   */\n      0x00\n        /* \"#utility.yul\":12896:12902   */\n      dup3\n        /* \"#utility.yul\":12892:12906   */\n      add\n        /* \"#utility.yul\":12885:12943   */\n      mstore\n        /* \"#utility.yul\":12977:12984   */\n      0x6461746521000000000000000000000000000000000000000000000000000000\n        /* \"#utility.yul\":12972:12974   */\n      0x20\n        /* \"#utility.yul\":12964:12970   */\n      dup3\n        /* \"#utility.yul\":12960:12975   */\n      add\n        /* \"#utility.yul\":12953:12985   */\n      mstore\n        /* \"#utility.yul\":12768:12992   */\n      pop\n      jump\t// out\n        /* \"#utility.yul\":12998:13364   */\n    tag_173:\n        /* \"#utility.yul\":13140:13143   */\n      0x00\n        /* \"#utility.yul\":13161:13228   */\n      tag_313\n        /* \"#utility.yul\":13225:13227   */\n      0x25\n        /* \"#utility.yul\":13220:13223   */\n      dup4\n        /* \"#utility.yul\":13161:13228   */\n      tag_158\n      jump\t// in\n    tag_313:\n        /* \"#utility.yul\":13154:13228   */\n      swap2\n      pop\n        /* \"#utility.yul\":13237:13330   */\n      tag_314\n        /* \"#utility.yul\":13326:13329   */\n      dup3\n        /* \"#utility.yul\":13237:13330   */\n      tag_172\n      jump\t// in\n    tag_314:\n        /* \"#utility.yul\":13355:13357   */\n      0x40\n        /* \"#utility.yul\":13350:13353   */\n      dup3\n        /* \"#utility.yul\":13346:13358   */\n      add\n        /* \"#utility.yul\":13339:13358   */\n      swap1\n      pop\n        /* \"#utility.yul\":12998:13364   */\n      swap2\n      swap1\n      pop\n      jump\t// out\n        /* \"#utility.yul\":13370:13789   */\n    tag_94:\n        /* \"#utility.yul\":13536:13540   */\n      0x00\n        /* \"#utility.yul\":13574:13576   */\n      0x20\n        /* \"#utility.yul\":13563:13572   */\n      dup3\n        /* \"#utility.yul\":13559:13577   */\n      add\n        /* \"#utility.yul\":13551:13577   */\n      swap1\n      pop\n        /* \"#utility.yul\":13623:13632   */\n      dup2\n        /* \"#utility.yul\":13617:13621   */\n      dup2\n        /* \"#utility.yul\":13613:13633   */\n      sub\n        /* \"#utility.yul\":13609:13610   */\n      0x00\n        /* \"#utility.yul\":13598:13607   */\n      dup4\n        /* \"#utility.yul\":13594:13611   */\n      add\n        /* \"#utility.yul\":13587:13634   */\n      mstore\n        /* \"#utility.yul\":13651:13782   */\n      tag_316\n        /* \"#utility.yul\":13777:13781   */\n      dup2\n        /* \"#utility.yul\":13651:13782   */\n      tag_173\n      jump\t// in\n    tag_316:\n        /* \"#utility.yul\":13643:13782   */\n      swap1\n      pop\n        /* \"#utility.yul\":13370:13789   */\n      swap2\n      swap1\n      pop\n      jump\t// out\n        /* \"#utility.yul\":13795:14015   */\n    tag_174:\n        /* \"#utility.yul\":13935:13969   */\n      0x456e642064617465206973206c657373207468616e2073746172742064617465\n        /* \"#utility.yul\":13931:13932   */\n      0x00\n        /* \"#utility.yul\":13923:13929   */\n      dup3\n        /* \"#utility.yul\":13919:13933   */\n      add\n        /* \"#utility.yul\":13912:13970   */\n      mstore\n        /* \"#utility.yul\":14004:14007   */\n      0x2100000000000000000000000000000000000000000000000000000000000000\n        /* \"#utility.yul\":13999:14001   */\n      0x20\n        /* \"#utility.yul\":13991:13997   */\n      dup3\n        /* \"#utility.yul\":13987:14002   */\n      add\n        /* \"#utility.yul\":13980:14008   */\n      mstore\n        /* \"#utility.yul\":13795:14015   */\n      pop\n      jump\t// out\n        /* \"#utility.yul\":14021:14387   */\n    tag_175:\n        /* \"#utility.yul\":14163:14166   */\n      0x00\n        /* \"#utility.yul\":14184:14251   */\n      tag_319\n        /* \"#utility.yul\":14248:14250   */\n      0x21\n        /* \"#utility.yul\":14243:14246   */\n      dup4\n        /* \"#utility.yul\":14184:14251   */\n      tag_158\n      jump\t// in\n    tag_319:\n        /* \"#utility.yul\":14177:14251   */\n      swap2\n      pop\n        /* \"#utility.yul\":14260:14353   */\n      tag_320\n        /* \"#utility.yul\":14349:14352   */\n      dup3\n        /* \"#utility.yul\":14260:14353   */\n      tag_174\n      jump\t// in\n    tag_320:\n        /* \"#utility.yul\":14378:14380   */\n      0x40\n        /* \"#utility.yul\":14373:14376   */\n      dup3\n        /* \"#utility.yul\":14369:14381   */\n      add\n        /* \"#utility.yul\":14362:14381   */\n      swap1\n      pop\n        /* \"#utility.yul\":14021:14387   */\n      swap2\n      swap1\n      pop\n      jump\t// out\n        /* \"#utility.yul\":14393:14812   */\n    tag_97:\n        /* \"#utility.yul\":14559:14563   */\n      0x00\n        /* \"#utility.yul\":14597:14599   */\n      0x20\n        /* \"#utility.yul\":14586:14595   */\n      dup3\n        /* \"#utility.yul\":14582:14600   */\n      add\n        /* \"#utility.yul\":14574:14600   */\n      swap1\n      pop\n        /* \"#utility.yul\":14646:14655   */\n      dup2\n        /* \"#utility.yul\":14640:14644   */\n      dup2\n        /* \"#utility.yul\":14636:14656   */\n      sub\n        /* \"#utility.yul\":14632:14633   */\n      0x00\n        /* \"#utility.yul\":14621:14630   */\n      dup4\n        /* \"#utility.yul\":14617:14634   */\n      add\n        /* \"#utility.yul\":14610:14657   */\n      mstore\n        /* \"#utility.yul\":14674:14805   */\n      tag_322\n        /* \"#utility.yul\":14800:14804   */\n      dup2\n        /* \"#utility.yul\":14674:14805   */\n      tag_175\n      jump\t// in\n    tag_322:\n        /* \"#utility.yul\":14666:14805   */\n      swap1\n      pop\n        /* \"#utility.yul\":14393:14812   */\n      swap2\n      swap1\n      pop\n      jump\t// out\n        /* \"#utility.yul\":14818:15123   */\n    tag_99:\n        /* \"#utility.yul\":14858:14861   */\n      0x00\n        /* \"#utility.yul\":14877:14897   */\n      tag_324\n        /* \"#utility.yul\":14895:14896   */\n      dup3\n        /* \"#utility.yul\":14877:14897   */\n      tag_135\n      jump\t// in\n    tag_324:\n        /* \"#utility.yul\":14872:14897   */\n      swap2\n      pop\n        /* \"#utility.yul\":14911:14931   */\n      tag_325\n        /* \"#utility.yul\":14929:14930   */\n      dup4\n        /* \"#utility.yul\":14911:14931   */\n      tag_135\n      jump\t// in\n    tag_325:\n        /* \"#utility.yul\":14906:14931   */\n      swap3\n      pop\n        /* \"#utility.yul\":15065:15066   */\n      dup3\n        /* \"#utility.yul\":14997:15063   */\n      0xffffffffffffffffffffffffffffffffffffffffffffffffffffffffffffffff\n        /* \"#utility.yul\":14993:15067   */\n      sub\n        /* \"#utility.yul\":14990:14991   */\n      dup3\n        /* \"#utility.yul\":14987:15068   */\n      gt\n        /* \"#utility.yul\":14984:15091   */\n      iszero\n      tag_326\n      jumpi\n        /* \"#utility.yul\":15071:15089   */\n      tag_327\n      tag_161\n      jump\t// in\n    tag_327:\n        /* \"#utility.yul\":14984:15091   */\n    tag_326:\n        /* \"#utility.yul\":15115:15116   */\n      dup3\n        /* \"#utility.yul\":15112:15113   */\n      dup3\n        /* \"#utility.yul\":15108:15117   */\n      add\n        /* \"#utility.yul\":15101:15117   */\n      swap1\n      pop\n        /* \"#utility.yul\":14818:15123   */\n      swap3\n      swap2\n      pop\n      pop\n      jump\t// out\n        /* \"#utility.yul\":15129:15358   */\n    tag_176:\n        /* \"#utility.yul\":15269:15303   */\n      0x456e6420646174652069732067726561746572207468616e206d6178696d756d\n        /* \"#utility.yul\":15265:15266   */\n      0x00\n        /* \"#utility.yul\":15257:15263   */\n      dup3\n        /* \"#utility.yul\":15253:15267   */\n      add\n        /* \"#utility.yul\":15246:15304   */\n      mstore\n        /* \"#utility.yul\":15338:15350   */\n      0x206475726174696f6e2100000000000000000000000000000000000000000000\n        /* \"#utility.yul\":15333:15335   */\n      0x20\n        /* \"#utility.yul\":15325:15331   */\n      dup3\n        /* \"#utility.yul\":15321:15336   */\n      add\n        /* \"#utility.yul\":15314:15351   */\n      mstore\n        /* \"#utility.yul\":15129:15358   */\n      pop\n      jump\t// out\n        /* \"#utility.yul\":15364:15730   */\n    tag_177:\n        /* \"#utility.yul\":15506:15509   */\n      0x00\n        /* \"#utility.yul\":15527:15594   */\n      tag_330\n        /* \"#utility.yul\":15591:15593   */\n      0x2a\n        /* \"#utility.yul\":15586:15589   */\n      dup4\n        /* \"#utility.yul\":15527:15594   */\n      tag_158\n      jump\t// in\n    tag_330:\n        /* \"#utility.yul\":15520:15594   */\n      swap2\n      pop\n        /* \"#utility.yul\":15603:15696   */\n      tag_331\n        /* \"#utility.yul\":15692:15695   */\n      dup3\n        /* \"#utility.yul\":15603:15696   */\n      tag_176\n      jump\t// in\n    tag_331:\n        /* \"#utility.yul\":15721:15723   */\n      0x40\n        /* \"#utility.yul\":15716:15719   */\n      dup3\n        /* \"#utility.yul\":15712:15724   */\n      add\n        /* \"#utility.yul\":15705:15724   */\n      swap1\n      pop\n        /* \"#utility.yul\":15364:15730   */\n      swap2\n      swap1\n      pop\n      jump\t// out\n        /* \"#utility.yul\":15736:16155   */\n    tag_102:\n        /* \"#utility.yul\":15902:15906   */\n      0x00\n        /* \"#utility.yul\":15940:15942   */\n      0x20\n        /* \"#utility.yul\":15929:15938   */\n      dup3\n        /* \"#utility.yul\":15925:15943   */\n      add\n        /* \"#utility.yul\":15917:15943   */\n      swap1\n      pop\n        /* \"#utility.yul\":15989:15998   */\n      dup2\n        /* \"#utility.yul\":15983:15987   */\n      dup2\n        /* \"#utility.yul\":15979:15999   */\n      sub\n        /* \"#utility.yul\":15975:15976   */\n      0x00\n        /* \"#utility.yul\":15964:15973   */\n      dup4\n        /* \"#utility.yul\":15960:15977   */\n      add\n        /* \"#utility.yul\":15953:16000   */\n      mstore\n        /* \"#utility.yul\":16017:16148   */\n      tag_333\n        /* \"#utility.yul\":16143:16147   */\n      dup2\n        /* \"#utility.yul\":16017:16148   */\n      tag_177\n      jump\t// in\n    tag_333:\n        /* \"#utility.yul\":16009:16148   */\n      swap1\n      pop\n        /* \"#utility.yul\":15736:16155   */\n      swap2\n      swap1\n      pop\n      jump\t// out\n        /* \"#utility.yul\":16161:16706   */\n    tag_105:\n        /* \"#utility.yul\":16334:16338   */\n      0x00\n        /* \"#utility.yul\":16372:16375   */\n      0x80\n        /* \"#utility.yul\":16361:16370   */\n      dup3\n        /* \"#utility.yul\":16357:16376   */\n      add\n        /* \"#utility.yul\":16349:16376   */\n      swap1\n      pop\n        /* \"#utility.yul\":16386:16457   */\n      tag_335\n        /* \"#utility.yul\":16454:16455   */\n      0x00\n        /* \"#utility.yul\":16443:16452   */\n      dup4\n        /* \"#utility.yul\":16439:16456   */\n      add\n        /* \"#utility.yul\":16430:16436   */\n      dup8\n        /* \"#utility.yul\":16386:16457   */\n      tag_136\n      jump\t// in\n    tag_335:\n        /* \"#utility.yul\":16467:16539   */\n      tag_336\n        /* \"#utility.yul\":16535:16537   */\n      0x20\n        /* \"#utility.yul\":16524:16533   */\n      dup4\n        /* \"#utility.yul\":16520:16538   */\n      add\n        /* \"#utility.yul\":16511:16517   */\n      dup7\n        /* \"#utility.yul\":16467:16539   */\n      tag_136\n      jump\t// in\n    tag_336:\n        /* \"#utility.yul\":16549:16619   */\n      tag_337\n        /* \"#utility.yul\":16615:16617   */\n      0x40\n        /* \"#utility.yul\":16604:16613   */\n      dup4\n        /* \"#utility.yul\":16600:16618   */\n      add\n        /* \"#utility.yul\":16591:16597   */\n      dup6\n        /* \"#utility.yul\":16549:16619   */\n      tag_146\n      jump\t// in\n    tag_337:\n        /* \"#utility.yul\":16629:16699   */\n      tag_338\n        /* \"#utility.yul\":16695:16697   */\n      0x60\n        /* \"#utility.yul\":16684:16693   */\n      dup4\n        /* \"#utility.yul\":16680:16698   */\n      add\n        /* \"#utility.yul\":16671:16677   */\n      dup5\n        /* \"#utility.yul\":16629:16699   */\n      tag_146\n      jump\t// in\n    tag_338:\n        /* \"#utility.yul\":16161:16706   */\n      swap6\n      swap5\n      pop\n      pop\n      pop\n      pop\n      pop\n      jump\t// out\n        /* \"#utility.yul\":16712:16885   */\n    tag_178:\n        /* \"#utility.yul\":16852:16877   */\n      0x43616d706169676e20656e64656420616c726561647921000000000000000000\n        /* \"#utility.yul\":16848:16849   */\n      0x00\n        /* \"#utility.yul\":16840:16846   */\n      dup3\n        /* \"#utility.yul\":16836:16850   */\n      add\n        /* \"#utility.yul\":16829:16878   */\n      mstore\n        /* \"#utility.yul\":16712:16885   */\n      pop\n      jump\t// out\n        /* \"#utility.yul\":16891:17257   */\n    tag_179:\n        /* \"#utility.yul\":17033:17036   */\n      0x00\n        /* \"#utility.yul\":17054:17121   */\n      tag_341\n        /* \"#utility.yul\":17118:17120   */\n      0x17\n        /* \"#utility.yul\":17113:17116   */\n      dup4\n        /* \"#utility.yul\":17054:17121   */\n      tag_158\n      jump\t// in\n    tag_341:\n        /* \"#utility.yul\":17047:17121   */\n      swap2\n      pop\n        /* \"#utility.yul\":17130:17223   */\n      tag_342\n        /* \"#utility.yul\":17219:17222   */\n      dup3\n        /* \"#utility.yul\":17130:17223   */\n      tag_178\n      jump\t// in\n    tag_342:\n        /* \"#utility.yul\":17248:17250   */\n      0x20\n        /* \"#utility.yul\":17243:17246   */\n      dup3\n        /* \"#utility.yul\":17239:17251   */\n      add\n        /* \"#utility.yul\":17232:17251   */\n      swap1\n      pop\n        /* \"#utility.yul\":16891:17257   */\n      swap2\n      swap1\n      pop\n      jump\t// out\n        /* \"#utility.yul\":17263:17682   */\n    tag_109:\n        /* \"#utility.yul\":17429:17433   */\n      0x00\n        /* \"#utility.yul\":17467:17469   */\n      0x20\n        /* \"#utility.yul\":17456:17465   */\n      dup3\n        /* \"#utility.yul\":17452:17470   */\n      add\n        /* \"#utility.yul\":17444:17470   */\n      swap1\n      pop\n        /* \"#utility.yul\":17516:17525   */\n      dup2\n        /* \"#utility.yul\":17510:17514   */\n      dup2\n        /* \"#utility.yul\":17506:17526   */\n      sub\n        /* \"#utility.yul\":17502:17503   */\n      0x00\n        /* \"#utility.yul\":17491:17500   */\n      dup4\n        /* \"#utility.yul\":17487:17504   */\n      add\n        /* \"#utility.yul\":17480:17527   */\n      mstore\n        /* \"#utility.yul\":17544:17675   */\n      tag_344\n        /* \"#utility.yul\":17670:17674   */\n      dup2\n        /* \"#utility.yul\":17544:17675   */\n      tag_179\n      jump\t// in\n    tag_344:\n        /* \"#utility.yul\":17536:17675   */\n      swap1\n      pop\n        /* \"#utility.yul\":17263:17682   */\n      swap2\n      swap1\n      pop\n      jump\t// out\n        /* \"#utility.yul\":17688:17869   */\n    tag_180:\n        /* \"#utility.yul\":17828:17861   */\n      0x416d6f756e742069732067726561746572207468616e206f6666657265642100\n        /* \"#utility.yul\":17824:17825   */\n      0x00\n        /* \"#utility.yul\":17816:17822   */\n      dup3\n        /* \"#utility.yul\":17812:17826   */\n      add\n        /* \"#utility.yul\":17805:17862   */\n      mstore\n        /* \"#utility.yul\":17688:17869   */\n      pop\n      jump\t// out\n        /* \"#utility.yul\":17875:18241   */\n    tag_181:\n        /* \"#utility.yul\":18017:18020   */\n      0x00\n        /* \"#utility.yul\":18038:18105   */\n      tag_347\n        /* \"#utility.yul\":18102:18104   */\n      0x1f\n        /* \"#utility.yul\":18097:18100   */\n      dup4\n        /* \"#utility.yul\":18038:18105   */\n      tag_158\n      jump\t// in\n    tag_347:\n        /* \"#utility.yul\":18031:18105   */\n      swap2\n      pop\n        /* \"#utility.yul\":18114:18207   */\n      tag_348\n        /* \"#utility.yul\":18203:18206   */\n      dup3\n        /* \"#utility.yul\":18114:18207   */\n      tag_180\n      jump\t// in\n    tag_348:\n        /* \"#utility.yul\":18232:18234   */\n      0x20\n        /* \"#utility.yul\":18227:18230   */\n      dup3\n        /* \"#utility.yul\":18223:18235   */\n      add\n        /* \"#utility.yul\":18216:18235   */\n      swap1\n      pop\n        /* \"#utility.yul\":17875:18241   */\n      swap2\n      swap1\n      pop\n      jump\t// out\n        /* \"#utility.yul\":18247:18666   */\n    tag_112:\n        /* \"#utility.yul\":18413:18417   */\n      0x00\n        /* \"#utility.yul\":18451:18453   */\n      0x20\n        /* \"#utility.yul\":18440:18449   */\n      dup3\n        /* \"#utility.yul\":18436:18454   */\n      add\n        /* \"#utility.yul\":18428:18454   */\n      swap1\n      pop\n        /* \"#utility.yul\":18500:18509   */\n      dup2\n        /* \"#utility.yul\":18494:18498   */\n      dup2\n        /* \"#utility.yul\":18490:18510   */\n      sub\n        /* \"#utility.yul\":18486:18487   */\n      0x00\n        /* \"#utility.yul\":18475:18484   */\n      dup4\n        /* \"#utility.yul\":18471:18488   */\n      add\n        /* \"#utility.yul\":18464:18511   */\n      mstore\n        /* \"#utility.yul\":18528:18659   */\n      tag_350\n        /* \"#utility.yul\":18654:18658   */\n      dup2\n        /* \"#utility.yul\":18528:18659   */\n      tag_181\n      jump\t// in\n    tag_350:\n        /* \"#utility.yul\":18520:18659   */\n      swap1\n      pop\n        /* \"#utility.yul\":18247:18666   */\n      swap2\n      swap1\n      pop\n      jump\t// out\n        /* \"#utility.yul\":18672:18863   */\n    tag_114:\n        /* \"#utility.yul\":18712:18716   */\n      0x00\n        /* \"#utility.yul\":18732:18752   */\n      tag_352\n        /* \"#utility.yul\":18750:18751   */\n      dup3\n        /* \"#utility.yul\":18732:18752   */\n      tag_135\n      jump\t// in\n    tag_352:\n        /* \"#utility.yul\":18727:18752   */\n      swap2\n      pop\n        /* \"#utility.yul\":18766:18786   */\n      tag_353\n        /* \"#utility.yul\":18784:18785   */\n      dup4\n        /* \"#utility.yul\":18766:18786   */\n      tag_135\n      jump\t// in\n    tag_353:\n        /* \"#utility.yul\":18761:18786   */\n      swap3\n      pop\n        /* \"#utility.yul\":18805:18806   */\n      dup3\n        /* \"#utility.yul\":18802:18803   */\n      dup3\n        /* \"#utility.yul\":18799:18807   */\n      lt\n        /* \"#utility.yul\":18796:18830   */\n      iszero\n      tag_354\n      jumpi\n        /* \"#utility.yul\":18810:18828   */\n      tag_355\n      tag_161\n      jump\t// in\n    tag_355:\n        /* \"#utility.yul\":18796:18830   */\n    tag_354:\n        /* \"#utility.yul\":18855:18856   */\n      dup3\n        /* \"#utility.yul\":18852:18853   */\n      dup3\n        /* \"#utility.yul\":18848:18857   */\n      sub\n        /* \"#utility.yul\":18840:18857   */\n      swap1\n      pop\n        /* \"#utility.yul\":18672:18863   */\n      swap3\n      swap2\n      pop\n      pop\n      jump\t// out\n        /* \"#utility.yul\":18869:19048   */\n    tag_182:\n        /* \"#utility.yul\":19009:19040   */\n      0x43616d706169676e20686173206e6f7420737461727465642079657421000000\n        /* \"#utility.yul\":19005:19006   */\n      0x00\n        /* \"#utility.yul\":18997:19003   */\n      dup3\n        /* \"#utility.yul\":18993:19007   */\n      add\n        /* \"#utility.yul\":18986:19041   */\n      mstore\n        /* \"#utility.yul\":18869:19048   */\n      pop\n      jump\t// out\n        /* \"#utility.yul\":19054:19420   */\n    tag_183:\n        /* \"#utility.yul\":19196:19199   */\n      0x00\n        /* \"#utility.yul\":19217:19284   */\n      tag_358\n        /* \"#utility.yul\":19281:19283   */\n      0x1d\n        /* \"#utility.yul\":19276:19279   */\n      dup4\n        /* \"#utility.yul\":19217:19284   */\n      tag_158\n      jump\t// in\n    tag_358:\n        /* \"#utility.yul\":19210:19284   */\n      swap2\n      pop\n        /* \"#utility.yul\":19293:19386   */\n      tag_359\n        /* \"#utility.yul\":19382:19385   */\n      dup3\n        /* \"#utility.yul\":19293:19386   */\n      tag_182\n      jump\t// in\n    tag_359:\n        /* \"#utility.yul\":19411:19413   */\n      0x20\n        /* \"#utility.yul\":19406:19409   */\n      dup3\n        /* \"#utility.yul\":19402:19414   */\n      add\n        /* \"#utility.yul\":19395:19414   */\n      swap1\n      pop\n        /* \"#utility.yul\":19054:19420   */\n      swap2\n      swap1\n      pop\n      jump\t// out\n        /* \"#utility.yul\":19426:19845   */\n    tag_124:\n        /* \"#utility.yul\":19592:19596   */\n      0x00\n        /* \"#utility.yul\":19630:19632   */\n      0x20\n        /* \"#utility.yul\":19619:19628   */\n      dup3\n        /* \"#utility.yul\":19615:19633   */\n      add\n        /* \"#utility.yul\":19607:19633   */\n      swap1\n      pop\n        /* \"#utility.yul\":19679:19688   */\n      dup2\n        /* \"#utility.yul\":19673:19677   */\n      dup2\n        /* \"#utility.yul\":19669:19689   */\n      sub\n        /* \"#utility.yul\":19665:19666   */\n      0x00\n        /* \"#utility.yul\":19654:19663   */\n      dup4\n        /* \"#utility.yul\":19650:19667   */\n      add\n        /* \"#utility.yul\":19643:19690   */\n      mstore\n        /* \"#utility.yul\":19707:19838   */\n      tag_361\n        /* \"#utility.yul\":19833:19837   */\n      dup2\n        /* \"#utility.yul\":19707:19838   */\n      tag_183\n      jump\t// in\n    tag_361:\n        /* \"#utility.yul\":19699:19838   */\n      swap1\n      pop\n        /* \"#utility.yul\":19426:19845   */\n      swap2\n      swap1\n      pop\n      jump\t// out\n        /* \"#utility.yul\":19851:20293   */\n    tag_130:\n        /* \"#utility.yul\":20000:20004   */\n      0x00\n        /* \"#utility.yul\":20038:20040   */\n      0x60\n        /* \"#utility.yul\":20027:20036   */\n      dup3\n        /* \"#utility.yul\":20023:20041   */\n      add\n        /* \"#utility.yul\":20015:20041   */\n      swap1\n      pop\n        /* \"#utility.yul\":20051:20122   */\n      tag_363\n        /* \"#utility.yul\":20119:20120   */\n      0x00\n        /* \"#utility.yul\":20108:20117   */\n      dup4\n        /* \"#utility.yul\":20104:20121   */\n      add\n        /* \"#utility.yul\":20095:20101   */\n      dup7\n        /* \"#utility.yul\":20051:20122   */\n      tag_144\n      jump\t// in\n    tag_363:\n        /* \"#utility.yul\":20132:20204   */\n      tag_364\n        /* \"#utility.yul\":20200:20202   */\n      0x20\n        /* \"#utility.yul\":20189:20198   */\n      dup4\n        /* \"#utility.yul\":20185:20203   */\n      add\n        /* \"#utility.yul\":20176:20182   */\n      dup6\n        /* \"#utility.yul\":20132:20204   */\n      tag_144\n      jump\t// in\n    tag_364:\n        /* \"#utility.yul\":20214:20286   */\n      tag_365\n        /* \"#utility.yul\":20282:20284   */\n      0x40\n        /* \"#utility.yul\":20271:20280   */\n      dup4\n        /* \"#utility.yul\":20267:20285   */\n      add\n        /* \"#utility.yul\":20258:20264   */\n      dup5\n        /* \"#utility.yul\":20214:20286   */\n      tag_136\n      jump\t// in\n    tag_365:\n        /* \"#utility.yul\":19851:20293   */\n      swap5\n      swap4\n      pop\n      pop\n      pop\n      pop\n      jump\t// out\n\n    auxdata: 0xa2646970667358221220a1ed758f3e3942eae421aac3ca44a2ae508ee572c832bd178c076f72c4074bdd64736f6c634300080d0033\n}\n",
				"bytecode": {
					"linkReferences": {},
					"object": "60a06040523480156200001157600080fd5b5060405162001e1738038062001e178339818101604052810190620000379190620000dc565b8073ffffffffffffffffffffffffffffffffffffffff1660808173ffffffffffffffffffffffffffffffffffffffff1681525050506200010e565b600080fd5b600073ffffffffffffffffffffffffffffffffffffffff82169050919050565b6000620000a48262000077565b9050919050565b620000b68162000097565b8114620000c257600080fd5b50565b600081519050620000d681620000ab565b92915050565b600060208284031215620000f557620000f462000072565b5b60006200010584828501620000c5565b91505092915050565b608051611cd162000146600039600081816104c10152818161074e01528181610eea0152818161113001526112250152611cd16000f3fe608060405234801561001057600080fd5b506004361061009e5760003560e01c806340e58ee51161006657806340e58ee51461015e5780635391efdf1461017a5780637db8112d14610196578063a1920586146101b2578063fc0c546a146101ce5761009e565b806306661abd146100a3578063141961bc146100c1578063278ecde1146100f657806335bae38614610112578063379607f514610142575b600080fd5b6100ab6101ec565b6040516100b89190611260565b60405180910390f35b6100db60048036038101906100d691906112ac565b6101f2565b6040516100ed96959493929190611354565b60405180910390f35b610110600480360381019061010b91906112ac565b61027b565b005b61012c600480360381019061012791906113e1565b6105b3565b6040516101399190611260565b60405180910390f35b61015c600480360381019061015791906112ac565b6105d8565b005b610178600480360381019061017391906112ac565b61084e565b005b610194600480360381019061018f919061144d565b610ac9565b005b6101b060048036038101906101ab91906114a0565b610d5f565b005b6101cc60048036038101906101c791906114a0565b610fdb565b005b6101d6611223565b6040516101e3919061153f565b60405180910390f35b60005481565b60016020528060005260406000206000915090508060000160009054906101000a900473ffffffffffffffffffffffffffffffffffffffff16908060010154908060020154908060030160009054906101000a900463ffffffff16908060030160049054906101000a900463ffffffff16908060030160089054906101000a900460ff16905086565b6000600160008381526020019081526020016000206040518060c00160405290816000820160009054906101000a900473ffffffffffffffffffffffffffffffffffffffff1673ffffffffffffffffffffffffffffffffffffffff1673ffffffffffffffffffffffffffffffffffffffff16815260200160018201548152602001600282015481526020016003820160009054906101000a900463ffffffff1663ffffffff1663ffffffff1681526020016003820160049054906101000a900463ffffffff1663ffffffff1663ffffffff1681526020016003820160089054906101000a900460ff1615151515815250509050806080015163ffffffff1642116103ba576040517f08c379a00000000000000000000000000000000000000000000000000000000081526004016103b1906115b7565b60405180910390fd5b620d2f0081608001516103cd9190611606565b63ffffffff164211610414576040517f08c379a000000000000000000000000000000000000000000000000000000000815260040161040b9061168c565b60405180910390fd5b60006002600084815260200190815260200160002060003373ffffffffffffffffffffffffffffffffffffffff1673ffffffffffffffffffffffffffffffffffffffff16815260200190815260200160002054905060006002600085815260200190815260200160002060003373ffffffffffffffffffffffffffffffffffffffff1673ffffffffffffffffffffffffffffffffffffffff168152602001908152602001600020819055507f000000000000000000000000000000000000000000000000000000000000000073ffffffffffffffffffffffffffffffffffffffff1663a9059cbb33836040518363ffffffff1660e01b815260040161051a9291906116ac565b6020604051808303816000875af1158015610539573d6000803e3d6000fd5b505050506040513d601f19601f8201168201806040525081019061055d9190611701565b503373ffffffffffffffffffffffffffffffffffffffff167f21e12a7cad0da5928167e1084ea4d5fdf8d9af66657a2543a9ac76a0ca08147784836040516105a692919061172e565b60405180910390a2505050565b6002602052816000526040600020602052806000526040600020600091509150505481565b60006001600083815260200190815260200160002090503373ffffffffffffffffffffffffffffffffffffffff168160000160009054906101000a900473ffffffffffffffffffffffffffffffffffffffff1673ffffffffffffffffffffffffffffffffffffffff1614610681576040517f08c379a0000000000000000000000000000000000000000000000000000000008152600401610678906117a3565b60405180910390fd5b8060030160049054906101000a900463ffffffff1663ffffffff1642116106dd576040517f08c379a00000000000000000000000000000000000000000000000000000000081526004016106d4906115b7565b60405180910390fd5b8060030160089054906101000a900460ff161561072f576040517f08c379a00000000000000000000000000000000000000000000000000000000081526004016107269061180f565b60405180910390fd5b60018160030160086101000a81548160ff0219169083151502179055507f000000000000000000000000000000000000000000000000000000000000000073ffffffffffffffffffffffffffffffffffffffff1663a9059cbb8260000160009054906101000a900473ffffffffffffffffffffffffffffffffffffffff1683600201546040518363ffffffff1660e01b81526004016107cf9291906116ac565b6020604051808303816000875af11580156107ee573d6000803e3d6000fd5b505050506040513d601f19601f820116820180604052508101906108129190611701565b507f7bb2b3c10797baccb6f8c4791f1edd6ca2f0d028ee0eda64b01a9a57e3a653f7826040516108429190611260565b60405180910390a15050565b6000600160008381526020019081526020016000206040518060c00160405290816000820160009054906101000a900473ffffffffffffffffffffffffffffffffffffffff1673ffffffffffffffffffffffffffffffffffffffff1673ffffffffffffffffffffffffffffffffffffffff16815260200160018201548152602001600282015481526020016003820160009054906101000a900463ffffffff1663ffffffff1663ffffffff1681526020016003820160049054906101000a900463ffffffff1663ffffffff1663ffffffff1681526020016003820160089054906101000a900460ff16151515158152505090503373ffffffffffffffffffffffffffffffffffffffff16816000015173ffffffffffffffffffffffffffffffffffffffff16146109b3576040517f08c379a00000000000000000000000000000000000000000000000000000000081526004016109aa906117a3565b60405180910390fd5b806060015163ffffffff1642106109ff576040517f08c379a00000000000000000000000000000000000000000000000000000000081526004016109f69061187b565b60405180910390fd5b60016000838152602001908152602001600020600080820160006101000a81549073ffffffffffffffffffffffffffffffffffffffff0219169055600182016000905560028201600090556003820160006101000a81549063ffffffff02191690556003820160046101000a81549063ffffffff02191690556003820160086101000a81549060ff021916905550507f8bf30e7ff26833413be5f69e1d373744864d600b664204b4a2f9844a8eedb9ed82604051610abd9190611260565b60405180910390a15050565b428263ffffffff161015610b12576040517f08c379a0000000000000000000000000000000000000000000000000000000008152600401610b099061190d565b60405180910390fd5b8163ffffffff168163ffffffff161015610b61576040517f08c379a0000000000000000000000000000000000000000000000000000000008152600401610b589061199f565b60405180910390fd5b6276a70042610b7091906119bf565b8163ffffffff161115610bb8576040517f08c379a0000000000000000000000000000000000000000000000000000000008152600401610baf90611a87565b60405180910390fd5b6001600080828254610bca91906119bf565b925050819055506040518060c001604052803373ffffffffffffffffffffffffffffffffffffffff168152602001848152602001600081526020018363ffffffff1681526020018263ffffffff16815260200160001515815250600160008054815260200190815260200160002060008201518160000160006101000a81548173ffffffffffffffffffffffffffffffffffffffff021916908373ffffffffffffffffffffffffffffffffffffffff160217905550602082015181600101556040820151816002015560608201518160030160006101000a81548163ffffffff021916908363ffffffff16021790555060808201518160030160046101000a81548163ffffffff021916908363ffffffff16021790555060a08201518160030160086101000a81548160ff0219169083151502179055509050503373ffffffffffffffffffffffffffffffffffffffff167f6a7ebc88243075c8056f425cdb93a8a12757317309fa24f688cade08ff4b4caa600054858585604051610d529493929190611aa7565b60405180910390a2505050565b60006001600084815260200190815260200160002090508060030160049054906101000a900463ffffffff1663ffffffff16421115610dd3576040517f08c379a0000000000000000000000000000000000000000000000000000000008152600401610dca90611b38565b60405180910390fd5b816002600085815260200190815260200160002060003373ffffffffffffffffffffffffffffffffffffffff1673ffffffffffffffffffffffffffffffffffffffff168152602001908152602001600020541015610e66576040517f08c379a0000000000000000000000000000000000000000000000000000000008152600401610e5d90611ba4565b60405180910390fd5b81816002016000828254610e7a9190611bc4565b92505081905550816002600085815260200190815260200160002060003373ffffffffffffffffffffffffffffffffffffffff1673ffffffffffffffffffffffffffffffffffffffff1681526020019081526020016000206000828254610ee19190611bc4565b925050819055507f000000000000000000000000000000000000000000000000000000000000000073ffffffffffffffffffffffffffffffffffffffff1663a9059cbb33846040518363ffffffff1660e01b8152600401610f439291906116ac565b6020604051808303816000875af1158015610f62573d6000803e3d6000fd5b505050506040513d601f19601f82011682018060405250810190610f869190611701565b503373ffffffffffffffffffffffffffffffffffffffff16837fc8de90742edca0e8667d211f018ed3f48f3bdb85b82942bd5f74683a4818cc3484604051610fce9190611260565b60405180910390a3505050565b60006001600084815260200190815260200160002090508060030160009054906101000a900463ffffffff1663ffffffff1642101561104f576040517f08c379a000000000000000000000000000000000000000000000000000000000815260040161104690611c44565b60405180910390fd5b8060030160049054906101000a900463ffffffff1663ffffffff164211156110ac576040517f08c379a00000000000000000000000000000000000000000000000000000000081526004016110a390611b38565b60405180910390fd5b818160020160008282546110c091906119bf565b92505081905550816002600085815260200190815260200160002060003373ffffffffffffffffffffffffffffffffffffffff1673ffffffffffffffffffffffffffffffffffffffff168152602001908152602001600020600082825461112791906119bf565b925050819055507f000000000000000000000000000000000000000000000000000000000000000073ffffffffffffffffffffffffffffffffffffffff166323b872dd3330856040518463ffffffff1660e01b815260040161118b93929190611c64565b6020604051808303816000875af11580156111aa573d6000803e3d6000fd5b505050506040513d601f19601f820116820180604052508101906111ce9190611701565b503373ffffffffffffffffffffffffffffffffffffffff16837f2d57124cfa4e385afd5cc9d6f24874bdd21303ac9131d7cb674be2a5855c7002846040516112169190611260565b60405180910390a3505050565b7f000000000000000000000000000000000000000000000000000000000000000081565b6000819050919050565b61125a81611247565b82525050565b60006020820190506112756000830184611251565b92915050565b600080fd5b61128981611247565b811461129457600080fd5b50565b6000813590506112a681611280565b92915050565b6000602082840312156112c2576112c161127b565b5b60006112d084828501611297565b91505092915050565b600073ffffffffffffffffffffffffffffffffffffffff82169050919050565b6000611304826112d9565b9050919050565b611314816112f9565b82525050565b600063ffffffff82169050919050565b6113338161131a565b82525050565b60008115159050919050565b61134e81611339565b82525050565b600060c082019050611369600083018961130b565b6113766020830188611251565b6113836040830187611251565b611390606083018661132a565b61139d608083018561132a565b6113aa60a0830184611345565b979650505050505050565b6113be816112f9565b81146113c957600080fd5b50565b6000813590506113db816113b5565b92915050565b600080604083850312156113f8576113f761127b565b5b600061140685828601611297565b9250506020611417858286016113cc565b9150509250929050565b61142a8161131a565b811461143557600080fd5b50565b60008135905061144781611421565b92915050565b6000806000606084860312156114665761146561127b565b5b600061147486828701611297565b935050602061148586828701611438565b925050604061149686828701611438565b9150509250925092565b600080604083850312156114b7576114b661127b565b5b60006114c585828601611297565b92505060206114d685828601611297565b9150509250929050565b6000819050919050565b60006115056115006114fb846112d9565b6114e0565b6112d9565b9050919050565b6000611517826114ea565b9050919050565b60006115298261150c565b9050919050565b6115398161151e565b82525050565b60006020820190506115546000830184611530565b92915050565b600082825260208201905092915050565b7f43616d706169676e20686173206e6f7420656e64656420796574210000000000600082015250565b60006115a1601b8361155a565b91506115ac8261156b565b602082019050919050565b600060208201905081810360008301526115d081611594565b9050919050565b7f4e487b7100000000000000000000000000000000000000000000000000000000600052601160045260246000fd5b60006116118261131a565b915061161c8361131a565b92508263ffffffff03821115611635576116346115d7565b5b828201905092915050565b7f43616d706169676e20686173206e6f7420657870697265642079657421000000600082015250565b6000611676601d8361155a565b915061168182611640565b602082019050919050565b600060208201905081810360008301526116a581611669565b9050919050565b60006040820190506116c1600083018561130b565b6116ce6020830184611251565b9392505050565b6116de81611339565b81146116e957600080fd5b50565b6000815190506116fb816116d5565b92915050565b6000602082840312156117175761171661127b565b5b6000611725848285016116ec565b91505092915050565b60006040820190506117436000830185611251565b6117506020830184611251565b9392505050565b7f53656e646572206973206e6f74207468652063726561746f7221000000000000600082015250565b600061178d601a8361155a565b915061179882611757565b602082019050919050565b600060208201905081810360008301526117bc81611780565b9050919050565b7f446f6e6174696f6e20697320616c726561647920636c61696d65642100000000600082015250565b60006117f9601c8361155a565b9150611804826117c3565b602082019050919050565b60006020820190508181036000830152611828816117ec565b9050919050565b7f43616d706169676e20616c726561647920737461727465642100000000000000600082015250565b600061186560198361155a565b91506118708261182f565b602082019050919050565b6000602082019050818103600083015261189481611858565b9050919050565b7f53746172742064617465206973206c657373207468616e2063757272656e742060008201527f6461746521000000000000000000000000000000000000000000000000000000602082015250565b60006118f760258361155a565b91506119028261189b565b604082019050919050565b60006020820190508181036000830152611926816118ea565b9050919050565b7f456e642064617465206973206c657373207468616e207374617274206461746560008201527f2100000000000000000000000000000000000000000000000000000000000000602082015250565b600061198960218361155a565b91506119948261192d565b604082019050919050565b600060208201905081810360008301526119b88161197c565b9050919050565b60006119ca82611247565b91506119d583611247565b9250827fffffffffffffffffffffffffffffffffffffffffffffffffffffffffffffffff03821115611a0a57611a096115d7565b5b828201905092915050565b7f456e6420646174652069732067726561746572207468616e206d6178696d756d60008201527f206475726174696f6e2100000000000000000000000000000000000000000000602082015250565b6000611a71602a8361155a565b9150611a7c82611a15565b604082019050919050565b60006020820190508181036000830152611aa081611a64565b9050919050565b6000608082019050611abc6000830187611251565b611ac96020830186611251565b611ad6604083018561132a565b611ae3606083018461132a565b95945050505050565b7f43616d706169676e20656e64656420616c726561647921000000000000000000600082015250565b6000611b2260178361155a565b9150611b2d82611aec565b602082019050919050565b60006020820190508181036000830152611b5181611b15565b9050919050565b7f416d6f756e742069732067726561746572207468616e206f6666657265642100600082015250565b6000611b8e601f8361155a565b9150611b9982611b58565b602082019050919050565b60006020820190508181036000830152611bbd81611b81565b9050919050565b6000611bcf82611247565b9150611bda83611247565b925082821015611bed57611bec6115d7565b5b828203905092915050565b7f43616d706169676e20686173206e6f7420737461727465642079657421000000600082015250565b6000611c2e601d8361155a565b9150611c3982611bf8565b602082019050919050565b60006020820190508181036000830152611c5d81611c21565b9050919050565b6000606082019050611c79600083018661130b565b611c86602083018561130b565b611c936040830184611251565b94935050505056fea2646970667358221220a1ed758f3e3942eae421aac3ca44a2ae508ee572c832bd178c076f72c4074bdd64736f6c634300080d0033",
					"opcodes": "PUSH1 0xA0 PUSH1 0x40 MSTORE CALLVALUE DUP1 ISZERO PUSH3 0x11 JUMPI PUSH1 0x0 DUP1 REVERT JUMPDEST POP PUSH1 0x40 MLOAD PUSH3 0x1E17 CODESIZE SUB DUP1 PUSH3 0x1E17 DUP4 CODECOPY DUP2 DUP2 ADD PUSH1 0x40 MSTORE DUP2 ADD SWAP1 PUSH3 0x37 SWAP2 SWAP1 PUSH3 0xDC JUMP JUMPDEST DUP1 PUSH20 0xFFFFFFFFFFFFFFFFFFFFFFFFFFFFFFFFFFFFFFFF AND PUSH1 0x80 DUP2 PUSH20 0xFFFFFFFFFFFFFFFFFFFFFFFFFFFFFFFFFFFFFFFF AND DUP2 MSTORE POP POP POP PUSH3 0x10E JUMP JUMPDEST PUSH1 0x0 DUP1 REVERT JUMPDEST PUSH1 0x0 PUSH20 0xFFFFFFFFFFFFFFFFFFFFFFFFFFFFFFFFFFFFFFFF DUP3 AND SWAP1 POP SWAP2 SWAP1 POP JUMP JUMPDEST PUSH1 0x0 PUSH3 0xA4 DUP3 PUSH3 0x77 JUMP JUMPDEST SWAP1 POP SWAP2 SWAP1 POP JUMP JUMPDEST PUSH3 0xB6 DUP2 PUSH3 0x97 JUMP JUMPDEST DUP2 EQ PUSH3 0xC2 JUMPI PUSH1 0x0 DUP1 REVERT JUMPDEST POP JUMP JUMPDEST PUSH1 0x0 DUP2 MLOAD SWAP1 POP PUSH3 0xD6 DUP2 PUSH3 0xAB JUMP JUMPDEST SWAP3 SWAP2 POP POP JUMP JUMPDEST PUSH1 0x0 PUSH1 0x20 DUP3 DUP5 SUB SLT ISZERO PUSH3 0xF5 JUMPI PUSH3 0xF4 PUSH3 0x72 JUMP JUMPDEST JUMPDEST PUSH1 0x0 PUSH3 0x105 DUP5 DUP3 DUP6 ADD PUSH3 0xC5 JUMP JUMPDEST SWAP2 POP POP SWAP3 SWAP2 POP POP JUMP JUMPDEST PUSH1 0x80 MLOAD PUSH2 0x1CD1 PUSH3 0x146 PUSH1 0x0 CODECOPY PUSH1 0x0 DUP2 DUP2 PUSH2 0x4C1 ADD MSTORE DUP2 DUP2 PUSH2 0x74E ADD MSTORE DUP2 DUP2 PUSH2 0xEEA ADD MSTORE DUP2 DUP2 PUSH2 0x1130 ADD MSTORE PUSH2 0x1225 ADD MSTORE PUSH2 0x1CD1 PUSH1 0x0 RETURN INVALID PUSH1 0x80 PUSH1 0x40 MSTORE CALLVALUE DUP1 ISZERO PUSH2 0x10 JUMPI PUSH1 0x0 DUP1 REVERT JUMPDEST POP PUSH1 0x4 CALLDATASIZE LT PUSH2 0x9E JUMPI PUSH1 0x0 CALLDATALOAD PUSH1 0xE0 SHR DUP1 PUSH4 0x40E58EE5 GT PUSH2 0x66 JUMPI DUP1 PUSH4 0x40E58EE5 EQ PUSH2 0x15E JUMPI DUP1 PUSH4 0x5391EFDF EQ PUSH2 0x17A JUMPI DUP1 PUSH4 0x7DB8112D EQ PUSH2 0x196 JUMPI DUP1 PUSH4 0xA1920586 EQ PUSH2 0x1B2 JUMPI DUP1 PUSH4 0xFC0C546A EQ PUSH2 0x1CE JUMPI PUSH2 0x9E JUMP JUMPDEST DUP1 PUSH4 0x6661ABD EQ PUSH2 0xA3 JUMPI DUP1 PUSH4 0x141961BC EQ PUSH2 0xC1 JUMPI DUP1 PUSH4 0x278ECDE1 EQ PUSH2 0xF6 JUMPI DUP1 PUSH4 0x35BAE386 EQ PUSH2 0x112 JUMPI DUP1 PUSH4 0x379607F5 EQ PUSH2 0x142 JUMPI JUMPDEST PUSH1 0x0 DUP1 REVERT JUMPDEST PUSH2 0xAB PUSH2 0x1EC JUMP JUMPDEST PUSH1 0x40 MLOAD PUSH2 0xB8 SWAP2 SWAP1 PUSH2 0x1260 JUMP JUMPDEST PUSH1 0x40 MLOAD DUP1 SWAP2 SUB SWAP1 RETURN JUMPDEST PUSH2 0xDB PUSH1 0x4 DUP1 CALLDATASIZE SUB DUP2 ADD SWAP1 PUSH2 0xD6 SWAP2 SWAP1 PUSH2 0x12AC JUMP JUMPDEST PUSH2 0x1F2 JUMP JUMPDEST PUSH1 0x40 MLOAD PUSH2 0xED SWAP7 SWAP6 SWAP5 SWAP4 SWAP3 SWAP2 SWAP1 PUSH2 0x1354 JUMP JUMPDEST PUSH1 0x40 MLOAD DUP1 SWAP2 SUB SWAP1 RETURN JUMPDEST PUSH2 0x110 PUSH1 0x4 DUP1 CALLDATASIZE SUB DUP2 ADD SWAP1 PUSH2 0x10B SWAP2 SWAP1 PUSH2 0x12AC JUMP JUMPDEST PUSH2 0x27B JUMP JUMPDEST STOP JUMPDEST PUSH2 0x12C PUSH1 0x4 DUP1 CALLDATASIZE SUB DUP2 ADD SWAP1 PUSH2 0x127 SWAP2 SWAP1 PUSH2 0x13E1 JUMP JUMPDEST PUSH2 0x5B3 JUMP JUMPDEST PUSH1 0x40 MLOAD PUSH2 0x139 SWAP2 SWAP1 PUSH2 0x1260 JUMP JUMPDEST PUSH1 0x40 MLOAD DUP1 SWAP2 SUB SWAP1 RETURN JUMPDEST PUSH2 0x15C PUSH1 0x4 DUP1 CALLDATASIZE SUB DUP2 ADD SWAP1 PUSH2 0x157 SWAP2 SWAP1 PUSH2 0x12AC JUMP JUMPDEST PUSH2 0x5D8 JUMP JUMPDEST STOP JUMPDEST PUSH2 0x178 PUSH1 0x4 DUP1 CALLDATASIZE SUB DUP2 ADD SWAP1 PUSH2 0x173 SWAP2 SWAP1 PUSH2 0x12AC JUMP JUMPDEST PUSH2 0x84E JUMP JUMPDEST STOP JUMPDEST PUSH2 0x194 PUSH1 0x4 DUP1 CALLDATASIZE SUB DUP2 ADD SWAP1 PUSH2 0x18F SWAP2 SWAP1 PUSH2 0x144D JUMP JUMPDEST PUSH2 0xAC9 JUMP JUMPDEST STOP JUMPDEST PUSH2 0x1B0 PUSH1 0x4 DUP1 CALLDATASIZE SUB DUP2 ADD SWAP1 PUSH2 0x1AB SWAP2 SWAP1 PUSH2 0x14A0 JUMP JUMPDEST PUSH2 0xD5F JUMP JUMPDEST STOP JUMPDEST PUSH2 0x1CC PUSH1 0x4 DUP1 CALLDATASIZE SUB DUP2 ADD SWAP1 PUSH2 0x1C7 SWAP2 SWAP1 PUSH2 0x14A0 JUMP JUMPDEST PUSH2 0xFDB JUMP JUMPDEST STOP JUMPDEST PUSH2 0x1D6 PUSH2 0x1223 JUMP JUMPDEST PUSH1 0x40 MLOAD PUSH2 0x1E3 SWAP2 SWAP1 PUSH2 0x153F JUMP JUMPDEST PUSH1 0x40 MLOAD DUP1 SWAP2 SUB SWAP1 RETURN JUMPDEST PUSH1 0x0 SLOAD DUP2 JUMP JUMPDEST PUSH1 0x1 PUSH1 0x20 MSTORE DUP1 PUSH1 0x0 MSTORE PUSH1 0x40 PUSH1 0x0 KECCAK256 PUSH1 0x0 SWAP2 POP SWAP1 POP DUP1 PUSH1 0x0 ADD PUSH1 0x0 SWAP1 SLOAD SWAP1 PUSH2 0x100 EXP SWAP1 DIV PUSH20 0xFFFFFFFFFFFFFFFFFFFFFFFFFFFFFFFFFFFFFFFF AND SWAP1 DUP1 PUSH1 0x1 ADD SLOAD SWAP1 DUP1 PUSH1 0x2 ADD SLOAD SWAP1 DUP1 PUSH1 0x3 ADD PUSH1 0x0 SWAP1 SLOAD SWAP1 PUSH2 0x100 EXP SWAP1 DIV PUSH4 0xFFFFFFFF AND SWAP1 DUP1 PUSH1 0x3 ADD PUSH1 0x4 SWAP1 SLOAD SWAP1 PUSH2 0x100 EXP SWAP1 DIV PUSH4 0xFFFFFFFF AND SWAP1 DUP1 PUSH1 0x3 ADD PUSH1 0x8 SWAP1 SLOAD SWAP1 PUSH2 0x100 EXP SWAP1 DIV PUSH1 0xFF AND SWAP1 POP DUP7 JUMP JUMPDEST PUSH1 0x0 PUSH1 0x1 PUSH1 0x0 DUP4 DUP2 MSTORE PUSH1 0x20 ADD SWAP1 DUP2 MSTORE PUSH1 0x20 ADD PUSH1 0x0 KECCAK256 PUSH1 0x40 MLOAD DUP1 PUSH1 0xC0 ADD PUSH1 0x40 MSTORE SWAP1 DUP2 PUSH1 0x0 DUP3 ADD PUSH1 0x0 SWAP1 SLOAD SWAP1 PUSH2 0x100 EXP SWAP1 DIV PUSH20 0xFFFFFFFFFFFFFFFFFFFFFFFFFFFFFFFFFFFFFFFF AND PUSH20 0xFFFFFFFFFFFFFFFFFFFFFFFFFFFFFFFFFFFFFFFF AND PUSH20 0xFFFFFFFFFFFFFFFFFFFFFFFFFFFFFFFFFFFFFFFF AND DUP2 MSTORE PUSH1 0x20 ADD PUSH1 0x1 DUP3 ADD SLOAD DUP2 MSTORE PUSH1 0x20 ADD PUSH1 0x2 DUP3 ADD SLOAD DUP2 MSTORE PUSH1 0x20 ADD PUSH1 0x3 DUP3 ADD PUSH1 0x0 SWAP1 SLOAD SWAP1 PUSH2 0x100 EXP SWAP1 DIV PUSH4 0xFFFFFFFF AND PUSH4 0xFFFFFFFF AND PUSH4 0xFFFFFFFF AND DUP2 MSTORE PUSH1 0x20 ADD PUSH1 0x3 DUP3 ADD PUSH1 0x4 SWAP1 SLOAD SWAP1 PUSH2 0x100 EXP SWAP1 DIV PUSH4 0xFFFFFFFF AND PUSH4 0xFFFFFFFF AND PUSH4 0xFFFFFFFF AND DUP2 MSTORE PUSH1 0x20 ADD PUSH1 0x3 DUP3 ADD PUSH1 0x8 SWAP1 SLOAD SWAP1 PUSH2 0x100 EXP SWAP1 DIV PUSH1 0xFF AND ISZERO ISZERO ISZERO ISZERO DUP2 MSTORE POP POP SWAP1 POP DUP1 PUSH1 0x80 ADD MLOAD PUSH4 0xFFFFFFFF AND TIMESTAMP GT PUSH2 0x3BA JUMPI PUSH1 0x40 MLOAD PUSH32 0x8C379A000000000000000000000000000000000000000000000000000000000 DUP2 MSTORE PUSH1 0x4 ADD PUSH2 0x3B1 SWAP1 PUSH2 0x15B7 JUMP JUMPDEST PUSH1 0x40 MLOAD DUP1 SWAP2 SUB SWAP1 REVERT JUMPDEST PUSH3 0xD2F00 DUP2 PUSH1 0x80 ADD MLOAD PUSH2 0x3CD SWAP2 SWAP1 PUSH2 0x1606 JUMP JUMPDEST PUSH4 0xFFFFFFFF AND TIMESTAMP GT PUSH2 0x414 JUMPI PUSH1 0x40 MLOAD PUSH32 0x8C379A000000000000000000000000000000000000000000000000000000000 DUP2 MSTORE PUSH1 0x4 ADD PUSH2 0x40B SWAP1 PUSH2 0x168C JUMP JUMPDEST PUSH1 0x40 MLOAD DUP1 SWAP2 SUB SWAP1 REVERT JUMPDEST PUSH1 0x0 PUSH1 0x2 PUSH1 0x0 DUP5 DUP2 MSTORE PUSH1 0x20 ADD SWAP1 DUP2 MSTORE PUSH1 0x20 ADD PUSH1 0x0 KECCAK256 PUSH1 0x0 CALLER PUSH20 0xFFFFFFFFFFFFFFFFFFFFFFFFFFFFFFFFFFFFFFFF AND PUSH20 0xFFFFFFFFFFFFFFFFFFFFFFFFFFFFFFFFFFFFFFFF AND DUP2 MSTORE PUSH1 0x20 ADD SWAP1 DUP2 MSTORE PUSH1 0x20 ADD PUSH1 0x0 KECCAK256 SLOAD SWAP1 POP PUSH1 0x0 PUSH1 0x2 PUSH1 0x0 DUP6 DUP2 MSTORE PUSH1 0x20 ADD SWAP1 DUP2 MSTORE PUSH1 0x20 ADD PUSH1 0x0 KECCAK256 PUSH1 0x0 CALLER PUSH20 0xFFFFFFFFFFFFFFFFFFFFFFFFFFFFFFFFFFFFFFFF AND PUSH20 0xFFFFFFFFFFFFFFFFFFFFFFFFFFFFFFFFFFFFFFFF AND DUP2 MSTORE PUSH1 0x20 ADD SWAP1 DUP2 MSTORE PUSH1 0x20 ADD PUSH1 0x0 KECCAK256 DUP2 SWAP1 SSTORE POP PUSH32 0x0 PUSH20 0xFFFFFFFFFFFFFFFFFFFFFFFFFFFFFFFFFFFFFFFF AND PUSH4 0xA9059CBB CALLER DUP4 PUSH1 0x40 MLOAD DUP4 PUSH4 0xFFFFFFFF AND PUSH1 0xE0 SHL DUP2 MSTORE PUSH1 0x4 ADD PUSH2 0x51A SWAP3 SWAP2 SWAP1 PUSH2 0x16AC JUMP JUMPDEST PUSH1 0x20 PUSH1 0x40 MLOAD DUP1 DUP4 SUB DUP2 PUSH1 0x0 DUP8 GAS CALL ISZERO DUP1 ISZERO PUSH2 0x539 JUMPI RETURNDATASIZE PUSH1 0x0 DUP1 RETURNDATACOPY RETURNDATASIZE PUSH1 0x0 REVERT JUMPDEST POP POP POP POP PUSH1 0x40 MLOAD RETURNDATASIZE PUSH1 0x1F NOT PUSH1 0x1F DUP3 ADD AND DUP3 ADD DUP1 PUSH1 0x40 MSTORE POP DUP2 ADD SWAP1 PUSH2 0x55D SWAP2 SWAP1 PUSH2 0x1701 JUMP JUMPDEST POP CALLER PUSH20 0xFFFFFFFFFFFFFFFFFFFFFFFFFFFFFFFFFFFFFFFF AND PUSH32 0x21E12A7CAD0DA5928167E1084EA4D5FDF8D9AF66657A2543A9AC76A0CA081477 DUP5 DUP4 PUSH1 0x40 MLOAD PUSH2 0x5A6 SWAP3 SWAP2 SWAP1 PUSH2 0x172E JUMP JUMPDEST PUSH1 0x40 MLOAD DUP1 SWAP2 SUB SWAP1 LOG2 POP POP POP JUMP JUMPDEST PUSH1 0x2 PUSH1 0x20 MSTORE DUP2 PUSH1 0x0 MSTORE PUSH1 0x40 PUSH1 0x0 KECCAK256 PUSH1 0x20 MSTORE DUP1 PUSH1 0x0 MSTORE PUSH1 0x40 PUSH1 0x0 KECCAK256 PUSH1 0x0 SWAP2 POP SWAP2 POP POP SLOAD DUP2 JUMP JUMPDEST PUSH1 0x0 PUSH1 0x1 PUSH1 0x0 DUP4 DUP2 MSTORE PUSH1 0x20 ADD SWAP1 DUP2 MSTORE PUSH1 0x20 ADD PUSH1 0x0 KECCAK256 SWAP1 POP CALLER PUSH20 0xFFFFFFFFFFFFFFFFFFFFFFFFFFFFFFFFFFFFFFFF AND DUP2 PUSH1 0x0 ADD PUSH1 0x0 SWAP1 SLOAD SWAP1 PUSH2 0x100 EXP SWAP1 DIV PUSH20 0xFFFFFFFFFFFFFFFFFFFFFFFFFFFFFFFFFFFFFFFF AND PUSH20 0xFFFFFFFFFFFFFFFFFFFFFFFFFFFFFFFFFFFFFFFF AND EQ PUSH2 0x681 JUMPI PUSH1 0x40 MLOAD PUSH32 0x8C379A000000000000000000000000000000000000000000000000000000000 DUP2 MSTORE PUSH1 0x4 ADD PUSH2 0x678 SWAP1 PUSH2 0x17A3 JUMP JUMPDEST PUSH1 0x40 MLOAD DUP1 SWAP2 SUB SWAP1 REVERT JUMPDEST DUP1 PUSH1 0x3 ADD PUSH1 0x4 SWAP1 SLOAD SWAP1 PUSH2 0x100 EXP SWAP1 DIV PUSH4 0xFFFFFFFF AND PUSH4 0xFFFFFFFF AND TIMESTAMP GT PUSH2 0x6DD JUMPI PUSH1 0x40 MLOAD PUSH32 0x8C379A000000000000000000000000000000000000000000000000000000000 DUP2 MSTORE PUSH1 0x4 ADD PUSH2 0x6D4 SWAP1 PUSH2 0x15B7 JUMP JUMPDEST PUSH1 0x40 MLOAD DUP1 SWAP2 SUB SWAP1 REVERT JUMPDEST DUP1 PUSH1 0x3 ADD PUSH1 0x8 SWAP1 SLOAD SWAP1 PUSH2 0x100 EXP SWAP1 DIV PUSH1 0xFF AND ISZERO PUSH2 0x72F JUMPI PUSH1 0x40 MLOAD PUSH32 0x8C379A000000000000000000000000000000000000000000000000000000000 DUP2 MSTORE PUSH1 0x4 ADD PUSH2 0x726 SWAP1 PUSH2 0x180F JUMP JUMPDEST PUSH1 0x40 MLOAD DUP1 SWAP2 SUB SWAP1 REVERT JUMPDEST PUSH1 0x1 DUP2 PUSH1 0x3 ADD PUSH1 0x8 PUSH2 0x100 EXP DUP2 SLOAD DUP2 PUSH1 0xFF MUL NOT AND SWAP1 DUP4 ISZERO ISZERO MUL OR SWAP1 SSTORE POP PUSH32 0x0 PUSH20 0xFFFFFFFFFFFFFFFFFFFFFFFFFFFFFFFFFFFFFFFF AND PUSH4 0xA9059CBB DUP3 PUSH1 0x0 ADD PUSH1 0x0 SWAP1 SLOAD SWAP1 PUSH2 0x100 EXP SWAP1 DIV PUSH20 0xFFFFFFFFFFFFFFFFFFFFFFFFFFFFFFFFFFFFFFFF AND DUP4 PUSH1 0x2 ADD SLOAD PUSH1 0x40 MLOAD DUP4 PUSH4 0xFFFFFFFF AND PUSH1 0xE0 SHL DUP2 MSTORE PUSH1 0x4 ADD PUSH2 0x7CF SWAP3 SWAP2 SWAP1 PUSH2 0x16AC JUMP JUMPDEST PUSH1 0x20 PUSH1 0x40 MLOAD DUP1 DUP4 SUB DUP2 PUSH1 0x0 DUP8 GAS CALL ISZERO DUP1 ISZERO PUSH2 0x7EE JUMPI RETURNDATASIZE PUSH1 0x0 DUP1 RETURNDATACOPY RETURNDATASIZE PUSH1 0x0 REVERT JUMPDEST POP POP POP POP PUSH1 0x40 MLOAD RETURNDATASIZE PUSH1 0x1F NOT PUSH1 0x1F DUP3 ADD AND DUP3 ADD DUP1 PUSH1 0x40 MSTORE POP DUP2 ADD SWAP1 PUSH2 0x812 SWAP2 SWAP1 PUSH2 0x1701 JUMP JUMPDEST POP PUSH32 0x7BB2B3C10797BACCB6F8C4791F1EDD6CA2F0D028EE0EDA64B01A9A57E3A653F7 DUP3 PUSH1 0x40 MLOAD PUSH2 0x842 SWAP2 SWAP1 PUSH2 0x1260 JUMP JUMPDEST PUSH1 0x40 MLOAD DUP1 SWAP2 SUB SWAP1 LOG1 POP POP JUMP JUMPDEST PUSH1 0x0 PUSH1 0x1 PUSH1 0x0 DUP4 DUP2 MSTORE PUSH1 0x20 ADD SWAP1 DUP2 MSTORE PUSH1 0x20 ADD PUSH1 0x0 KECCAK256 PUSH1 0x40 MLOAD DUP1 PUSH1 0xC0 ADD PUSH1 0x40 MSTORE SWAP1 DUP2 PUSH1 0x0 DUP3 ADD PUSH1 0x0 SWAP1 SLOAD SWAP1 PUSH2 0x100 EXP SWAP1 DIV PUSH20 0xFFFFFFFFFFFFFFFFFFFFFFFFFFFFFFFFFFFFFFFF AND PUSH20 0xFFFFFFFFFFFFFFFFFFFFFFFFFFFFFFFFFFFFFFFF AND PUSH20 0xFFFFFFFFFFFFFFFFFFFFFFFFFFFFFFFFFFFFFFFF AND DUP2 MSTORE PUSH1 0x20 ADD PUSH1 0x1 DUP3 ADD SLOAD DUP2 MSTORE PUSH1 0x20 ADD PUSH1 0x2 DUP3 ADD SLOAD DUP2 MSTORE PUSH1 0x20 ADD PUSH1 0x3 DUP3 ADD PUSH1 0x0 SWAP1 SLOAD SWAP1 PUSH2 0x100 EXP SWAP1 DIV PUSH4 0xFFFFFFFF AND PUSH4 0xFFFFFFFF AND PUSH4 0xFFFFFFFF AND DUP2 MSTORE PUSH1 0x20 ADD PUSH1 0x3 DUP3 ADD PUSH1 0x4 SWAP1 SLOAD SWAP1 PUSH2 0x100 EXP SWAP1 DIV PUSH4 0xFFFFFFFF AND PUSH4 0xFFFFFFFF AND PUSH4 0xFFFFFFFF AND DUP2 MSTORE PUSH1 0x20 ADD PUSH1 0x3 DUP3 ADD PUSH1 0x8 SWAP1 SLOAD SWAP1 PUSH2 0x100 EXP SWAP1 DIV PUSH1 0xFF AND ISZERO ISZERO ISZERO ISZERO DUP2 MSTORE POP POP SWAP1 POP CALLER PUSH20 0xFFFFFFFFFFFFFFFFFFFFFFFFFFFFFFFFFFFFFFFF AND DUP2 PUSH1 0x0 ADD MLOAD PUSH20 0xFFFFFFFFFFFFFFFFFFFFFFFFFFFFFFFFFFFFFFFF AND EQ PUSH2 0x9B3 JUMPI PUSH1 0x40 MLOAD PUSH32 0x8C379A000000000000000000000000000000000000000000000000000000000 DUP2 MSTORE PUSH1 0x4 ADD PUSH2 0x9AA SWAP1 PUSH2 0x17A3 JUMP JUMPDEST PUSH1 0x40 MLOAD DUP1 SWAP2 SUB SWAP1 REVERT JUMPDEST DUP1 PUSH1 0x60 ADD MLOAD PUSH4 0xFFFFFFFF AND TIMESTAMP LT PUSH2 0x9FF JUMPI PUSH1 0x40 MLOAD PUSH32 0x8C379A000000000000000000000000000000000000000000000000000000000 DUP2 MSTORE PUSH1 0x4 ADD PUSH2 0x9F6 SWAP1 PUSH2 0x187B JUMP JUMPDEST PUSH1 0x40 MLOAD DUP1 SWAP2 SUB SWAP1 REVERT JUMPDEST PUSH1 0x1 PUSH1 0x0 DUP4 DUP2 MSTORE PUSH1 0x20 ADD SWAP1 DUP2 MSTORE PUSH1 0x20 ADD PUSH1 0x0 KECCAK256 PUSH1 0x0 DUP1 DUP3 ADD PUSH1 0x0 PUSH2 0x100 EXP DUP2 SLOAD SWAP1 PUSH20 0xFFFFFFFFFFFFFFFFFFFFFFFFFFFFFFFFFFFFFFFF MUL NOT AND SWAP1 SSTORE PUSH1 0x1 DUP3 ADD PUSH1 0x0 SWAP1 SSTORE PUSH1 0x2 DUP3 ADD PUSH1 0x0 SWAP1 SSTORE PUSH1 0x3 DUP3 ADD PUSH1 0x0 PUSH2 0x100 EXP DUP2 SLOAD SWAP1 PUSH4 0xFFFFFFFF MUL NOT AND SWAP1 SSTORE PUSH1 0x3 DUP3 ADD PUSH1 0x4 PUSH2 0x100 EXP DUP2 SLOAD SWAP1 PUSH4 0xFFFFFFFF MUL NOT AND SWAP1 SSTORE PUSH1 0x3 DUP3 ADD PUSH1 0x8 PUSH2 0x100 EXP DUP2 SLOAD SWAP1 PUSH1 0xFF MUL NOT AND SWAP1 SSTORE POP POP PUSH32 0x8BF30E7FF26833413BE5F69E1D373744864D600B664204B4A2F9844A8EEDB9ED DUP3 PUSH1 0x40 MLOAD PUSH2 0xABD SWAP2 SWAP1 PUSH2 0x1260 JUMP JUMPDEST PUSH1 0x40 MLOAD DUP1 SWAP2 SUB SWAP1 LOG1 POP POP JUMP JUMPDEST TIMESTAMP DUP3 PUSH4 0xFFFFFFFF AND LT ISZERO PUSH2 0xB12 JUMPI PUSH1 0x40 MLOAD PUSH32 0x8C379A000000000000000000000000000000000000000000000000000000000 DUP2 MSTORE PUSH1 0x4 ADD PUSH2 0xB09 SWAP1 PUSH2 0x190D JUMP JUMPDEST PUSH1 0x40 MLOAD DUP1 SWAP2 SUB SWAP1 REVERT JUMPDEST DUP2 PUSH4 0xFFFFFFFF AND DUP2 PUSH4 0xFFFFFFFF AND LT ISZERO PUSH2 0xB61 JUMPI PUSH1 0x40 MLOAD PUSH32 0x8C379A000000000000000000000000000000000000000000000000000000000 DUP2 MSTORE PUSH1 0x4 ADD PUSH2 0xB58 SWAP1 PUSH2 0x199F JUMP JUMPDEST PUSH1 0x40 MLOAD DUP1 SWAP2 SUB SWAP1 REVERT JUMPDEST PUSH3 0x76A700 TIMESTAMP PUSH2 0xB70 SWAP2 SWAP1 PUSH2 0x19BF JUMP JUMPDEST DUP2 PUSH4 0xFFFFFFFF AND GT ISZERO PUSH2 0xBB8 JUMPI PUSH1 0x40 MLOAD PUSH32 0x8C379A000000000000000000000000000000000000000000000000000000000 DUP2 MSTORE PUSH1 0x4 ADD PUSH2 0xBAF SWAP1 PUSH2 0x1A87 JUMP JUMPDEST PUSH1 0x40 MLOAD DUP1 SWAP2 SUB SWAP1 REVERT JUMPDEST PUSH1 0x1 PUSH1 0x0 DUP1 DUP3 DUP3 SLOAD PUSH2 0xBCA SWAP2 SWAP1 PUSH2 0x19BF JUMP JUMPDEST SWAP3 POP POP DUP2 SWAP1 SSTORE POP PUSH1 0x40 MLOAD DUP1 PUSH1 0xC0 ADD PUSH1 0x40 MSTORE DUP1 CALLER PUSH20 0xFFFFFFFFFFFFFFFFFFFFFFFFFFFFFFFFFFFFFFFF AND DUP2 MSTORE PUSH1 0x20 ADD DUP5 DUP2 MSTORE PUSH1 0x20 ADD PUSH1 0x0 DUP2 MSTORE PUSH1 0x20 ADD DUP4 PUSH4 0xFFFFFFFF AND DUP2 MSTORE PUSH1 0x20 ADD DUP3 PUSH4 0xFFFFFFFF AND DUP2 MSTORE PUSH1 0x20 ADD PUSH1 0x0 ISZERO ISZERO DUP2 MSTORE POP PUSH1 0x1 PUSH1 0x0 DUP1 SLOAD DUP2 MSTORE PUSH1 0x20 ADD SWAP1 DUP2 MSTORE PUSH1 0x20 ADD PUSH1 0x0 KECCAK256 PUSH1 0x0 DUP3 ADD MLOAD DUP2 PUSH1 0x0 ADD PUSH1 0x0 PUSH2 0x100 EXP DUP2 SLOAD DUP2 PUSH20 0xFFFFFFFFFFFFFFFFFFFFFFFFFFFFFFFFFFFFFFFF MUL NOT AND SWAP1 DUP4 PUSH20 0xFFFFFFFFFFFFFFFFFFFFFFFFFFFFFFFFFFFFFFFF AND MUL OR SWAP1 SSTORE POP PUSH1 0x20 DUP3 ADD MLOAD DUP2 PUSH1 0x1 ADD SSTORE PUSH1 0x40 DUP3 ADD MLOAD DUP2 PUSH1 0x2 ADD SSTORE PUSH1 0x60 DUP3 ADD MLOAD DUP2 PUSH1 0x3 ADD PUSH1 0x0 PUSH2 0x100 EXP DUP2 SLOAD DUP2 PUSH4 0xFFFFFFFF MUL NOT AND SWAP1 DUP4 PUSH4 0xFFFFFFFF AND MUL OR SWAP1 SSTORE POP PUSH1 0x80 DUP3 ADD MLOAD DUP2 PUSH1 0x3 ADD PUSH1 0x4 PUSH2 0x100 EXP DUP2 SLOAD DUP2 PUSH4 0xFFFFFFFF MUL NOT AND SWAP1 DUP4 PUSH4 0xFFFFFFFF AND MUL OR SWAP1 SSTORE POP PUSH1 0xA0 DUP3 ADD MLOAD DUP2 PUSH1 0x3 ADD PUSH1 0x8 PUSH2 0x100 EXP DUP2 SLOAD DUP2 PUSH1 0xFF MUL NOT AND SWAP1 DUP4 ISZERO ISZERO MUL OR SWAP1 SSTORE POP SWAP1 POP POP CALLER PUSH20 0xFFFFFFFFFFFFFFFFFFFFFFFFFFFFFFFFFFFFFFFF AND PUSH32 0x6A7EBC88243075C8056F425CDB93A8A12757317309FA24F688CADE08FF4B4CAA PUSH1 0x0 SLOAD DUP6 DUP6 DUP6 PUSH1 0x40 MLOAD PUSH2 0xD52 SWAP5 SWAP4 SWAP3 SWAP2 SWAP1 PUSH2 0x1AA7 JUMP JUMPDEST PUSH1 0x40 MLOAD DUP1 SWAP2 SUB SWAP1 LOG2 POP POP POP JUMP JUMPDEST PUSH1 0x0 PUSH1 0x1 PUSH1 0x0 DUP5 DUP2 MSTORE PUSH1 0x20 ADD SWAP1 DUP2 MSTORE PUSH1 0x20 ADD PUSH1 0x0 KECCAK256 SWAP1 POP DUP1 PUSH1 0x3 ADD PUSH1 0x4 SWAP1 SLOAD SWAP1 PUSH2 0x100 EXP SWAP1 DIV PUSH4 0xFFFFFFFF AND PUSH4 0xFFFFFFFF AND TIMESTAMP GT ISZERO PUSH2 0xDD3 JUMPI PUSH1 0x40 MLOAD PUSH32 0x8C379A000000000000000000000000000000000000000000000000000000000 DUP2 MSTORE PUSH1 0x4 ADD PUSH2 0xDCA SWAP1 PUSH2 0x1B38 JUMP JUMPDEST PUSH1 0x40 MLOAD DUP1 SWAP2 SUB SWAP1 REVERT JUMPDEST DUP2 PUSH1 0x2 PUSH1 0x0 DUP6 DUP2 MSTORE PUSH1 0x20 ADD SWAP1 DUP2 MSTORE PUSH1 0x20 ADD PUSH1 0x0 KECCAK256 PUSH1 0x0 CALLER PUSH20 0xFFFFFFFFFFFFFFFFFFFFFFFFFFFFFFFFFFFFFFFF AND PUSH20 0xFFFFFFFFFFFFFFFFFFFFFFFFFFFFFFFFFFFFFFFF AND DUP2 MSTORE PUSH1 0x20 ADD SWAP1 DUP2 MSTORE PUSH1 0x20 ADD PUSH1 0x0 KECCAK256 SLOAD LT ISZERO PUSH2 0xE66 JUMPI PUSH1 0x40 MLOAD PUSH32 0x8C379A000000000000000000000000000000000000000000000000000000000 DUP2 MSTORE PUSH1 0x4 ADD PUSH2 0xE5D SWAP1 PUSH2 0x1BA4 JUMP JUMPDEST PUSH1 0x40 MLOAD DUP1 SWAP2 SUB SWAP1 REVERT JUMPDEST DUP2 DUP2 PUSH1 0x2 ADD PUSH1 0x0 DUP3 DUP3 SLOAD PUSH2 0xE7A SWAP2 SWAP1 PUSH2 0x1BC4 JUMP JUMPDEST SWAP3 POP POP DUP2 SWAP1 SSTORE POP DUP2 PUSH1 0x2 PUSH1 0x0 DUP6 DUP2 MSTORE PUSH1 0x20 ADD SWAP1 DUP2 MSTORE PUSH1 0x20 ADD PUSH1 0x0 KECCAK256 PUSH1 0x0 CALLER PUSH20 0xFFFFFFFFFFFFFFFFFFFFFFFFFFFFFFFFFFFFFFFF AND PUSH20 0xFFFFFFFFFFFFFFFFFFFFFFFFFFFFFFFFFFFFFFFF AND DUP2 MSTORE PUSH1 0x20 ADD SWAP1 DUP2 MSTORE PUSH1 0x20 ADD PUSH1 0x0 KECCAK256 PUSH1 0x0 DUP3 DUP3 SLOAD PUSH2 0xEE1 SWAP2 SWAP1 PUSH2 0x1BC4 JUMP JUMPDEST SWAP3 POP POP DUP2 SWAP1 SSTORE POP PUSH32 0x0 PUSH20 0xFFFFFFFFFFFFFFFFFFFFFFFFFFFFFFFFFFFFFFFF AND PUSH4 0xA9059CBB CALLER DUP5 PUSH1 0x40 MLOAD DUP4 PUSH4 0xFFFFFFFF AND PUSH1 0xE0 SHL DUP2 MSTORE PUSH1 0x4 ADD PUSH2 0xF43 SWAP3 SWAP2 SWAP1 PUSH2 0x16AC JUMP JUMPDEST PUSH1 0x20 PUSH1 0x40 MLOAD DUP1 DUP4 SUB DUP2 PUSH1 0x0 DUP8 GAS CALL ISZERO DUP1 ISZERO PUSH2 0xF62 JUMPI RETURNDATASIZE PUSH1 0x0 DUP1 RETURNDATACOPY RETURNDATASIZE PUSH1 0x0 REVERT JUMPDEST POP POP POP POP PUSH1 0x40 MLOAD RETURNDATASIZE PUSH1 0x1F NOT PUSH1 0x1F DUP3 ADD AND DUP3 ADD DUP1 PUSH1 0x40 MSTORE POP DUP2 ADD SWAP1 PUSH2 0xF86 SWAP2 SWAP1 PUSH2 0x1701 JUMP JUMPDEST POP CALLER PUSH20 0xFFFFFFFFFFFFFFFFFFFFFFFFFFFFFFFFFFFFFFFF AND DUP4 PUSH32 0xC8DE90742EDCA0E8667D211F018ED3F48F3BDB85B82942BD5F74683A4818CC34 DUP5 PUSH1 0x40 MLOAD PUSH2 0xFCE SWAP2 SWAP1 PUSH2 0x1260 JUMP JUMPDEST PUSH1 0x40 MLOAD DUP1 SWAP2 SUB SWAP1 LOG3 POP POP POP JUMP JUMPDEST PUSH1 0x0 PUSH1 0x1 PUSH1 0x0 DUP5 DUP2 MSTORE PUSH1 0x20 ADD SWAP1 DUP2 MSTORE PUSH1 0x20 ADD PUSH1 0x0 KECCAK256 SWAP1 POP DUP1 PUSH1 0x3 ADD PUSH1 0x0 SWAP1 SLOAD SWAP1 PUSH2 0x100 EXP SWAP1 DIV PUSH4 0xFFFFFFFF AND PUSH4 0xFFFFFFFF AND TIMESTAMP LT ISZERO PUSH2 0x104F JUMPI PUSH1 0x40 MLOAD PUSH32 0x8C379A000000000000000000000000000000000000000000000000000000000 DUP2 MSTORE PUSH1 0x4 ADD PUSH2 0x1046 SWAP1 PUSH2 0x1C44 JUMP JUMPDEST PUSH1 0x40 MLOAD DUP1 SWAP2 SUB SWAP1 REVERT JUMPDEST DUP1 PUSH1 0x3 ADD PUSH1 0x4 SWAP1 SLOAD SWAP1 PUSH2 0x100 EXP SWAP1 DIV PUSH4 0xFFFFFFFF AND PUSH4 0xFFFFFFFF AND TIMESTAMP GT ISZERO PUSH2 0x10AC JUMPI PUSH1 0x40 MLOAD PUSH32 0x8C379A000000000000000000000000000000000000000000000000000000000 DUP2 MSTORE PUSH1 0x4 ADD PUSH2 0x10A3 SWAP1 PUSH2 0x1B38 JUMP JUMPDEST PUSH1 0x40 MLOAD DUP1 SWAP2 SUB SWAP1 REVERT JUMPDEST DUP2 DUP2 PUSH1 0x2 ADD PUSH1 0x0 DUP3 DUP3 SLOAD PUSH2 0x10C0 SWAP2 SWAP1 PUSH2 0x19BF JUMP JUMPDEST SWAP3 POP POP DUP2 SWAP1 SSTORE POP DUP2 PUSH1 0x2 PUSH1 0x0 DUP6 DUP2 MSTORE PUSH1 0x20 ADD SWAP1 DUP2 MSTORE PUSH1 0x20 ADD PUSH1 0x0 KECCAK256 PUSH1 0x0 CALLER PUSH20 0xFFFFFFFFFFFFFFFFFFFFFFFFFFFFFFFFFFFFFFFF AND PUSH20 0xFFFFFFFFFFFFFFFFFFFFFFFFFFFFFFFFFFFFFFFF AND DUP2 MSTORE PUSH1 0x20 ADD SWAP1 DUP2 MSTORE PUSH1 0x20 ADD PUSH1 0x0 KECCAK256 PUSH1 0x0 DUP3 DUP3 SLOAD PUSH2 0x1127 SWAP2 SWAP1 PUSH2 0x19BF JUMP JUMPDEST SWAP3 POP POP DUP2 SWAP1 SSTORE POP PUSH32 0x0 PUSH20 0xFFFFFFFFFFFFFFFFFFFFFFFFFFFFFFFFFFFFFFFF AND PUSH4 0x23B872DD CALLER ADDRESS DUP6 PUSH1 0x40 MLOAD DUP5 PUSH4 0xFFFFFFFF AND PUSH1 0xE0 SHL DUP2 MSTORE PUSH1 0x4 ADD PUSH2 0x118B SWAP4 SWAP3 SWAP2 SWAP1 PUSH2 0x1C64 JUMP JUMPDEST PUSH1 0x20 PUSH1 0x40 MLOAD DUP1 DUP4 SUB DUP2 PUSH1 0x0 DUP8 GAS CALL ISZERO DUP1 ISZERO PUSH2 0x11AA JUMPI RETURNDATASIZE PUSH1 0x0 DUP1 RETURNDATACOPY RETURNDATASIZE PUSH1 0x0 REVERT JUMPDEST POP POP POP POP PUSH1 0x40 MLOAD RETURNDATASIZE PUSH1 0x1F NOT PUSH1 0x1F DUP3 ADD AND DUP3 ADD DUP1 PUSH1 0x40 MSTORE POP DUP2 ADD SWAP1 PUSH2 0x11CE SWAP2 SWAP1 PUSH2 0x1701 JUMP JUMPDEST POP CALLER PUSH20 0xFFFFFFFFFFFFFFFFFFFFFFFFFFFFFFFFFFFFFFFF AND DUP4 PUSH32 0x2D57124CFA4E385AFD5CC9D6F24874BDD21303AC9131D7CB674BE2A5855C7002 DUP5 PUSH1 0x40 MLOAD PUSH2 0x1216 SWAP2 SWAP1 PUSH2 0x1260 JUMP JUMPDEST PUSH1 0x40 MLOAD DUP1 SWAP2 SUB SWAP1 LOG3 POP POP POP JUMP JUMPDEST PUSH32 0x0 DUP2 JUMP JUMPDEST PUSH1 0x0 DUP2 SWAP1 POP SWAP2 SWAP1 POP JUMP JUMPDEST PUSH2 0x125A DUP2 PUSH2 0x1247 JUMP JUMPDEST DUP3 MSTORE POP POP JUMP JUMPDEST PUSH1 0x0 PUSH1 0x20 DUP3 ADD SWAP1 POP PUSH2 0x1275 PUSH1 0x0 DUP4 ADD DUP5 PUSH2 0x1251 JUMP JUMPDEST SWAP3 SWAP2 POP POP JUMP JUMPDEST PUSH1 0x0 DUP1 REVERT JUMPDEST PUSH2 0x1289 DUP2 PUSH2 0x1247 JUMP JUMPDEST DUP2 EQ PUSH2 0x1294 JUMPI PUSH1 0x0 DUP1 REVERT JUMPDEST POP JUMP JUMPDEST PUSH1 0x0 DUP2 CALLDATALOAD SWAP1 POP PUSH2 0x12A6 DUP2 PUSH2 0x1280 JUMP JUMPDEST SWAP3 SWAP2 POP POP JUMP JUMPDEST PUSH1 0x0 PUSH1 0x20 DUP3 DUP5 SUB SLT ISZERO PUSH2 0x12C2 JUMPI PUSH2 0x12C1 PUSH2 0x127B JUMP JUMPDEST JUMPDEST PUSH1 0x0 PUSH2 0x12D0 DUP5 DUP3 DUP6 ADD PUSH2 0x1297 JUMP JUMPDEST SWAP2 POP POP SWAP3 SWAP2 POP POP JUMP JUMPDEST PUSH1 0x0 PUSH20 0xFFFFFFFFFFFFFFFFFFFFFFFFFFFFFFFFFFFFFFFF DUP3 AND SWAP1 POP SWAP2 SWAP1 POP JUMP JUMPDEST PUSH1 0x0 PUSH2 0x1304 DUP3 PUSH2 0x12D9 JUMP JUMPDEST SWAP1 POP SWAP2 SWAP1 POP JUMP JUMPDEST PUSH2 0x1314 DUP2 PUSH2 0x12F9 JUMP JUMPDEST DUP3 MSTORE POP POP JUMP JUMPDEST PUSH1 0x0 PUSH4 0xFFFFFFFF DUP3 AND SWAP1 POP SWAP2 SWAP1 POP JUMP JUMPDEST PUSH2 0x1333 DUP2 PUSH2 0x131A JUMP JUMPDEST DUP3 MSTORE POP POP JUMP JUMPDEST PUSH1 0x0 DUP2 ISZERO ISZERO SWAP1 POP SWAP2 SWAP1 POP JUMP JUMPDEST PUSH2 0x134E DUP2 PUSH2 0x1339 JUMP JUMPDEST DUP3 MSTORE POP POP JUMP JUMPDEST PUSH1 0x0 PUSH1 0xC0 DUP3 ADD SWAP1 POP PUSH2 0x1369 PUSH1 0x0 DUP4 ADD DUP10 PUSH2 0x130B JUMP JUMPDEST PUSH2 0x1376 PUSH1 0x20 DUP4 ADD DUP9 PUSH2 0x1251 JUMP JUMPDEST PUSH2 0x1383 PUSH1 0x40 DUP4 ADD DUP8 PUSH2 0x1251 JUMP JUMPDEST PUSH2 0x1390 PUSH1 0x60 DUP4 ADD DUP7 PUSH2 0x132A JUMP JUMPDEST PUSH2 0x139D PUSH1 0x80 DUP4 ADD DUP6 PUSH2 0x132A JUMP JUMPDEST PUSH2 0x13AA PUSH1 0xA0 DUP4 ADD DUP5 PUSH2 0x1345 JUMP JUMPDEST SWAP8 SWAP7 POP POP POP POP POP POP POP JUMP JUMPDEST PUSH2 0x13BE DUP2 PUSH2 0x12F9 JUMP JUMPDEST DUP2 EQ PUSH2 0x13C9 JUMPI PUSH1 0x0 DUP1 REVERT JUMPDEST POP JUMP JUMPDEST PUSH1 0x0 DUP2 CALLDATALOAD SWAP1 POP PUSH2 0x13DB DUP2 PUSH2 0x13B5 JUMP JUMPDEST SWAP3 SWAP2 POP POP JUMP JUMPDEST PUSH1 0x0 DUP1 PUSH1 0x40 DUP4 DUP6 SUB SLT ISZERO PUSH2 0x13F8 JUMPI PUSH2 0x13F7 PUSH2 0x127B JUMP JUMPDEST JUMPDEST PUSH1 0x0 PUSH2 0x1406 DUP6 DUP3 DUP7 ADD PUSH2 0x1297 JUMP JUMPDEST SWAP3 POP POP PUSH1 0x20 PUSH2 0x1417 DUP6 DUP3 DUP7 ADD PUSH2 0x13CC JUMP JUMPDEST SWAP2 POP POP SWAP3 POP SWAP3 SWAP1 POP JUMP JUMPDEST PUSH2 0x142A DUP2 PUSH2 0x131A JUMP JUMPDEST DUP2 EQ PUSH2 0x1435 JUMPI PUSH1 0x0 DUP1 REVERT JUMPDEST POP JUMP JUMPDEST PUSH1 0x0 DUP2 CALLDATALOAD SWAP1 POP PUSH2 0x1447 DUP2 PUSH2 0x1421 JUMP JUMPDEST SWAP3 SWAP2 POP POP JUMP JUMPDEST PUSH1 0x0 DUP1 PUSH1 0x0 PUSH1 0x60 DUP5 DUP7 SUB SLT ISZERO PUSH2 0x1466 JUMPI PUSH2 0x1465 PUSH2 0x127B JUMP JUMPDEST JUMPDEST PUSH1 0x0 PUSH2 0x1474 DUP7 DUP3 DUP8 ADD PUSH2 0x1297 JUMP JUMPDEST SWAP4 POP POP PUSH1 0x20 PUSH2 0x1485 DUP7 DUP3 DUP8 ADD PUSH2 0x1438 JUMP JUMPDEST SWAP3 POP POP PUSH1 0x40 PUSH2 0x1496 DUP7 DUP3 DUP8 ADD PUSH2 0x1438 JUMP JUMPDEST SWAP2 POP POP SWAP3 POP SWAP3 POP SWAP3 JUMP JUMPDEST PUSH1 0x0 DUP1 PUSH1 0x40 DUP4 DUP6 SUB SLT ISZERO PUSH2 0x14B7 JUMPI PUSH2 0x14B6 PUSH2 0x127B JUMP JUMPDEST JUMPDEST PUSH1 0x0 PUSH2 0x14C5 DUP6 DUP3 DUP7 ADD PUSH2 0x1297 JUMP JUMPDEST SWAP3 POP POP PUSH1 0x20 PUSH2 0x14D6 DUP6 DUP3 DUP7 ADD PUSH2 0x1297 JUMP JUMPDEST SWAP2 POP POP SWAP3 POP SWAP3 SWAP1 POP JUMP JUMPDEST PUSH1 0x0 DUP2 SWAP1 POP SWAP2 SWAP1 POP JUMP JUMPDEST PUSH1 0x0 PUSH2 0x1505 PUSH2 0x1500 PUSH2 0x14FB DUP5 PUSH2 0x12D9 JUMP JUMPDEST PUSH2 0x14E0 JUMP JUMPDEST PUSH2 0x12D9 JUMP JUMPDEST SWAP1 POP SWAP2 SWAP1 POP JUMP JUMPDEST PUSH1 0x0 PUSH2 0x1517 DUP3 PUSH2 0x14EA JUMP JUMPDEST SWAP1 POP SWAP2 SWAP1 POP JUMP JUMPDEST PUSH1 0x0 PUSH2 0x1529 DUP3 PUSH2 0x150C JUMP JUMPDEST SWAP1 POP SWAP2 SWAP1 POP JUMP JUMPDEST PUSH2 0x1539 DUP2 PUSH2 0x151E JUMP JUMPDEST DUP3 MSTORE POP POP JUMP JUMPDEST PUSH1 0x0 PUSH1 0x20 DUP3 ADD SWAP1 POP PUSH2 0x1554 PUSH1 0x0 DUP4 ADD DUP5 PUSH2 0x1530 JUMP JUMPDEST SWAP3 SWAP2 POP POP JUMP JUMPDEST PUSH1 0x0 DUP3 DUP3 MSTORE PUSH1 0x20 DUP3 ADD SWAP1 POP SWAP3 SWAP2 POP POP JUMP JUMPDEST PUSH32 0x43616D706169676E20686173206E6F7420656E64656420796574210000000000 PUSH1 0x0 DUP3 ADD MSTORE POP JUMP JUMPDEST PUSH1 0x0 PUSH2 0x15A1 PUSH1 0x1B DUP4 PUSH2 0x155A JUMP JUMPDEST SWAP2 POP PUSH2 0x15AC DUP3 PUSH2 0x156B JUMP JUMPDEST PUSH1 0x20 DUP3 ADD SWAP1 POP SWAP2 SWAP1 POP JUMP JUMPDEST PUSH1 0x0 PUSH1 0x20 DUP3 ADD SWAP1 POP DUP2 DUP2 SUB PUSH1 0x0 DUP4 ADD MSTORE PUSH2 0x15D0 DUP2 PUSH2 0x1594 JUMP JUMPDEST SWAP1 POP SWAP2 SWAP1 POP JUMP JUMPDEST PUSH32 0x4E487B7100000000000000000000000000000000000000000000000000000000 PUSH1 0x0 MSTORE PUSH1 0x11 PUSH1 0x4 MSTORE PUSH1 0x24 PUSH1 0x0 REVERT JUMPDEST PUSH1 0x0 PUSH2 0x1611 DUP3 PUSH2 0x131A JUMP JUMPDEST SWAP2 POP PUSH2 0x161C DUP4 PUSH2 0x131A JUMP JUMPDEST SWAP3 POP DUP3 PUSH4 0xFFFFFFFF SUB DUP3 GT ISZERO PUSH2 0x1635 JUMPI PUSH2 0x1634 PUSH2 0x15D7 JUMP JUMPDEST JUMPDEST DUP3 DUP3 ADD SWAP1 POP SWAP3 SWAP2 POP POP JUMP JUMPDEST PUSH32 0x43616D706169676E20686173206E6F7420657870697265642079657421000000 PUSH1 0x0 DUP3 ADD MSTORE POP JUMP JUMPDEST PUSH1 0x0 PUSH2 0x1676 PUSH1 0x1D DUP4 PUSH2 0x155A JUMP JUMPDEST SWAP2 POP PUSH2 0x1681 DUP3 PUSH2 0x1640 JUMP JUMPDEST PUSH1 0x20 DUP3 ADD SWAP1 POP SWAP2 SWAP1 POP JUMP JUMPDEST PUSH1 0x0 PUSH1 0x20 DUP3 ADD SWAP1 POP DUP2 DUP2 SUB PUSH1 0x0 DUP4 ADD MSTORE PUSH2 0x16A5 DUP2 PUSH2 0x1669 JUMP JUMPDEST SWAP1 POP SWAP2 SWAP1 POP JUMP JUMPDEST PUSH1 0x0 PUSH1 0x40 DUP3 ADD SWAP1 POP PUSH2 0x16C1 PUSH1 0x0 DUP4 ADD DUP6 PUSH2 0x130B JUMP JUMPDEST PUSH2 0x16CE PUSH1 0x20 DUP4 ADD DUP5 PUSH2 0x1251 JUMP JUMPDEST SWAP4 SWAP3 POP POP POP JUMP JUMPDEST PUSH2 0x16DE DUP2 PUSH2 0x1339 JUMP JUMPDEST DUP2 EQ PUSH2 0x16E9 JUMPI PUSH1 0x0 DUP1 REVERT JUMPDEST POP JUMP JUMPDEST PUSH1 0x0 DUP2 MLOAD SWAP1 POP PUSH2 0x16FB DUP2 PUSH2 0x16D5 JUMP JUMPDEST SWAP3 SWAP2 POP POP JUMP JUMPDEST PUSH1 0x0 PUSH1 0x20 DUP3 DUP5 SUB SLT ISZERO PUSH2 0x1717 JUMPI PUSH2 0x1716 PUSH2 0x127B JUMP JUMPDEST JUMPDEST PUSH1 0x0 PUSH2 0x1725 DUP5 DUP3 DUP6 ADD PUSH2 0x16EC JUMP JUMPDEST SWAP2 POP POP SWAP3 SWAP2 POP POP JUMP JUMPDEST PUSH1 0x0 PUSH1 0x40 DUP3 ADD SWAP1 POP PUSH2 0x1743 PUSH1 0x0 DUP4 ADD DUP6 PUSH2 0x1251 JUMP JUMPDEST PUSH2 0x1750 PUSH1 0x20 DUP4 ADD DUP5 PUSH2 0x1251 JUMP JUMPDEST SWAP4 SWAP3 POP POP POP JUMP JUMPDEST PUSH32 0x53656E646572206973206E6F74207468652063726561746F7221000000000000 PUSH1 0x0 DUP3 ADD MSTORE POP JUMP JUMPDEST PUSH1 0x0 PUSH2 0x178D PUSH1 0x1A DUP4 PUSH2 0x155A JUMP JUMPDEST SWAP2 POP PUSH2 0x1798 DUP3 PUSH2 0x1757 JUMP JUMPDEST PUSH1 0x20 DUP3 ADD SWAP1 POP SWAP2 SWAP1 POP JUMP JUMPDEST PUSH1 0x0 PUSH1 0x20 DUP3 ADD SWAP1 POP DUP2 DUP2 SUB PUSH1 0x0 DUP4 ADD MSTORE PUSH2 0x17BC DUP2 PUSH2 0x1780 JUMP JUMPDEST SWAP1 POP SWAP2 SWAP1 POP JUMP JUMPDEST PUSH32 0x446F6E6174696F6E20697320616C726561647920636C61696D65642100000000 PUSH1 0x0 DUP3 ADD MSTORE POP JUMP JUMPDEST PUSH1 0x0 PUSH2 0x17F9 PUSH1 0x1C DUP4 PUSH2 0x155A JUMP JUMPDEST SWAP2 POP PUSH2 0x1804 DUP3 PUSH2 0x17C3 JUMP JUMPDEST PUSH1 0x20 DUP3 ADD SWAP1 POP SWAP2 SWAP1 POP JUMP JUMPDEST PUSH1 0x0 PUSH1 0x20 DUP3 ADD SWAP1 POP DUP2 DUP2 SUB PUSH1 0x0 DUP4 ADD MSTORE PUSH2 0x1828 DUP2 PUSH2 0x17EC JUMP JUMPDEST SWAP1 POP SWAP2 SWAP1 POP JUMP JUMPDEST PUSH32 0x43616D706169676E20616C726561647920737461727465642100000000000000 PUSH1 0x0 DUP3 ADD MSTORE POP JUMP JUMPDEST PUSH1 0x0 PUSH2 0x1865 PUSH1 0x19 DUP4 PUSH2 0x155A JUMP JUMPDEST SWAP2 POP PUSH2 0x1870 DUP3 PUSH2 0x182F JUMP JUMPDEST PUSH1 0x20 DUP3 ADD SWAP1 POP SWAP2 SWAP1 POP JUMP JUMPDEST PUSH1 0x0 PUSH1 0x20 DUP3 ADD SWAP1 POP DUP2 DUP2 SUB PUSH1 0x0 DUP4 ADD MSTORE PUSH2 0x1894 DUP2 PUSH2 0x1858 JUMP JUMPDEST SWAP1 POP SWAP2 SWAP1 POP JUMP JUMPDEST PUSH32 0x53746172742064617465206973206C657373207468616E2063757272656E7420 PUSH1 0x0 DUP3 ADD MSTORE PUSH32 0x6461746521000000000000000000000000000000000000000000000000000000 PUSH1 0x20 DUP3 ADD MSTORE POP JUMP JUMPDEST PUSH1 0x0 PUSH2 0x18F7 PUSH1 0x25 DUP4 PUSH2 0x155A JUMP JUMPDEST SWAP2 POP PUSH2 0x1902 DUP3 PUSH2 0x189B JUMP JUMPDEST PUSH1 0x40 DUP3 ADD SWAP1 POP SWAP2 SWAP1 POP JUMP JUMPDEST PUSH1 0x0 PUSH1 0x20 DUP3 ADD SWAP1 POP DUP2 DUP2 SUB PUSH1 0x0 DUP4 ADD MSTORE PUSH2 0x1926 DUP2 PUSH2 0x18EA JUMP JUMPDEST SWAP1 POP SWAP2 SWAP1 POP JUMP JUMPDEST PUSH32 0x456E642064617465206973206C657373207468616E2073746172742064617465 PUSH1 0x0 DUP3 ADD MSTORE PUSH32 0x2100000000000000000000000000000000000000000000000000000000000000 PUSH1 0x20 DUP3 ADD MSTORE POP JUMP JUMPDEST PUSH1 0x0 PUSH2 0x1989 PUSH1 0x21 DUP4 PUSH2 0x155A JUMP JUMPDEST SWAP2 POP PUSH2 0x1994 DUP3 PUSH2 0x192D JUMP JUMPDEST PUSH1 0x40 DUP3 ADD SWAP1 POP SWAP2 SWAP1 POP JUMP JUMPDEST PUSH1 0x0 PUSH1 0x20 DUP3 ADD SWAP1 POP DUP2 DUP2 SUB PUSH1 0x0 DUP4 ADD MSTORE PUSH2 0x19B8 DUP2 PUSH2 0x197C JUMP JUMPDEST SWAP1 POP SWAP2 SWAP1 POP JUMP JUMPDEST PUSH1 0x0 PUSH2 0x19CA DUP3 PUSH2 0x1247 JUMP JUMPDEST SWAP2 POP PUSH2 0x19D5 DUP4 PUSH2 0x1247 JUMP JUMPDEST SWAP3 POP DUP3 PUSH32 0xFFFFFFFFFFFFFFFFFFFFFFFFFFFFFFFFFFFFFFFFFFFFFFFFFFFFFFFFFFFFFFFF SUB DUP3 GT ISZERO PUSH2 0x1A0A JUMPI PUSH2 0x1A09 PUSH2 0x15D7 JUMP JUMPDEST JUMPDEST DUP3 DUP3 ADD SWAP1 POP SWAP3 SWAP2 POP POP JUMP JUMPDEST PUSH32 0x456E6420646174652069732067726561746572207468616E206D6178696D756D PUSH1 0x0 DUP3 ADD MSTORE PUSH32 0x206475726174696F6E2100000000000000000000000000000000000000000000 PUSH1 0x20 DUP3 ADD MSTORE POP JUMP JUMPDEST PUSH1 0x0 PUSH2 0x1A71 PUSH1 0x2A DUP4 PUSH2 0x155A JUMP JUMPDEST SWAP2 POP PUSH2 0x1A7C DUP3 PUSH2 0x1A15 JUMP JUMPDEST PUSH1 0x40 DUP3 ADD SWAP1 POP SWAP2 SWAP1 POP JUMP JUMPDEST PUSH1 0x0 PUSH1 0x20 DUP3 ADD SWAP1 POP DUP2 DUP2 SUB PUSH1 0x0 DUP4 ADD MSTORE PUSH2 0x1AA0 DUP2 PUSH2 0x1A64 JUMP JUMPDEST SWAP1 POP SWAP2 SWAP1 POP JUMP JUMPDEST PUSH1 0x0 PUSH1 0x80 DUP3 ADD SWAP1 POP PUSH2 0x1ABC PUSH1 0x0 DUP4 ADD DUP8 PUSH2 0x1251 JUMP JUMPDEST PUSH2 0x1AC9 PUSH1 0x20 DUP4 ADD DUP7 PUSH2 0x1251 JUMP JUMPDEST PUSH2 0x1AD6 PUSH1 0x40 DUP4 ADD DUP6 PUSH2 0x132A JUMP JUMPDEST PUSH2 0x1AE3 PUSH1 0x60 DUP4 ADD DUP5 PUSH2 0x132A JUMP JUMPDEST SWAP6 SWAP5 POP POP POP POP POP JUMP JUMPDEST PUSH32 0x43616D706169676E20656E64656420616C726561647921000000000000000000 PUSH1 0x0 DUP3 ADD MSTORE POP JUMP JUMPDEST PUSH1 0x0 PUSH2 0x1B22 PUSH1 0x17 DUP4 PUSH2 0x155A JUMP JUMPDEST SWAP2 POP PUSH2 0x1B2D DUP3 PUSH2 0x1AEC JUMP JUMPDEST PUSH1 0x20 DUP3 ADD SWAP1 POP SWAP2 SWAP1 POP JUMP JUMPDEST PUSH1 0x0 PUSH1 0x20 DUP3 ADD SWAP1 POP DUP2 DUP2 SUB PUSH1 0x0 DUP4 ADD MSTORE PUSH2 0x1B51 DUP2 PUSH2 0x1B15 JUMP JUMPDEST SWAP1 POP SWAP2 SWAP1 POP JUMP JUMPDEST PUSH32 0x416D6F756E742069732067726561746572207468616E206F6666657265642100 PUSH1 0x0 DUP3 ADD MSTORE POP JUMP JUMPDEST PUSH1 0x0 PUSH2 0x1B8E PUSH1 0x1F DUP4 PUSH2 0x155A JUMP JUMPDEST SWAP2 POP PUSH2 0x1B99 DUP3 PUSH2 0x1B58 JUMP JUMPDEST PUSH1 0x20 DUP3 ADD SWAP1 POP SWAP2 SWAP1 POP JUMP JUMPDEST PUSH1 0x0 PUSH1 0x20 DUP3 ADD SWAP1 POP DUP2 DUP2 SUB PUSH1 0x0 DUP4 ADD MSTORE PUSH2 0x1BBD DUP2 PUSH2 0x1B81 JUMP JUMPDEST SWAP1 POP SWAP2 SWAP1 POP JUMP JUMPDEST PUSH1 0x0 PUSH2 0x1BCF DUP3 PUSH2 0x1247 JUMP JUMPDEST SWAP2 POP PUSH2 0x1BDA DUP4 PUSH2 0x1247 JUMP JUMPDEST SWAP3 POP DUP3 DUP3 LT ISZERO PUSH2 0x1BED JUMPI PUSH2 0x1BEC PUSH2 0x15D7 JUMP JUMPDEST JUMPDEST DUP3 DUP3 SUB SWAP1 POP SWAP3 SWAP2 POP POP JUMP JUMPDEST PUSH32 0x43616D706169676E20686173206E6F7420737461727465642079657421000000 PUSH1 0x0 DUP3 ADD MSTORE POP JUMP JUMPDEST PUSH1 0x0 PUSH2 0x1C2E PUSH1 0x1D DUP4 PUSH2 0x155A JUMP JUMPDEST SWAP2 POP PUSH2 0x1C39 DUP3 PUSH2 0x1BF8 JUMP JUMPDEST PUSH1 0x20 DUP3 ADD SWAP1 POP SWAP2 SWAP1 POP JUMP JUMPDEST PUSH1 0x0 PUSH1 0x20 DUP3 ADD SWAP1 POP DUP2 DUP2 SUB PUSH1 0x0 DUP4 ADD MSTORE PUSH2 0x1C5D DUP2 PUSH2 0x1C21 JUMP JUMPDEST SWAP1 POP SWAP2 SWAP1 POP JUMP JUMPDEST PUSH1 0x0 PUSH1 0x60 DUP3 ADD SWAP1 POP PUSH2 0x1C79 PUSH1 0x0 DUP4 ADD DUP7 PUSH2 0x130B JUMP JUMPDEST PUSH2 0x1C86 PUSH1 0x20 DUP4 ADD DUP6 PUSH2 0x130B JUMP JUMPDEST PUSH2 0x1C93 PUSH1 0x40 DUP4 ADD DUP5 PUSH2 0x1251 JUMP JUMPDEST SWAP5 SWAP4 POP POP POP POP JUMP INVALID LOG2 PUSH5 0x6970667358 0x22 SLT KECCAK256 LOG1 0xED PUSH22 0x8F3E3942EAE421AAC3CA44A2AE508EE572C832BD178C SMOD PUSH16 0x72C4074BDD64736F6C634300080D0033 "
				},
				"gasEstimates": {
					"creation": {
						"codeDepositCost": "1475400",
						"executionCost": "infinite",
						"totalCost": "infinite"
					},
					"external": {
						"begin(uint256,uint32,uint32)": "infinite",
						"campaigns(uint256)": "infinite",
						"cancel(uint256)": "infinite",
						"claim(uint256)": "infinite",
						"count()": "2430",
						"offer(uint256,uint256)": "infinite",
						"offerdAmount(uint256,address)": "infinite",
						"refund(uint256)": "infinite",
						"refuse(uint256,uint256)": "infinite",
						"token()": "infinite"
					}
				},
				"methodIdentifiers": {
					"begin(uint256,uint32,uint32)": "5391efdf",
					"campaigns(uint256)": "141961bc",
					"cancel(uint256)": "40e58ee5",
					"claim(uint256)": "379607f5",
					"count()": "06661abd",
					"offer(uint256,uint256)": "a1920586",
					"offerdAmount(uint256,address)": "35bae386",
					"refund(uint256)": "278ecde1",
					"refuse(uint256,uint256)": "7db8112d",
					"token()": "fc0c546a"
				}
			},
			"storageLayout": {
				"storage": [
					{
						"astId": 64,
						"contract": "CharityDonation.sol:CharityDonation",
						"label": "count",
						"offset": 0,
						"slot": "0",
						"type": "t_uint256"
					},
					{
						"astId": 69,
						"contract": "CharityDonation.sol:CharityDonation",
						"label": "campaigns",
						"offset": 0,
						"slot": "1",
						"type": "t_mapping(t_uint256,t_struct(Campaign)59_storage)"
					},
					{
						"astId": 75,
						"contract": "CharityDonation.sol:CharityDonation",
						"label": "offerdAmount",
						"offset": 0,
						"slot": "2",
						"type": "t_mapping(t_uint256,t_mapping(t_address,t_uint256))"
					}
				],
				"types": {
					"t_address": {
						"encoding": "inplace",
						"label": "address",
						"numberOfBytes": "20"
					},
					"t_bool": {
						"encoding": "inplace",
						"label": "bool",
						"numberOfBytes": "1"
					},
					"t_mapping(t_address,t_uint256)": {
						"encoding": "mapping",
						"key": "t_address",
						"label": "mapping(address => uint256)",
						"numberOfBytes": "32",
						"value": "t_uint256"
					},
					"t_mapping(t_uint256,t_mapping(t_address,t_uint256))": {
						"encoding": "mapping",
						"key": "t_uint256",
						"label": "mapping(uint256 => mapping(address => uint256))",
						"numberOfBytes": "32",
						"value": "t_mapping(t_address,t_uint256)"
					},
					"t_mapping(t_uint256,t_struct(Campaign)59_storage)": {
						"encoding": "mapping",
						"key": "t_uint256",
						"label": "mapping(uint256 => struct CharityDonation.Campaign)",
						"numberOfBytes": "32",
						"value": "t_struct(Campaign)59_storage"
					},
					"t_struct(Campaign)59_storage": {
						"encoding": "inplace",
						"label": "struct CharityDonation.Campaign",
						"members": [
							{
								"astId": 48,
								"contract": "CharityDonation.sol:CharityDonation",
								"label": "creator",
								"offset": 0,
								"slot": "0",
								"type": "t_address"
							},
							{
								"astId": 50,
								"contract": "CharityDonation.sol:CharityDonation",
								"label": "target",
								"offset": 0,
								"slot": "1",
								"type": "t_uint256"
							},
							{
								"astId": 52,
								"contract": "CharityDonation.sol:CharityDonation",
								"label": "offerd",
								"offset": 0,
								"slot": "2",
								"type": "t_uint256"
							},
							{
								"astId": 54,
								"contract": "CharityDonation.sol:CharityDonation",
								"label": "startDate",
								"offset": 0,
								"slot": "3",
								"type": "t_uint32"
							},
							{
								"astId": 56,
								"contract": "CharityDonation.sol:CharityDonation",
								"label": "endDate",
								"offset": 4,
								"slot": "3",
								"type": "t_uint32"
							},
							{
								"astId": 58,
								"contract": "CharityDonation.sol:CharityDonation",
								"label": "claimed",
								"offset": 8,
								"slot": "3",
								"type": "t_bool"
							}
						],
						"numberOfBytes": "128"
					},
					"t_uint256": {
						"encoding": "inplace",
						"label": "uint256",
						"numberOfBytes": "32"
					},
					"t_uint32": {
						"encoding": "inplace",
						"label": "uint32",
						"numberOfBytes": "4"
					}
				}
			},
			"userdoc": {
				"kind": "user",
				"methods": {},
				"version": 1
			}
		}
	}
}